{
  "address": "0x2279B7A0a67DB372996a5FaB50D91eAA73d2eBe6",
  "abi": [
    {
      "anonymous": false,
      "inputs": [
        {
          "indexed": false,
          "internalType": "address",
          "name": "_borrower",
          "type": "address"
        }
      ],
      "name": "BorrowerVerified",
      "type": "event"
    },
    {
      "anonymous": false,
      "inputs": [
        {
          "indexed": false,
          "internalType": "address",
          "name": "_rentNft",
          "type": "address"
        },
        {
          "indexed": false,
          "internalType": "uint256",
          "name": "_nftId",
          "type": "uint256"
        }
      ],
      "name": "LendingStopped",
      "type": "event"
    },
    {
      "anonymous": false,
      "inputs": [
        {
          "indexed": true,
          "internalType": "address",
          "name": "previousOwner",
          "type": "address"
        },
        {
          "indexed": true,
          "internalType": "address",
          "name": "newOwner",
          "type": "address"
        }
      ],
      "name": "OwnershipTransferred",
      "type": "event"
    },
    {
      "anonymous": false,
      "inputs": [
        {
          "indexed": false,
          "internalType": "address",
          "name": "NFTRent",
          "type": "address"
        },
        {
          "indexed": false,
          "internalType": "uint256",
          "name": "DailyRentPrice",
          "type": "uint256"
        }
      ],
      "name": "QuoteAccepted",
      "type": "event"
    },
    {
      "anonymous": false,
      "inputs": [
        {
          "indexed": false,
          "internalType": "address",
          "name": "_rentNft",
          "type": "address"
        },
        {
          "indexed": false,
          "internalType": "uint256",
          "name": "_NftId",
          "type": "uint256"
        },
        {
          "indexed": false,
          "internalType": "uint256",
          "name": "_dailyRentPrice",
          "type": "uint256"
        },
        {
          "indexed": false,
          "internalType": "uint256",
          "name": "_repayInterval",
          "type": "uint256"
        },
        {
          "indexed": false,
          "internalType": "uint256",
          "name": "_collateralAmount",
          "type": "uint256"
        }
      ],
      "name": "QuoteProvided",
      "type": "event"
    },
    {
      "anonymous": false,
      "inputs": [
        {
          "indexed": false,
          "internalType": "address",
          "name": "NFTRent",
          "type": "address"
        },
        {
          "indexed": false,
          "internalType": "uint256",
          "name": "DailyRentPrice",
          "type": "uint256"
        }
      ],
      "name": "QuoteRejected",
      "type": "event"
    },
    {
      "anonymous": false,
      "inputs": [
        {
          "indexed": false,
          "internalType": "string",
          "name": "_name",
          "type": "string"
        },
        {
          "indexed": false,
          "internalType": "address",
          "name": "_rentNft",
          "type": "address"
        },
        {
          "indexed": false,
          "internalType": "uint256",
          "name": "_nftId",
          "type": "uint256"
        },
        {
          "indexed": false,
          "internalType": "address",
          "name": "_collateralAsset",
          "type": "address"
        },
        {
          "indexed": false,
          "internalType": "uint256",
          "name": "_rentDuration",
          "type": "uint256"
        },
        {
          "indexed": false,
          "internalType": "uint256",
          "name": "_dailyRentalPrice",
          "type": "uint256"
        },
        {
          "indexed": false,
          "internalType": "uint256",
          "name": "_collateralAmount",
          "type": "uint256"
        }
      ],
      "name": "QuoteReleased",
      "type": "event"
    },
    {
      "anonymous": false,
      "inputs": [
        {
          "indexed": false,
          "internalType": "string",
          "name": "_name",
          "type": "string"
        },
        {
          "indexed": false,
          "internalType": "address",
          "name": "_rentNft",
          "type": "address"
        },
        {
          "indexed": false,
          "internalType": "uint256",
          "name": "_nftId",
          "type": "uint256"
        },
        {
          "indexed": false,
          "internalType": "address",
          "name": "_collateralAsset",
          "type": "address"
        },
        {
          "indexed": false,
          "internalType": "uint256",
          "name": "_rentDuration",
          "type": "uint256"
        }
      ],
      "name": "QuoteRequested",
      "type": "event"
    },
    {
      "anonymous": false,
      "inputs": [
        {
          "indexed": false,
          "internalType": "address",
          "name": "NFTRent",
          "type": "address"
        },
        {
          "indexed": false,
          "internalType": "bytes32",
          "name": "NFTRentHash",
          "type": "bytes32"
        },
        {
          "indexed": false,
          "internalType": "enum NFTRentStorage.NFTRentLineStatus",
          "name": "currentStatus",
          "type": "uint8"
        }
      ],
      "name": "RentActive",
      "type": "event"
    },
    {
      "anonymous": false,
      "inputs": [
        {
          "indexed": false,
          "internalType": "address",
          "name": "NFTRent",
          "type": "address"
        },
        {
          "indexed": false,
          "internalType": "bytes32",
          "name": "NFTRentHash",
          "type": "bytes32"
        },
        {
          "indexed": false,
          "internalType": "enum NFTRentStorage.NFTRentLineStatus",
          "name": "currentStatus",
          "type": "uint8"
        }
      ],
      "name": "RentCancelled",
      "type": "event"
    },
    {
      "anonymous": false,
      "inputs": [
        {
          "indexed": false,
          "internalType": "address",
          "name": "NFTRent",
          "type": "address"
        },
        {
          "indexed": false,
          "internalType": "bytes32",
          "name": "NFTRentHash",
          "type": "bytes32"
        },
        {
          "indexed": false,
          "internalType": "enum NFTRentStorage.NFTRentLineStatus",
          "name": "currentStatus",
          "type": "uint8"
        }
      ],
      "name": "RentClosed",
      "type": "event"
    },
    {
      "anonymous": false,
      "inputs": [
        {
          "indexed": false,
          "internalType": "address",
          "name": "NFTRent",
          "type": "address"
        },
        {
          "indexed": false,
          "internalType": "bytes32",
          "name": "NFTRentHash",
          "type": "bytes32"
        },
        {
          "indexed": false,
          "internalType": "enum NFTRentStorage.NFTRentLineStatus",
          "name": "currentStatus",
          "type": "uint8"
        }
      ],
      "name": "RentDefaulted",
      "type": "event"
    },
    {
      "anonymous": false,
      "inputs": [
        {
          "indexed": false,
          "internalType": "address",
          "name": "NFTRent",
          "type": "address"
        },
        {
          "indexed": false,
          "internalType": "bytes32",
          "name": "NFTRentHash",
          "type": "bytes32"
        },
        {
          "indexed": false,
          "internalType": "enum NFTRentStorage.NFTRentLineStatus",
          "name": "currentStatus",
          "type": "uint8"
        }
      ],
      "name": "RentRequested",
      "type": "event"
    },
    {
      "anonymous": false,
      "inputs": [
        {
          "indexed": false,
          "internalType": "address",
          "name": "_rentNft",
          "type": "address"
        },
        {
          "indexed": false,
          "internalType": "uint256",
          "name": "repaymentsLeft",
          "type": "uint256"
        }
      ],
      "name": "Repaid",
      "type": "event"
    },
    {
      "anonymous": false,
      "inputs": [
        {
          "indexed": false,
          "internalType": "address",
          "name": "verifier",
          "type": "address"
        },
        {
          "indexed": false,
          "internalType": "string",
          "name": "metadata",
          "type": "string"
        }
      ],
      "name": "VerifierAdded",
      "type": "event"
    },
    {
      "anonymous": false,
      "inputs": [
        {
          "indexed": false,
          "internalType": "address",
          "name": "verifier",
          "type": "address"
        }
      ],
      "name": "VerifierRemoved",
      "type": "event"
    },
    {
      "inputs": [
        {
          "internalType": "address",
          "name": "_rentNft",
          "type": "address"
        },
        {
          "internalType": "uint256",
          "name": "_nftId",
          "type": "uint256"
        }
      ],
      "name": "AcceptQuote",
      "outputs": [],
      "stateMutability": "nonpayable",
      "type": "function"
    },
    {
      "inputs": [
        {
          "internalType": "address",
          "name": "_rentNft",
          "type": "address"
        },
        {
          "internalType": "uint256",
          "name": "_nftId",
          "type": "uint256"
        }
      ],
      "name": "ClaimCollateral",
      "outputs": [],
      "stateMutability": "nonpayable",
      "type": "function"
    },
    {
      "inputs": [
        {
          "internalType": "address",
          "name": "_rentNft",
          "type": "address"
        },
        {
          "internalType": "uint256",
          "name": "_nftId",
          "type": "uint256"
        }
      ],
      "name": "ClaimStake",
      "outputs": [],
      "stateMutability": "nonpayable",
      "type": "function"
    },
    {
      "inputs": [
        {
          "internalType": "address",
          "name": "_rentNft",
          "type": "address"
        },
        {
          "internalType": "uint256",
          "name": "_nftId",
          "type": "uint256"
        },
        {
          "internalType": "uint256",
          "name": "_rentDuration",
          "type": "uint256"
        },
        {
          "internalType": "address",
          "name": "_collateralAsset",
          "type": "address"
        },
        {
          "internalType": "uint256",
          "name": "_dailyRentalPrice",
          "type": "uint256"
        },
        {
          "internalType": "uint256",
          "name": "_repayInterval",
          "type": "uint256"
        },
        {
          "internalType": "uint256",
          "name": "_collateralAmount",
          "type": "uint256"
        }
      ],
      "name": "CustomQuote",
      "outputs": [],
      "stateMutability": "nonpayable",
      "type": "function"
    },
    {
      "inputs": [
        {
          "internalType": "address",
          "name": "_rentNft",
          "type": "address"
        },
        {
          "internalType": "uint256",
          "name": "_nftId",
          "type": "uint256"
        }
      ],
      "name": "GetStakeBack",
      "outputs": [],
      "stateMutability": "nonpayable",
      "type": "function"
    },
    {
      "inputs": [],
      "name": "NFTRentLineCounter",
      "outputs": [
        {
          "internalType": "uint256",
          "name": "",
          "type": "uint256"
        }
      ],
      "stateMutability": "view",
      "type": "function"
    },
    {
      "inputs": [
        {
          "internalType": "bytes32",
          "name": "",
          "type": "bytes32"
        }
      ],
      "name": "NFTRentLineInfo",
      "outputs": [
        {
          "internalType": "bool",
          "name": "exists",
          "type": "bool"
        },
        {
          "internalType": "address",
          "name": "lender",
          "type": "address"
        },
        {
          "internalType": "address",
          "name": "borrower",
          "type": "address"
        },
        {
          "internalType": "uint256",
          "name": "rentalPrice",
          "type": "uint256"
        },
        {
          "internalType": "address",
          "name": "NftAsset",
          "type": "address"
        },
        {
          "internalType": "uint256",
          "name": "NftId",
          "type": "uint256"
        },
        {
          "internalType": "address",
          "name": "collateralAsset",
          "type": "address"
        },
        {
          "internalType": "enum NFTRentStorage.NFTRentLineStatus",
          "name": "currentStatus",
          "type": "uint8"
        }
      ],
      "stateMutability": "view",
      "type": "function"
    },
    {
      "inputs": [
        {
          "internalType": "bytes32",
          "name": "",
          "type": "bytes32"
        }
      ],
      "name": "NFTRentLineUsage",
      "outputs": [
        {
          "internalType": "uint256",
          "name": "repayments",
          "type": "uint256"
        },
        {
          "internalType": "uint256",
          "name": "withdrawInterval",
          "type": "uint256"
        },
        {
          "internalType": "uint256",
          "name": "repaymentInterval",
          "type": "uint256"
        },
        {
          "internalType": "uint256",
          "name": "repaymentsCompleted",
          "type": "uint256"
        },
        {
          "internalType": "uint256",
          "name": "_rentalPrice",
          "type": "uint256"
        },
        {
          "internalType": "uint256",
          "name": "loanStartTime",
          "type": "uint256"
        },
        {
          "internalType": "uint256",
          "name": "lastRepaymentTime",
          "type": "uint256"
        }
      ],
      "stateMutability": "view",
      "type": "function"
    },
    {
      "inputs": [
        {
          "internalType": "address",
          "name": "",
          "type": "address"
        },
        {
          "internalType": "uint256",
          "name": "",
          "type": "uint256"
        }
      ],
      "name": "NFTtoHash",
      "outputs": [
        {
          "internalType": "bytes32",
          "name": "",
          "type": "bytes32"
        }
      ],
      "stateMutability": "view",
      "type": "function"
    },
    {
      "inputs": [
        {
          "internalType": "address",
          "name": "_rentNft",
          "type": "address"
        },
        {
          "internalType": "uint256",
          "name": "_nftId",
          "type": "uint256"
        },
        {
          "internalType": "uint256",
          "name": "_dailyRentalPrice",
          "type": "uint256"
        },
        {
          "internalType": "uint256",
          "name": "_collateralAmount",
          "type": "uint256"
        }
      ],
      "name": "RejectQuote",
      "outputs": [],
      "stateMutability": "nonpayable",
      "type": "function"
    },
    {
      "inputs": [
        {
          "internalType": "address",
          "name": "_rentNft",
          "type": "address"
        },
        {
          "internalType": "uint256",
          "name": "_nftId",
          "type": "uint256"
        }
      ],
      "name": "Rent",
      "outputs": [],
      "stateMutability": "payable",
      "type": "function"
    },
    {
      "inputs": [
        {
          "internalType": "address",
          "name": "_rentNft",
          "type": "address"
        },
        {
          "internalType": "uint256",
          "name": "_nftId",
          "type": "uint256"
        }
      ],
      "name": "SendNft",
      "outputs": [],
      "stateMutability": "payable",
      "type": "function"
    },
    {
      "inputs": [
        {
          "internalType": "address",
          "name": "_rentNft",
          "type": "address"
        },
        {
          "internalType": "uint256",
          "name": "_nftId",
          "type": "uint256"
        },
        {
          "internalType": "uint256",
          "name": "_amount",
          "type": "uint256"
        }
      ],
      "name": "Stake",
      "outputs": [],
      "stateMutability": "payable",
      "type": "function"
    },
    {
      "inputs": [
        {
          "internalType": "address",
          "name": "",
          "type": "address"
        }
      ],
      "name": "VerifiedBorrowers",
      "outputs": [
        {
          "internalType": "bool",
          "name": "",
          "type": "bool"
        }
      ],
      "stateMutability": "view",
      "type": "function"
    },
    {
      "inputs": [
        {
          "internalType": "address",
          "name": "_verifier",
          "type": "address"
        },
        {
          "internalType": "string",
          "name": "_metadata",
          "type": "string"
        }
      ],
      "name": "addExpert",
      "outputs": [],
      "stateMutability": "nonpayable",
      "type": "function"
    },
    {
      "inputs": [
        {
          "internalType": "address",
          "name": "_rentNft",
          "type": "address"
        },
        {
          "internalType": "uint256",
          "name": "_nftId",
          "type": "uint256"
        }
      ],
      "name": "claimDeposit",
      "outputs": [],
      "stateMutability": "nonpayable",
      "type": "function"
    },
    {
      "inputs": [
        {
          "internalType": "address",
          "name": "",
          "type": "address"
        }
      ],
      "name": "expertData",
      "outputs": [
        {
          "internalType": "string",
          "name": "",
          "type": "string"
        }
      ],
      "stateMutability": "view",
      "type": "function"
    },
    {
      "inputs": [],
      "name": "expertFee",
      "outputs": [
        {
          "internalType": "uint256",
          "name": "",
          "type": "uint256"
        }
      ],
      "stateMutability": "view",
      "type": "function"
    },
    {
      "inputs": [],
      "name": "expertStake",
      "outputs": [
        {
          "internalType": "uint256",
          "name": "",
          "type": "uint256"
        }
      ],
      "stateMutability": "view",
      "type": "function"
    },
    {
      "inputs": [],
      "name": "feeFraction",
      "outputs": [
        {
          "internalType": "uint256",
          "name": "",
          "type": "uint256"
        }
      ],
      "stateMutability": "view",
      "type": "function"
    },
    {
      "inputs": [],
      "name": "liquidation",
      "outputs": [
        {
          "internalType": "uint256",
          "name": "",
          "type": "uint256"
        }
      ],
      "stateMutability": "view",
      "type": "function"
    },
    {
      "inputs": [],
      "name": "liquidationThreshold",
      "outputs": [
        {
          "internalType": "uint256",
          "name": "",
          "type": "uint256"
        }
      ],
      "stateMutability": "view",
      "type": "function"
    },
    {
      "inputs": [],
      "name": "owner",
      "outputs": [
        {
          "internalType": "address",
          "name": "",
          "type": "address"
        }
      ],
      "stateMutability": "view",
      "type": "function"
    },
    {
      "inputs": [
        {
          "internalType": "address",
          "name": "_rentNft",
          "type": "address"
        },
        {
          "internalType": "uint256",
          "name": "_nftId",
          "type": "uint256"
        },
        {
          "internalType": "uint256",
          "name": "_dailyRentPrice",
          "type": "uint256"
        },
        {
          "internalType": "uint256",
          "name": "_collateralAmount",
          "type": "uint256"
        },
        {
          "internalType": "uint256",
          "name": "_repayInterval",
          "type": "uint256"
        },
        {
          "internalType": "bool",
          "name": "_toescrow",
          "type": "bool"
        },
        {
          "internalType": "bool",
          "name": "_towallet",
          "type": "bool"
        }
      ],
      "name": "provideQuote",
      "outputs": [],
      "stateMutability": "nonpayable",
      "type": "function"
    },
    {
      "inputs": [
        {
          "internalType": "address",
          "name": "",
          "type": "address"
        },
        {
          "internalType": "uint256",
          "name": "",
          "type": "uint256"
        }
      ],
      "name": "quoteVarsInfo",
      "outputs": [
        {
          "internalType": "address",
          "name": "NFTRent",
          "type": "address"
        },
        {
          "internalType": "uint256",
          "name": "NFTId",
          "type": "uint256"
        },
        {
          "internalType": "address",
          "name": "NFTOwner",
          "type": "address"
        },
        {
          "internalType": "uint256",
          "name": "maxRentalDuration",
          "type": "uint256"
        },
        {
          "internalType": "uint256",
          "name": "dailyRentalPrice",
          "type": "uint256"
        },
        {
          "internalType": "uint256",
          "name": "repayInterval",
          "type": "uint256"
        },
        {
          "internalType": "address",
          "name": "collateralAsset",
          "type": "address"
        },
        {
          "internalType": "uint256",
          "name": "collateralAmount",
          "type": "uint256"
        },
        {
          "internalType": "address",
          "name": "expert",
          "type": "address"
        },
        {
          "internalType": "bool",
          "name": "verified",
          "type": "bool"
        },
        {
          "internalType": "enum NFTRentStorage.QuoteStatus",
          "name": "quoteStatus",
          "type": "uint8"
        },
        {
          "internalType": "bool",
          "name": "Toescrow",
          "type": "bool"
        },
        {
          "internalType": "bool",
          "name": "Towallet",
          "type": "bool"
        }
      ],
      "stateMutability": "view",
      "type": "function"
    },
    {
      "inputs": [
        {
          "internalType": "address",
          "name": "",
          "type": "address"
        },
        {
          "internalType": "uint256",
          "name": "",
          "type": "uint256"
        }
      ],
      "name": "quotes",
      "outputs": [
        {
          "internalType": "bool",
          "name": "",
          "type": "bool"
        }
      ],
      "stateMutability": "view",
      "type": "function"
    },
    {
      "inputs": [
        {
          "internalType": "address",
          "name": "_verifier",
          "type": "address"
        }
      ],
      "name": "removeExpert",
      "outputs": [],
      "stateMutability": "nonpayable",
      "type": "function"
    },
    {
      "inputs": [],
      "name": "renounceOwnership",
      "outputs": [],
      "stateMutability": "nonpayable",
      "type": "function"
    },
    {
      "inputs": [
        {
          "internalType": "address",
          "name": "_rentNft",
          "type": "address"
        },
        {
          "internalType": "uint256",
          "name": "_nftId",
          "type": "uint256"
        },
        {
          "internalType": "uint256",
          "name": "_amount",
          "type": "uint256"
        }
      ],
      "name": "repayInterest",
      "outputs": [],
      "stateMutability": "payable",
      "type": "function"
    },
    {
      "inputs": [
        {
          "internalType": "address",
          "name": "_rentNft",
          "type": "address"
        },
        {
          "internalType": "uint256",
          "name": "_nftId",
          "type": "uint256"
        },
        {
          "internalType": "uint256",
          "name": "_rentDuration",
          "type": "uint256"
        },
        {
          "internalType": "address",
          "name": "_collateralAsset",
          "type": "address"
        }
      ],
      "name": "requestQuote",
      "outputs": [],
      "stateMutability": "nonpayable",
      "type": "function"
    },
    {
      "inputs": [],
      "name": "stakeFraction",
      "outputs": [
        {
          "internalType": "uint256",
          "name": "",
          "type": "uint256"
        }
      ],
      "stateMutability": "view",
      "type": "function"
    },
    {
      "inputs": [
        {
          "internalType": "address",
          "name": "_rentNft",
          "type": "address"
        },
        {
          "internalType": "uint256",
          "name": "_nftId",
          "type": "uint256"
        }
      ],
      "name": "stopLending",
      "outputs": [],
      "stateMutability": "nonpayable",
      "type": "function"
    },
    {
      "inputs": [
        {
          "internalType": "address",
          "name": "newOwner",
          "type": "address"
        }
      ],
      "name": "transferOwnership",
      "outputs": [],
      "stateMutability": "nonpayable",
      "type": "function"
    },
    {
      "inputs": [],
      "name": "verification",
      "outputs": [
        {
          "internalType": "contract IVerification",
          "name": "",
          "type": "address"
        }
      ],
      "stateMutability": "view",
      "type": "function"
    },
    {
      "inputs": [
        {
          "internalType": "address",
          "name": "_borrower",
          "type": "address"
        }
      ],
      "name": "verifyBorrower",
      "outputs": [],
      "stateMutability": "nonpayable",
      "type": "function"
    },
    {
      "inputs": [],
      "name": "yearInSeconds",
      "outputs": [
        {
          "internalType": "uint256",
          "name": "",
          "type": "uint256"
        }
      ],
      "stateMutability": "view",
      "type": "function"
    }
  ],
  "transactionHash": "0x2bc6dd96841ccf2a04e166204fb07298a986bd3e8ba1f5e0cb82fc0e4312f8fc",
  "args": [],
  "solcInputHash": "a765f9f8956b4f2285b9b49e4752fd8b",
  "bytecode": "0x6080604052600a606655603260675560146068556200003b6b204fce5e3e25026110000000606654620000a960201b620035841790919060201c565b606955620000666b204fce5e3e25026110000000606754620000a960201b620035841790919060201c565b606a55620000926c0c9f2c9cd04674edea40000000606854620000a960201b620035841790919060201c565b606b55348015620000a257600080fd5b5062000110565b600082620000ba575060006200010a565b82820282848281620000c857fe5b0414620001075760405162461bcd60e51b8152600401808060200182810382526021815260200180620043fb6021913960400191505060405180910390fd5b90505b92915050565b6142db80620001206000396000f3fe60806040526004361061020f5760003560e01c80637957836e11610118578063c2297c27116100a0578063e99fb9ac1161006f578063e99fb9ac14610968578063eeb6f233146109ca578063f27c292e14610a72578063f2dfbf6614610ab7578063f2fde38b14610acc5761020f565b8063c2297c2714610814578063cd1351d51461086f578063cf338821146108a2578063d802a6fd1461092f5761020f565b8063a1bfe1ba116100e7578063a1bfe1ba1461063f578063a28b800e14610678578063a418cac6146106b1578063a8f05101146106fe578063b2db2f51146107135761020f565b80637957836e146105355780638440f1c51461056857806389a01265146105945780638da5cb5b1461062a5761020f565b80634059d5961161019b5780635bf8eddd1161016a5780635bf8eddd146104845780635cfd95a014610499578063676d405e146104d25780636d30cccb1461050b578063715018a6146105205761020f565b80634059d596146103e05780634ffe2a8b146103f557806357a7e13d146104265780635af41713146104525761020f565b80632b64f838116101e25780632b64f8381461030a5780632c26bac71461031f5780632f59a5ce146103665780633a19deb0146103995780634031234c146103cb5761020f565b80630d7b4b3d146102145780631299c2a71461024f578063157fac8f146102aa5780632893c27e146102e3575b600080fd5b34801561022057600080fd5b5061024d6004803603604081101561023757600080fd5b506001600160a01b038135169060200135610aff565b005b34801561025b57600080fd5b5061024d600480360360e081101561027257600080fd5b506001600160a01b038135169060208101359060408101359060608101359060808101359060a081013515159060c001351515610b55565b3480156102b657600080fd5b5061024d600480360360408110156102cd57600080fd5b506001600160a01b038135169060200135610e21565b3480156102ef57600080fd5b506102f861101f565b60408051918252519081900360200190f35b34801561031657600080fd5b506102f8611025565b34801561032b57600080fd5b5061024d6004803603608081101561034257600080fd5b506001600160a01b038135811691602081013591604082013591606001351661102b565b34801561037257600080fd5b5061024d6004803603602081101561038957600080fd5b50356001600160a01b0316611456565b61024d600480360360608110156103af57600080fd5b506001600160a01b03813516906020810135906040013561151d565b3480156103d757600080fd5b506102f86118db565b3480156103ec57600080fd5b506102f86118e1565b34801561040157600080fd5b5061040a6118e9565b604080516001600160a01b039092168252519081900360200190f35b61024d6004803603604081101561043c57600080fd5b506001600160a01b0381351690602001356118f8565b61024d6004803603606081101561046857600080fd5b506001600160a01b038135169060208101359060400135611c56565b34801561049057600080fd5b506102f8611e87565b3480156104a557600080fd5b5061024d600480360360408110156104bc57600080fd5b506001600160a01b038135169060200135611e8d565b3480156104de57600080fd5b506102f8600480360360408110156104f557600080fd5b506001600160a01b038135169060200135611fdd565b34801561051757600080fd5b506102f8611ffa565b34801561052c57600080fd5b5061024d612000565b34801561054157600080fd5b5061024d6004803603602081101561055857600080fd5b50356001600160a01b03166120be565b61024d6004803603604081101561057e57600080fd5b506001600160a01b0381351690602001356121e6565b3480156105a057600080fd5b506105be600480360360208110156105b757600080fd5b5035612589565b6040805189151581526001600160a01b03808a1660208301528881169282019290925260608101879052858216608082015260a0810185905290831660c082015260e0810182600581111561060f57fe5b60ff1681526020019850505050505050505060405180910390f35b34801561063657600080fd5b5061040a6125e4565b34801561064b57600080fd5b5061024d6004803603604081101561066257600080fd5b506001600160a01b0381351690602001356125f4565b34801561068457600080fd5b5061024d6004803603604081101561069b57600080fd5b506001600160a01b0381351690602001356128c7565b3480156106bd57600080fd5b506106ea600480360360408110156106d457600080fd5b506001600160a01b038135169060200135612ab6565b604080519115158252519081900360200190f35b34801561070a57600080fd5b506102f8612ad6565b34801561071f57600080fd5b5061074c6004803603604081101561073657600080fd5b506001600160a01b038135169060200135612adc565b604051808e6001600160a01b03166001600160a01b031681526020018d81526020018c6001600160a01b03166001600160a01b031681526020018b81526020018a8152602001898152602001886001600160a01b03166001600160a01b03168152602001878152602001866001600160a01b03166001600160a01b03168152602001851515151581526020018460038111156107e457fe5b60ff168152921515602084015250151560408083019190915251908190036060019b509950505050505050505050f35b34801561082057600080fd5b5061024d600480360360e081101561083757600080fd5b506001600160a01b03813581169160208101359160408201359160608101359091169060808101359060a08101359060c00135612b6b565b34801561087b57600080fd5b506106ea6004803603602081101561089257600080fd5b50356001600160a01b0316612f04565b3480156108ae57600080fd5b5061024d600480360360408110156108c557600080fd5b6001600160a01b0382351691908101906040810160208201356401000000008111156108f057600080fd5b82018360208201111561090257600080fd5b8035906020019184600183028401116401000000008311171561092457600080fd5b509092509050612f19565b34801561093b57600080fd5b5061024d6004803603604081101561095257600080fd5b506001600160a01b038135169060200135613024565b34801561097457600080fd5b506109926004803603602081101561098b57600080fd5b503561319e565b604080519788526020880196909652868601949094526060860192909252608085015260a084015260c0830152519081900360e00190f35b3480156109d657600080fd5b506109fd600480360360208110156109ed57600080fd5b50356001600160a01b03166131db565b6040805160208082528351818301528351919283929083019185019080838360005b83811015610a37578181015183820152602001610a1f565b50505050905090810190601f168015610a645780820380516001836020036101000a031916815260200191505b509250505060405180910390f35b348015610a7e57600080fd5b5061024d60048036036080811015610a9557600080fd5b506001600160a01b038135169060208101359060408101359060600135613276565b348015610ac357600080fd5b506102f8613469565b348015610ad857600080fd5b5061024d60048036036020811015610aef57600080fd5b50356001600160a01b031661346f565b6001600160a01b03821660009081526072602090815260408220918390525260405162461bcd60e51b8152600401808060200182810382526025815260200180613fd96025913960400191505060405180910390fd5b3360008181526070602052604090205460026000196101006001841615020190911604610bb35760405162461bcd60e51b81526004018080602001828103825260298152602001806140986029913960400191505060405180910390fd5b6001600160a01b038816610c04576040805162461bcd60e51b8152602060048201526013602482015272496e76616c6964204e4654206164647265737360681b604482015290519081900360640190fd5b6001600160a01b03881660009081526071602090815260408083208a845290915290205460ff16610c7c576040805162461bcd60e51b815260206004820152601860248201527f5468652071756f746520646f6573206e6f742065786973740000000000000000604482015290519081900360640190fd5b60006001600160a01b0389166000908152606e602090815260408083208b8452909152902060080154600160a81b900460ff166003811115610cba57fe5b14610d05576040805162461bcd60e51b81526020600482015260166024820152755468652071756f74652076616c75652065786973747360501b604482015290519081900360640190fd5b8115158315151415610d485760405162461bcd60e51b81526004018080602001828103825260328152602001806141926032913960400191505060405180910390fd5b6001600160a01b0388166000818152606e602090815260408083208b8452825291829020600881018054600483018c9055600783018b90556005909201899055600160a01b336001600160a01b03199093169290921760ff60a01b19169190911760ff60b01b1916600160b01b881515021760ff60b81b1916600160b81b87151502179055815192835282018990528181018890526060820186905260808201879052517f2642d20c95a5efb3314ca259516737c56f1035334e28cc3e27a75112083f24fe9160a0908290030190a15050505050505050565b3360008181526070602052604090205460026000196101006001841615020190911604610e7f5760405162461bcd60e51b81526004018080602001828103825260298152602001806140986029913960400191505060405180910390fd5b6001600160a01b0383166000908152607260209081526040808320858452825280832054808452606d9092529091205460ff16610f03576040805162461bcd60e51b815260206004820181905260248201527f546865204e46542072656e74206c696e6520646f6573206e6f74206578697374604482015290519081900360640190fd5b60046000828152606d60205260409020600590810154600160a01b900460ff1690811115610f2d57fe5b14610f74576040805162461bcd60e51b815260206004820152601260248201527114995b9d081b9bdd0818d85b98d95b1b195960721b604482015290519081900360640190fd5b606a546001600160a01b0385166000908152606e602090815260408083208784529091528120600701549091610fcf916c0c9f2c9cd04674edea4000000091610fc3919063ffffffff61358416565b9063ffffffff6135e616565b6001600160a01b0386166000908152606e60209081526040808320888452909152902060080154909150600160a01b900460ff161515600114156110185761101885858361364d565b5050505050565b60675481565b606a5481565b6001600160a01b03841661107c576040805162461bcd60e51b8152602060048201526013602482015272496e76616c6964204e4654206164647265737360681b604482015290519081900360640190fd5b6001600160a01b038416600090815260716020908152604080832086845290915290205460ff16156110f0576040805162461bcd60e51b81526020600482015260186024820152775468652071756f746520616c72656164792065786973747360401b604482015290519081900360640190fd5b6000846001600160a01b0316636352211e856040518263ffffffff1660e01b81526004018082815260200191505060206040518083038186803b15801561113657600080fd5b505afa15801561114a573d6000803e3d6000fd5b505050506040513d602081101561116057600080fd5b50519050336001600160a01b038216146111c1576040805162461bcd60e51b815260206004820152601c60248201527f4c656e646572206e6f742074686520636f7272656374206f776e657200000000604482015290519081900360640190fd5b6001600160a01b038581166000818152606e60209081526040808320898452825280832080546001600160a01b03199081168617825560018083018c9055600283018054831633179055600383018b9055600683018054988b169890921697909717905560080180546001600160b01b031916905583835260718252808320898452909152808220805460ff191690941790935582516306fdde0360e01b815292517f907d68ef74e5ecd6be58baff9d21fa31f9a3fa3d441f5c8ce4f25f7c3ae87629936306fdde03926004808301939192829003018186803b1580156112a757600080fd5b505afa1580156112bb573d6000803e3d6000fd5b505050506040513d6000823e601f3d908101601f1916820160405260208110156112e457600080fd5b810190808051604051939291908464010000000082111561130457600080fd5b90830190602082018581111561131957600080fd5b825164010000000081118282018810171561133357600080fd5b82525081516020918201929091019080838360005b83811015611360578181015183820152602001611348565b50505050905090810190601f16801561138d5780820380516001836020036101000a031916815260200191505b50604052505050868685876040518080602001866001600160a01b03166001600160a01b03168152602001858152602001846001600160a01b03166001600160a01b03168152602001838152602001828103825287818151815260200191508051906020019080838360005b838110156114115781810151838201526020016113f9565b50505050905090810190601f16801561143e5780820380516001836020036101000a031916815260200191505b50965050505050505060405180910390a15050505050565b6001600160a01b038116600090815260706020526040902054600260001961010060018416150201909116046114bd5760405162461bcd60e51b815260040180806020018281038252602381526020018061404a6023913960400191505060405180910390fd5b6001600160a01b03811660009081526070602052604081206114de91613ef9565b604080516001600160a01b038316815290517f44a3cd4eb5cc5748f6169df057b1cb2ae4c383e87cd94663c430e095d4cba4249181900360200190a150565b6001600160a01b038084166000908152607260209081526040808320868452825280832054808452606d9092529091206001015490911633146115915760405162461bcd60e51b81526004018080602001828103825260258152602001806142106025913960400191505060405180910390fd5b6001600160a01b0384166000908152607260209081526040808320868452825280832054808452606d9092529091205460ff166115ff5760405162461bcd60e51b81526004018080602001828103825260218152602001806142356021913960400191505060405180910390fd5b6000818152606c602052604090206003015460011115611666576040805162461bcd60e51b815260206004820152601760248201527f416c6c2072657061796d656e74732061726520646f6e65000000000000000000604482015290519081900360640190fd5b60026000828152606d60205260409020600590810154600160a01b900460ff169081111561169057fe5b146116e2576040805162461bcd60e51b815260206004820152601960248201527f52656e74696e6720686173206e6f7420626567756e2079657400000000000000604482015290519081900360640190fd5b60006116ee8686613696565b905083811461173a576040805162461bcd60e51b8152602060048201526013602482015272125b9cdd59999a58da595b9d08185b5bdd5b9d606a1b604482015290519081900360640190fd5b6000828152606c602052604090206006810154600290910154429190611766828263ffffffff6136d216565b8311611819576000858152606c6020526040902060030154600114156117a05761179189898961372c565b61179b898961382a565b6117ab565b6117ab89898961372c565b6000858152606c602090815260409182902060038101805460001901908190554260069092019190915582516001600160a01b038d1681529182015281517f0516911bcc3a0a7412a44601057c0a0a1ec628bde049a84284bc428866534488929181900390910190a16118d0565b60056000868152606d60205260409020600590810154600160a01b900460ff169081111561184357fe5b50507f7409cb79815e2fcde95fb7b9a71f41844973d56c2677fa71c263f76d01576fa08986606d600089815260200190815260200160002060050160149054906101000a900460ff1660405180846001600160a01b03166001600160a01b031681526020018381526020018260058111156118ba57fe5b60ff168152602001935050505060405180910390a15b505050505050505050565b606b5481565b6301e1338081565b606f546001600160a01b031681565b60006001600160a01b0383166000908152606e60209081526040808320858452909152902060080154600160a81b900460ff16600381111561193657fe5b14156119735760405162461bcd60e51b81526004018080602001828103825260238152602001806141286023913960400191505060405180910390fd5b6001600160a01b038281166000908152606e60209081526040808320858452909152902060020154163314156119da5760405162461bcd60e51b81526004018080602001828103825260268152602001806142806026913960400191505060405180910390fd5b606580546001908101918290556040805160208082019490945281518082038501815290820182528051908401206001600160a01b038681166000818152607287528481208882528752848120849055838152606d8752848120805460ff191687178082556005808301805460ff60a01b198116825599840180546001600160a01b03199081163317909155868652606e8c528986208d8752909b5297909320600280820154871661010002610100600160a81b03199093169290921783556004818101549284019290925560038084018054909b169095179099550188905560068701546001600160a81b0319909616959092169490941790925591830154920154909190611aea82826135e6565b6000848152606c602052604090209081556002810182905562015180600190910155611b1c828263ffffffff6135e616565b6000848152606c6020908152604080832060038101949094556001600160a01b0389168352606e8252808320888452909152902060048082015492019190915560070154348114611b9e5760405162461bcd60e51b815260040180806020018281038252602b81526020018061406d602b913960400191505060405180910390fd5b611ba9868683613a5d565b6000848152606c60209081526040808320426005808301829055600690920155606d8352928190208301805460ff60a01b1916600160a01b9081179182905582516001600160a01b038c1681529384018990527f9823ce50a18b6698b5b9973ad2b174e7765623a6749fe7dd871be8cca4c8c5ce948b948a949290930460ff1692918201908390811115611c3957fe5b60ff168152602001935050505060405180910390a1505050505050565b3360008181526070602052604090205460026000196101006001841615020190911604611cb45760405162461bcd60e51b81526004018080602001828103825260298152602001806140986029913960400191505060405180910390fd5b6001600160a01b0384166000908152607260209081526040808320868452825280832054808452606d9092529091205460ff16611d38576040805162461bcd60e51b815260206004820181905260248201527f546865204e46542072656e74206c696e6520646f6573206e6f74206578697374604482015290519081900360640190fd5b60016000828152606d60205260409020600590810154600160a01b900460ff1690811115611d6257fe5b14611da9576040805162461bcd60e51b815260206004820152601260248201527114995b9d081b9bdd081c995c5d595cdd195960721b604482015290519081900360640190fd5b606a546001600160a01b0386166000908152606e602090815260408083208884529091528120600701549091611df8916c0c9f2c9cd04674edea4000000091610fc3919063ffffffff61358416565b6001600160a01b0387166000908152606e60209081526040808320898452909152902060080154909150600160a01b900460ff16151560011415611e7f57838114611e745760405162461bcd60e51b81526004018080602001828103825260228152602001806141ee6022913960400191505060405180910390fd5b611e7f868686613a5d565b505050505050565b60665481565b3360008181526070602052604090205460026000196101006001841615020190911604611eeb5760405162461bcd60e51b81526004018080602001828103825260298152602001806140986029913960400191505060405180910390fd5b6001600160a01b0383166000908152607260209081526040808320858452825280832054808452606d9092529091205460ff16611f6f576040805162461bcd60e51b815260206004820181905260248201527f546865204e46542072656e74206c696e6520646f6573206e6f74206578697374604482015290519081900360640190fd5b60036000828152606d60205260409020600590810154600160a01b900460ff1690811115611f9957fe5b14610f74576040805162461bcd60e51b815260206004820152600f60248201526e14995b9d081b9bdd0818db1bdcd959608a1b604482015290519081900360640190fd5b607260209081526000928352604080842090915290825290205481565b60655481565b612008613b15565b6001600160a01b03166120196125e4565b6001600160a01b031614612074576040805162461bcd60e51b815260206004820181905260248201527f4f776e61626c653a2063616c6c6572206973206e6f7420746865206f776e6572604482015290519081900360640190fd5b6033546040516000916001600160a01b0316907f8be0079c531659141344cd1fd0a4f28419497f9722a3daafe3b4186f6b6457e0908390a3603380546001600160a01b0319169055565b336000818152607060205260409020546002600019610100600184161502019091160461211c5760405162461bcd60e51b81526004018080602001828103825260298152602001806140986029913960400191505060405180910390fd5b6001600160a01b03821660009081526073602052604090205460ff161561218a576040805162461bcd60e51b815260206004820181905260248201527f54686520626f72726f77657220697320616c7265616479207665726966696564604482015290519081900360640190fd5b6001600160a01b038216600081815260736020908152604091829020805460ff19166001179055815192835290517f01172049b4a794575e07ae9f81e9d6631faf9838434887247323de8c2df804f49281900390910190a15050565b6001600160a01b038083166000908152607260209081526040808320858452825280832054808452606d90925290912054909161010090910416331461225d5760405162461bcd60e51b815260040180806020018281038252602381526020018061416f6023913960400191505060405180910390fd5b6001600160a01b0383166000908152607260209081526040808320858452825280832054808452606d9092529091205460ff166122cb5760405162461bcd60e51b81526004018080602001828103825260218152602001806142356021913960400191505060405180910390fd5b60016000828152606d60205260409020600590810154600160a01b900460ff16908111156122f557fe5b146123315760405162461bcd60e51b81526004018080602001828103825260248152602001806141046024913960400191505060405180910390fd5b6000818152606c60205260409020600581015460019091015442919061235d828263ffffffff6136d216565b83116124ea576001600160a01b0387166000908152606e60209081526040808320898452909152902060080154600160b81b900460ff16151560011415612440576000848152606d602090815260408083206001908101546001600160a01b038c8116808752606e86528487208d8852909552838620909201548351632142170760e11b8152336004820152929091166024830181905260448301829052925192949093926342842e0e92606480820193929182900301818387803b15801561242557600080fd5b505af1158015612439573d6000803e3d6000fd5b5050505050505b6000848152606d602081815260408084206005908101805460ff60a01b1916600160a11b178155606c84529482902042600690910155928252925483516001600160a01b038c1681529182018890527fcf4767466573ec9226de1c83e0c44ef78996c5f4876aee8e4cc4bb49bc2019f4938b938993600160a01b90930460ff16929182019083908111156124d057fe5b60ff168152602001935050505060405180910390a1612580565b6000848152606d60209081526040918290206005908101805460ff60a01b1916600160a21b179081905583516001600160a01b038c1681529283018890527f127334b334dba48bbab255244c480e89b00a22dca4ad126dd1916487de1b22ff938b938993600160a01b90930460ff16929091820190839081111561256a57fe5b60ff168152602001935050505060405180910390a15b50505050505050565b606d6020526000908152604090208054600182015460028301546003840154600485015460059095015460ff808616966001600160a01b036101009097048716969586169593841693909290811691600160a01b9091041688565b6033546001600160a01b03165b90565b6001600160a01b038083166000908152607260209081526040808320858452825280832054808452606d90925290912054909161010090910416331461266b5760405162461bcd60e51b815260040180806020018281038252602381526020018061416f6023913960400191505060405180910390fd5b6001600160a01b0383166000908152607260209081526040808320858452825280832054808452606d9092529091205460ff166126d95760405162461bcd60e51b81526004018080602001828103825260218152602001806142356021913960400191505060405180910390fd5b60056000828152606d60205260409020600590810154600160a01b900460ff169081111561270357fe5b14612755576040805162461bcd60e51b815260206004820152601e60248201527f5468652072656e74206973206e6f742064656661756c746564207965742e0000604482015290519081900360640190fd5b6000818152606d6020908152604080832060050154606c9092528220600381015490546001600160a01b0390921692909190612797828463ffffffff613b1916565b905060006127a58989613696565b905060006127b9828463ffffffff61358416565b6001600160a01b038b166000908152606e602090815260408083208d8452909152812060070154919250906127f4908363ffffffff6136d216565b6001600160a01b038c166000908152606e602090815260408083208e8452909152902060080154909150600160a01b900460ff1615156001141561289f57600061286a8561285e6c0c9f2c9cd04674edea40000000610fc36069548961358490919063ffffffff16565b9063ffffffff61358416565b905060006128788d8d613b76565b905061289a8261288e858463ffffffff6136d216565b9063ffffffff613b1916565b925050505b6128ba6001600160a01b03881630338463ffffffff613bc616565b5050505050505050505050565b6001600160a01b038216600090815260716020908152604080832084845290915290205460ff1661293b576040805162461bcd60e51b81526020600482015260196024820152785468652071756f746520646f6573206e6f742065786973747360381b604482015290519081900360640190fd5b6001600160a01b038281166000908152606e602090815260408083208584529091529020600201541633146129b7576040805162461bcd60e51b815260206004820152601c60248201527f4f6e6c79206c656e6465722063616e206163636570742071756f746500000000604482015290519081900360640190fd5b6001600160a01b038281166000908152606e6020908152604080832085845290915290206008015416612a31576040805162461bcd60e51b815260206004820152601e60248201527f45787065727420686173206e6f7420676976656e207468652071756f74650000604482015290519081900360640190fd5b6001600160a01b0382166000818152606e60209081526040808320858452825291829020600881018054600160a01b60ff60a81b19909116600160a81b1760ff60a01b19161790556004015482519384529083015280517fb791d9e8e11147d21baa1cd78c4adb0806ea5839b3e26a4305fa50045d3ec96d9281900390910190a15050565b607160209081526000928352604080842090915290825290205460ff1681565b60695481565b606e6020908152600092835260408084209091529082529020805460018201546002830154600384015460048501546005860154600687015460078801546008909801546001600160a01b0397881698969795861696949593949293918216929181169060ff600160a01b8204811691600160a81b8104821691600160b01b8204811691600160b81b9004168d565b6001600160a01b038716612bbc576040805162461bcd60e51b8152602060048201526013602482015272496e76616c6964204e4654206164647265737360681b604482015290519081900360640190fd5b6001600160a01b038716600090815260716020908152604080832089845290915290205460ff1615612c30576040805162461bcd60e51b81526020600482015260186024820152775468652071756f746520616c72656164792065786973747360401b604482015290519081900360640190fd5b6001600160a01b038781166000818152606e602090815260408083208b8452825280832080546001600160a01b03199081168617825560018083018e905560028301805433908416179055600383018d905560048084018c9055600584018b9055600684018054909316988d169890981790915560078201889055600890910180546001600160b01b031916600360a81b1761ffff60b01b1916600160b81b179055848452607183528184208c8552909252808320805460ff191690921790915580516306fdde0360e01b815290517f9dfe99d0d260e0d5c8d17db277bfd33d975b2c347e6eceb328e99d5b8eb970fd946306fdde03938382019390929190829003018186803b158015612d4357600080fd5b505afa158015612d57573d6000803e3d6000fd5b505050506040513d6000823e601f3d908101601f191682016040526020811015612d8057600080fd5b8101908080516040519392919084640100000000821115612da057600080fd5b908301906020820185811115612db557600080fd5b8251640100000000811182820188101715612dcf57600080fd5b82525081516020918201929091019080838360005b83811015612dfc578181015183820152602001612de4565b50505050905090810190601f168015612e295780820380516001836020036101000a031916815260200191505b506040525050508888878988876040518080602001886001600160a01b03166001600160a01b03168152602001878152602001866001600160a01b03166001600160a01b03168152602001858152602001848152602001838152602001828103825289818151815260200191508051906020019080838360005b83811015612ebb578181015183820152602001612ea3565b50505050905090810190601f168015612ee85780820380516001836020036101000a031916815260200191505b509850505050505050505060405180910390a150505050505050565b60736020526000908152604090205460ff1681565b6001600160a01b0383166000908152607060205260409020546002600019610100600184161502019091160415612f815760405162461bcd60e51b81526004018080602001828103825260228152602001806140c16022913960400191505060405180910390fd5b6001600160a01b0383166000908152607060205260409020612fa4908383613f40565b507f30b5eb94a54f18a967aed7e72caf39194d0f0ba44ed3fed9febc2f355556115883838360405180846001600160a01b03166001600160a01b03168152602001806020018281038252848482818152602001925080828437600083820152604051601f909101601f1916909201829003965090945050505050a1505050565b6001600160a01b038083166000908152607260209081526040808320858452825280832054808452606d9092529091206001015490911633146130985760405162461bcd60e51b81526004018080602001828103825260258152602001806142106025913960400191505060405180910390fd5b6001600160a01b0383166000908152607260209081526040808320858452825280832054808452606d9092529091205460ff166131065760405162461bcd60e51b81526004018080602001828103825260218152602001806142356021913960400191505060405180910390fd5b60046000828152606d60205260409020600590810154600160a01b900460ff169081111561313057fe5b1461316c5760405162461bcd60e51b815260040180806020018281038252602481526020018061414b6024913960400191505060405180910390fd5b6001600160a01b0384166000908152606e6020908152604080832086845290915290206007015461101885858361364d565b606c602052600090815260409020805460018201546002830154600384015460048501546005860154600690960154949593949293919290919087565b60706020908152600091825260409182902080548351601f60026000196101006001861615020190931692909204918201849004840281018401909452808452909183018282801561326e5780601f106132435761010080835404028352916020019161326e565b820191906000526020600020905b81548152906001019060200180831161325157829003601f168201915b505050505081565b6001600160a01b038416600090815260716020908152604080832086845290915290205460ff166132ea576040805162461bcd60e51b81526020600482015260196024820152785468652071756f746520646f6573206e6f742065786973747360381b604482015290519081900360640190fd5b6001600160a01b038481166000908152606e60209081526040808320878452909152902060020154163314613366576040805162461bcd60e51b815260206004820152601c60248201527f4f6e6c79206c656e6465722063616e206163636570742071756f746500000000604482015290519081900360640190fd5b6001600160a01b038481166000908152606e60209081526040808320878452909152902060080154166133e0576040805162461bcd60e51b815260206004820152601e60248201527f45787065727420686173206e6f7420676976656e207468652071756f74650000604482015290519081900360640190fd5b6001600160a01b0384166000818152606e602090815260408083208784528252918290206004810186905560078101859055600801805460ff60a81b1916600160a91b1760ff60a01b191690558151928352820184905280517f72453b8947a73e283f4cd3b93848a9166c14805b4b2ccde25a44393a21a6fbd79281900390910190a150505050565b60685481565b613477613b15565b6001600160a01b03166134886125e4565b6001600160a01b0316146134e3576040805162461bcd60e51b815260206004820181905260248201527f4f776e61626c653a2063616c6c6572206973206e6f7420746865206f776e6572604482015290519081900360640190fd5b6001600160a01b0381166135285760405162461bcd60e51b8152600401808060200182810382526026815260200180613ffe6026913960400191505060405180910390fd5b6033546040516001600160a01b038084169216907f8be0079c531659141344cd1fd0a4f28419497f9722a3daafe3b4186f6b6457e090600090a3603380546001600160a01b0319166001600160a01b0392909216919091179055565b600082613593575060006135e0565b828202828482816135a057fe5b04146135dd5760405162461bcd60e51b81526004018080602001828103825260218152602001806140e36021913960400191505060405180910390fd5b90505b92915050565b600080821161363c576040805162461bcd60e51b815260206004820152601a60248201527f536166654d6174683a206469766973696f6e206279207a65726f000000000000604482015290519081900360640190fd5b81838161364557fe5b049392505050565b6001600160a01b038084166000908152607260209081526040808320868452825280832054808452606d909252909120600501549091166110188130338663ffffffff613bc616565b6001600160a01b039091166000908152607260209081526040808320938352928152828220548252606c90522060048101546002909101540290565b6000828201838110156135dd576040805162461bcd60e51b815260206004820152601b60248201527f536166654d6174683a206164646974696f6e206f766572666c6f770000000000604482015290519081900360640190fd5b6001600160a01b038381166000818152607260209081526040808320878452825280832054808452606d835281842060050154948452606e8352818420888552909252909120600801549092918216918116906001600160a01b90910460ff161515141561380f5760006137bc6c0c9f2c9cd04674edea40000000610fc36069548861358490919063ffffffff16565b905060006137d0868363ffffffff613b1916565b90506137ed6001600160a01b03851633308463ffffffff613bc616565b6138086001600160a01b03851633858563ffffffff613bc616565b5050611e7f565b611e7f6001600160a01b03831633308763ffffffff613bc616565b6001600160a01b0382166000908152607260209081526040808320848452825280832054808452606d9092529091205460ff166138985760405162461bcd60e51b81526004018080602001828103825260218152602001806142356021913960400191505060405180910390fd5b6000818152606c6020526040902060030154156138e65760405162461bcd60e51b815260040180806020018281038252602a8152602001806141c4602a913960400191505060405180910390fd5b6001600160a01b0383166000908152606e60209081526040808320858452909152902060080154600160b81b900460ff161515600114156139c3576000818152606d60209081526040808320546001600160a01b03878116808652606e8552838620888752909452828520600101548351632142170760e11b81523360048201526101009093049091166024830181905260448301829052925192949093926342842e0e92606480820193929182900301818387803b1580156139a857600080fd5b505af11580156139bc573d6000803e3d6000fd5b5050505050505b6000818152606d60209081526040918290206005908101805460ff60a01b1916600360a01b179081905583516001600160a01b03881681529283018590527fdada2cadbe023a84ca3cbfc50edffdac70618798e68b3f8d84987084eb7f82f19387938693600160a01b90930460ff169290918201908390811115613a4357fe5b60ff168152602001935050505060405180910390a1505050565b6001600160a01b0383166000908152607260209081526040808320858452825280832054808452606d9092529091205460ff16613acb5760405162461bcd60e51b81526004018080602001828103825260218152602001806142356021913960400191505060405180910390fd5b6000818152606d60205260408082206005015490516001600160a01b0390911691339185156108fc0291869190818181858888f19350505050158015611e7f573d6000803e3d6000fd5b3390565b600082821115613b70576040805162461bcd60e51b815260206004820152601e60248201527f536166654d6174683a207375627472616374696f6e206f766572666c6f770000604482015290519081900360640190fd5b50900390565b606a546001600160a01b0383166000908152606e602090815260408083208584529091528120600701549091613bbf916c0c9f2c9cd04674edea4000000091610fc39190613584565b9392505050565b604080516001600160a01b0380861660248301528416604482015260648082018490528251808303909101815260849091019091526020810180516001600160e01b03166323b872dd60e01b179052613c20908590613c26565b50505050565b6060613c7b826040518060400160405280602081526020017f5361666545524332303a206c6f772d6c6576656c2063616c6c206661696c6564815250856001600160a01b0316613cdc9092919063ffffffff16565b805190915015613cd757808060200190516020811015613c9a57600080fd5b5051613cd75760405162461bcd60e51b815260040180806020018281038252602a815260200180614256602a913960400191505060405180910390fd5b505050565b6060613ceb8484600085613cf3565b949350505050565b606082471015613d345760405162461bcd60e51b81526004018080602001828103825260268152602001806140246026913960400191505060405180910390fd5b613d3d85613e4f565b613d8e576040805162461bcd60e51b815260206004820152601d60248201527f416464726573733a2063616c6c20746f206e6f6e2d636f6e7472616374000000604482015290519081900360640190fd5b60006060866001600160a01b031685876040518082805190602001908083835b60208310613dcd5780518252601f199092019160209182019101613dae565b6001836020036101000a03801982511681845116808217855250505050505090500191505060006040518083038185875af1925050503d8060008114613e2f576040519150601f19603f3d011682016040523d82523d6000602084013e613e34565b606091505b5091509150613e44828286613e55565b979650505050505050565b3b151590565b60608315613e64575081613bbf565b825115613e745782518084602001fd5b8160405162461bcd60e51b81526004018080602001828103825283818151815260200191508051906020019080838360005b83811015613ebe578181015183820152602001613ea6565b50505050905090810190601f168015613eeb5780820380516001836020036101000a031916815260200191505b509250505060405180910390fd5b50805460018160011615610100020316600290046000825580601f10613f1f5750613f3d565b601f016020900490600052602060002090810190613f3d9190613fbe565b50565b828054600181600116156101000203166002900490600052602060002090601f016020900481019282601f10613f815782800160ff19823516178555613fae565b82800160010185558215613fae579182015b82811115613fae578235825591602001919060010190613f93565b50613fba929150613fbe565b5090565b6125f191905b80821115613fba5760008155600101613fc456fe54686520726571756573746564204e465420696e2063757272656e746c792072656e7465644f776e61626c653a206e6577206f776e657220697320746865207a65726f2061646472657373416464726573733a20696e73756666696369656e742062616c616e636520666f722063616c6c4164644578706572743a20566572696669657220646f6573206e6f7420657869737473506c65617365206465706f73697420636f727265637420616d6f756e74206f6620636f6c6c61746572616c5468652045787065727420616c6f6e652063616e2061636365737320746869732066756e6374696f6e4164644578706572743a20566572696669657220616c726561647920657869737473536166654d6174683a206d756c7469706c69636174696f6e206f766572666c6f775468652052656e7420686173206e6f74206265656e20726571756573746564207965742e5468652071756f746520686173206e6f74206265656e207265636569766564207965745468652052656e7420686173206e6f74206265656e2063616e63656c6c6564207965742e4f6e6c79204e465452656e74206c696e65204c656e6465722063616e20616363657373426f746820657363726f7720616e642077616c6c65742063616e6e6f742062652073657420746f2073616d652076616c7565506c6561736520636f6d706c6574652072656d61696e696e672072657061796d656e747320666972737454686520616d6f756e742070726f7669646564206973206e6f7420636f72726563744f6e6c79204e465452656e74206c696e6520426f72726f7765722063616e20616363657373546865204e46542072656e74206973206e6f7420796574207265717565737465645361666545524332303a204552433230206f7065726174696f6e20646964206e6f7420737563636565644c656e64657220616e6420626f72726f7765722063616e6e6f74206265207468652073616d65a264697066735822122034aa7df73a93e20db30f4548592c2b08982d7027f749540ccec4d74f715cc71364736f6c63430006070033536166654d6174683a206d756c7469706c69636174696f6e206f766572666c6f77",
  "devdoc": {
    "methods": {
      "owner()": {
        "details": "Returns the address of the current owner."
      },
      "renounceOwnership()": {
        "details": "Leaves the contract without owner. It will not be possible to call `onlyOwner` functions anymore. Can only be called by the current owner.     * NOTE: Renouncing ownership will leave the contract without an owner, thereby removing any functionality that is only available to the owner."
      },
      "transferOwnership(address)": {
        "details": "Transfers ownership of the contract to a new account (`newOwner`). Can only be called by the current owner."
      }
    }
  },
  "userdoc": {
    "methods": {}
  },
  "storageLayout": {
    "storage": [
      {
        "astId": 136,
        "contract": "contracts/NFTRent.sol:NFTRent",
        "label": "_initialized",
        "offset": 0,
        "slot": "0",
        "type": "t_bool"
      },
      {
        "astId": 138,
        "contract": "contracts/NFTRent.sol:NFTRent",
        "label": "_initializing",
        "offset": 1,
        "slot": "0",
        "type": "t_bool"
      },
      {
        "astId": 482,
        "contract": "contracts/NFTRent.sol:NFTRent",
        "label": "__gap",
        "offset": 0,
        "slot": "1",
        "type": "t_array(t_uint256)50_storage"
      },
      {
        "astId": 10,
        "contract": "contracts/NFTRent.sol:NFTRent",
        "label": "_owner",
        "offset": 0,
        "slot": "51",
        "type": "t_address"
      },
      {
        "astId": 129,
        "contract": "contracts/NFTRent.sol:NFTRent",
        "label": "__gap",
        "offset": 0,
        "slot": "52",
        "type": "t_array(t_uint256)49_storage"
      },
      {
        "astId": 6427,
        "contract": "contracts/NFTRent.sol:NFTRent",
        "label": "NFTRentLineCounter",
        "offset": 0,
        "slot": "101",
        "type": "t_uint256"
      },
      {
        "astId": 6433,
        "contract": "contracts/NFTRent.sol:NFTRent",
        "label": "feeFraction",
        "offset": 0,
        "slot": "102",
        "type": "t_uint256"
      },
      {
        "astId": 6436,
        "contract": "contracts/NFTRent.sol:NFTRent",
        "label": "stakeFraction",
        "offset": 0,
        "slot": "103",
        "type": "t_uint256"
      },
      {
        "astId": 6439,
        "contract": "contracts/NFTRent.sol:NFTRent",
        "label": "liquidation",
        "offset": 0,
        "slot": "104",
        "type": "t_uint256"
      },
      {
        "astId": 6447,
        "contract": "contracts/NFTRent.sol:NFTRent",
        "label": "expertFee",
        "offset": 0,
        "slot": "105",
        "type": "t_uint256"
      },
      {
        "astId": 6455,
        "contract": "contracts/NFTRent.sol:NFTRent",
        "label": "expertStake",
        "offset": 0,
        "slot": "106",
        "type": "t_uint256"
      },
      {
        "astId": 6463,
        "contract": "contracts/NFTRent.sol:NFTRent",
        "label": "liquidationThreshold",
        "offset": 0,
        "slot": "107",
        "type": "t_uint256"
      },
      {
        "astId": 6526,
        "contract": "contracts/NFTRent.sol:NFTRent",
        "label": "NFTRentLineUsage",
        "offset": 0,
        "slot": "108",
        "type": "t_mapping(t_bytes32,t_struct(NFTRentLineUsageVars)6505_storage)"
      },
      {
        "astId": 6530,
        "contract": "contracts/NFTRent.sol:NFTRent",
        "label": "NFTRentLineInfo",
        "offset": 0,
        "slot": "109",
        "type": "t_mapping(t_bytes32,t_struct(NFTRentLineVars)6522_storage)"
      },
      {
        "astId": 6536,
        "contract": "contracts/NFTRent.sol:NFTRent",
        "label": "quoteVarsInfo",
        "offset": 0,
        "slot": "110",
        "type": "t_mapping(t_address,t_mapping(t_uint256,t_struct(QuoteVars)6490_storage))"
      },
      {
        "astId": 4056,
        "contract": "contracts/NFTRent.sol:NFTRent",
        "label": "verification",
        "offset": 0,
        "slot": "111",
        "type": "t_contract(IVerification)4033"
      },
      {
        "astId": 4060,
        "contract": "contracts/NFTRent.sol:NFTRent",
        "label": "expertData",
        "offset": 0,
        "slot": "112",
        "type": "t_mapping(t_address,t_string_storage)"
      },
      {
        "astId": 4066,
        "contract": "contracts/NFTRent.sol:NFTRent",
        "label": "quotes",
        "offset": 0,
        "slot": "113",
        "type": "t_mapping(t_address,t_mapping(t_uint256,t_bool))"
      },
      {
        "astId": 4072,
        "contract": "contracts/NFTRent.sol:NFTRent",
        "label": "NFTtoHash",
        "offset": 0,
        "slot": "114",
        "type": "t_mapping(t_address,t_mapping(t_uint256,t_bytes32))"
      },
      {
        "astId": 4076,
        "contract": "contracts/NFTRent.sol:NFTRent",
        "label": "VerifiedBorrowers",
        "offset": 0,
        "slot": "115",
        "type": "t_mapping(t_address,t_bool)"
      }
    ],
    "types": {
      "t_address": {
        "encoding": "inplace",
        "label": "address",
        "numberOfBytes": "20"
      },
      "t_array(t_uint256)49_storage": {
        "base": "t_uint256",
        "encoding": "inplace",
        "label": "uint256[49]",
        "numberOfBytes": "1568"
      },
      "t_array(t_uint256)50_storage": {
        "base": "t_uint256",
        "encoding": "inplace",
        "label": "uint256[50]",
        "numberOfBytes": "1600"
      },
      "t_bool": {
        "encoding": "inplace",
        "label": "bool",
        "numberOfBytes": "1"
      },
      "t_bytes32": {
        "encoding": "inplace",
        "label": "bytes32",
        "numberOfBytes": "32"
      },
      "t_contract(IVerification)4033": {
        "encoding": "inplace",
        "label": "contract IVerification",
        "numberOfBytes": "20"
      },
      "t_enum(NFTRentLineStatus)6420": {
        "encoding": "inplace",
        "label": "enum NFTRentStorage.NFTRentLineStatus",
        "numberOfBytes": "1"
      },
      "t_enum(QuoteStatus)6425": {
        "encoding": "inplace",
        "label": "enum NFTRentStorage.QuoteStatus",
        "numberOfBytes": "1"
      },
      "t_mapping(t_address,t_bool)": {
        "encoding": "mapping",
        "key": "t_address",
        "label": "mapping(address => bool)",
        "numberOfBytes": "32",
        "value": "t_bool"
      },
      "t_mapping(t_address,t_mapping(t_uint256,t_bool))": {
        "encoding": "mapping",
        "key": "t_address",
        "label": "mapping(address => mapping(uint256 => bool))",
        "numberOfBytes": "32",
        "value": "t_mapping(t_uint256,t_bool)"
      },
      "t_mapping(t_address,t_mapping(t_uint256,t_bytes32))": {
        "encoding": "mapping",
        "key": "t_address",
        "label": "mapping(address => mapping(uint256 => bytes32))",
        "numberOfBytes": "32",
        "value": "t_mapping(t_uint256,t_bytes32)"
      },
      "t_mapping(t_address,t_mapping(t_uint256,t_struct(QuoteVars)6490_storage))": {
        "encoding": "mapping",
        "key": "t_address",
        "label": "mapping(address => mapping(uint256 => struct NFTRentStorage.QuoteVars))",
        "numberOfBytes": "32",
        "value": "t_mapping(t_uint256,t_struct(QuoteVars)6490_storage)"
      },
      "t_mapping(t_address,t_string_storage)": {
        "encoding": "mapping",
        "key": "t_address",
        "label": "mapping(address => string)",
        "numberOfBytes": "32",
        "value": "t_string_storage"
      },
      "t_mapping(t_bytes32,t_struct(NFTRentLineUsageVars)6505_storage)": {
        "encoding": "mapping",
        "key": "t_bytes32",
        "label": "mapping(bytes32 => struct NFTRentStorage.NFTRentLineUsageVars)",
        "numberOfBytes": "32",
        "value": "t_struct(NFTRentLineUsageVars)6505_storage"
      },
      "t_mapping(t_bytes32,t_struct(NFTRentLineVars)6522_storage)": {
        "encoding": "mapping",
        "key": "t_bytes32",
        "label": "mapping(bytes32 => struct NFTRentStorage.NFTRentLineVars)",
        "numberOfBytes": "32",
        "value": "t_struct(NFTRentLineVars)6522_storage"
      },
      "t_mapping(t_uint256,t_bool)": {
        "encoding": "mapping",
        "key": "t_uint256",
        "label": "mapping(uint256 => bool)",
        "numberOfBytes": "32",
        "value": "t_bool"
      },
      "t_mapping(t_uint256,t_bytes32)": {
        "encoding": "mapping",
        "key": "t_uint256",
        "label": "mapping(uint256 => bytes32)",
        "numberOfBytes": "32",
        "value": "t_bytes32"
      },
      "t_mapping(t_uint256,t_struct(QuoteVars)6490_storage)": {
        "encoding": "mapping",
        "key": "t_uint256",
        "label": "mapping(uint256 => struct NFTRentStorage.QuoteVars)",
        "numberOfBytes": "32",
        "value": "t_struct(QuoteVars)6490_storage"
      },
      "t_string_storage": {
        "encoding": "bytes",
        "label": "string",
        "numberOfBytes": "32"
      },
      "t_struct(NFTRentLineUsageVars)6505_storage": {
        "encoding": "inplace",
        "label": "struct NFTRentStorage.NFTRentLineUsageVars",
        "members": [
          {
            "astId": 6492,
            "contract": "contracts/NFTRent.sol:NFTRent",
            "label": "repayments",
            "offset": 0,
            "slot": "0",
            "type": "t_uint256"
          },
          {
            "astId": 6494,
            "contract": "contracts/NFTRent.sol:NFTRent",
            "label": "withdrawInterval",
            "offset": 0,
            "slot": "1",
            "type": "t_uint256"
          },
          {
            "astId": 6496,
            "contract": "contracts/NFTRent.sol:NFTRent",
            "label": "repaymentInterval",
            "offset": 0,
            "slot": "2",
            "type": "t_uint256"
          },
          {
            "astId": 6498,
            "contract": "contracts/NFTRent.sol:NFTRent",
            "label": "repaymentsCompleted",
            "offset": 0,
            "slot": "3",
            "type": "t_uint256"
          },
          {
            "astId": 6500,
            "contract": "contracts/NFTRent.sol:NFTRent",
            "label": "_rentalPrice",
            "offset": 0,
            "slot": "4",
            "type": "t_uint256"
          },
          {
            "astId": 6502,
            "contract": "contracts/NFTRent.sol:NFTRent",
            "label": "loanStartTime",
            "offset": 0,
            "slot": "5",
            "type": "t_uint256"
          },
          {
            "astId": 6504,
            "contract": "contracts/NFTRent.sol:NFTRent",
            "label": "lastRepaymentTime",
            "offset": 0,
            "slot": "6",
            "type": "t_uint256"
          }
        ],
        "numberOfBytes": "224"
      },
      "t_struct(NFTRentLineVars)6522_storage": {
        "encoding": "inplace",
        "label": "struct NFTRentStorage.NFTRentLineVars",
        "members": [
          {
            "astId": 6507,
            "contract": "contracts/NFTRent.sol:NFTRent",
            "label": "exists",
            "offset": 0,
            "slot": "0",
            "type": "t_bool"
          },
          {
            "astId": 6509,
            "contract": "contracts/NFTRent.sol:NFTRent",
            "label": "lender",
            "offset": 1,
            "slot": "0",
            "type": "t_address"
          },
          {
            "astId": 6511,
            "contract": "contracts/NFTRent.sol:NFTRent",
            "label": "borrower",
            "offset": 0,
            "slot": "1",
            "type": "t_address"
          },
          {
            "astId": 6513,
            "contract": "contracts/NFTRent.sol:NFTRent",
            "label": "rentalPrice",
            "offset": 0,
            "slot": "2",
            "type": "t_uint256"
          },
          {
            "astId": 6515,
            "contract": "contracts/NFTRent.sol:NFTRent",
            "label": "NftAsset",
            "offset": 0,
            "slot": "3",
            "type": "t_address"
          },
          {
            "astId": 6517,
            "contract": "contracts/NFTRent.sol:NFTRent",
            "label": "NftId",
            "offset": 0,
            "slot": "4",
            "type": "t_uint256"
          },
          {
            "astId": 6519,
            "contract": "contracts/NFTRent.sol:NFTRent",
            "label": "collateralAsset",
            "offset": 0,
            "slot": "5",
            "type": "t_address"
          },
          {
            "astId": 6521,
            "contract": "contracts/NFTRent.sol:NFTRent",
            "label": "currentStatus",
            "offset": 20,
            "slot": "5",
            "type": "t_enum(NFTRentLineStatus)6420"
          }
        ],
        "numberOfBytes": "192"
      },
      "t_struct(QuoteVars)6490_storage": {
        "encoding": "inplace",
        "label": "struct NFTRentStorage.QuoteVars",
        "members": [
          {
            "astId": 6465,
            "contract": "contracts/NFTRent.sol:NFTRent",
            "label": "NFTRent",
            "offset": 0,
            "slot": "0",
            "type": "t_address"
          },
          {
            "astId": 6467,
            "contract": "contracts/NFTRent.sol:NFTRent",
            "label": "NFTId",
            "offset": 0,
            "slot": "1",
            "type": "t_uint256"
          },
          {
            "astId": 6469,
            "contract": "contracts/NFTRent.sol:NFTRent",
            "label": "NFTOwner",
            "offset": 0,
            "slot": "2",
            "type": "t_address"
          },
          {
            "astId": 6471,
            "contract": "contracts/NFTRent.sol:NFTRent",
            "label": "maxRentalDuration",
            "offset": 0,
            "slot": "3",
            "type": "t_uint256"
          },
          {
            "astId": 6473,
            "contract": "contracts/NFTRent.sol:NFTRent",
            "label": "dailyRentalPrice",
            "offset": 0,
            "slot": "4",
            "type": "t_uint256"
          },
          {
            "astId": 6475,
            "contract": "contracts/NFTRent.sol:NFTRent",
            "label": "repayInterval",
            "offset": 0,
            "slot": "5",
            "type": "t_uint256"
          },
          {
            "astId": 6477,
            "contract": "contracts/NFTRent.sol:NFTRent",
            "label": "collateralAsset",
            "offset": 0,
            "slot": "6",
            "type": "t_address"
          },
          {
            "astId": 6479,
            "contract": "contracts/NFTRent.sol:NFTRent",
            "label": "collateralAmount",
            "offset": 0,
            "slot": "7",
            "type": "t_uint256"
          },
          {
            "astId": 6481,
            "contract": "contracts/NFTRent.sol:NFTRent",
            "label": "expert",
            "offset": 0,
            "slot": "8",
            "type": "t_address"
          },
          {
            "astId": 6483,
            "contract": "contracts/NFTRent.sol:NFTRent",
            "label": "verified",
            "offset": 20,
            "slot": "8",
            "type": "t_bool"
          },
          {
            "astId": 6485,
            "contract": "contracts/NFTRent.sol:NFTRent",
            "label": "quoteStatus",
            "offset": 21,
            "slot": "8",
            "type": "t_enum(QuoteStatus)6425"
          },
          {
            "astId": 6487,
            "contract": "contracts/NFTRent.sol:NFTRent",
            "label": "Toescrow",
            "offset": 22,
            "slot": "8",
            "type": "t_bool"
          },
          {
            "astId": 6489,
            "contract": "contracts/NFTRent.sol:NFTRent",
            "label": "Towallet",
            "offset": 23,
            "slot": "8",
            "type": "t_bool"
          }
        ],
        "numberOfBytes": "288"
      },
      "t_uint256": {
        "encoding": "inplace",
        "label": "uint256",
        "numberOfBytes": "32"
      }
    }
  }
}