{
  "address": "0x9fE46736679d2D9a65F0992F2272dE9f3c7fa6e0",
  "abi": [
    {
      "anonymous": false,
      "inputs": [
        {
          "indexed": true,
          "internalType": "address",
          "name": "previousOwner",
          "type": "address"
        },
        {
          "indexed": true,
          "internalType": "address",
          "name": "newOwner",
          "type": "address"
        }
      ],
      "name": "OwnershipTransferred",
      "type": "event"
    },
    {
      "inputs": [],
      "name": "NFTRentLineCounter",
      "outputs": [
        {
          "internalType": "uint256",
          "name": "",
          "type": "uint256"
        }
      ],
      "stateMutability": "view",
      "type": "function"
    },
    {
      "inputs": [
        {
          "internalType": "bytes32",
          "name": "",
          "type": "bytes32"
        }
      ],
      "name": "NFTRentLineInfo",
      "outputs": [
        {
          "internalType": "bool",
          "name": "exists",
          "type": "bool"
        },
        {
          "internalType": "address",
          "name": "lender",
          "type": "address"
        },
        {
          "internalType": "address",
          "name": "borrower",
          "type": "address"
        },
        {
          "internalType": "uint256",
          "name": "rentalPrice",
          "type": "uint256"
        },
        {
          "internalType": "address",
          "name": "NftAsset",
          "type": "address"
        },
        {
          "internalType": "uint256",
          "name": "NftId",
          "type": "uint256"
        },
        {
          "internalType": "address",
          "name": "collateralAsset",
          "type": "address"
        },
        {
          "internalType": "enum NFTRentStorage.NFTRentLineStatus",
          "name": "currentStatus",
          "type": "uint8"
        }
      ],
      "stateMutability": "view",
      "type": "function"
    },
    {
      "inputs": [
        {
          "internalType": "bytes32",
          "name": "",
          "type": "bytes32"
        }
      ],
      "name": "NFTRentLineUsage",
      "outputs": [
        {
          "internalType": "uint256",
          "name": "repayments",
          "type": "uint256"
        },
        {
          "internalType": "uint256",
          "name": "withdrawInterval",
          "type": "uint256"
        },
        {
          "internalType": "uint256",
          "name": "repaymentInterval",
          "type": "uint256"
        },
        {
          "internalType": "uint256",
          "name": "repaymentsCompleted",
          "type": "uint256"
        },
        {
          "internalType": "uint256",
          "name": "_rentalPrice",
          "type": "uint256"
        },
        {
          "internalType": "uint256",
          "name": "loanStartTime",
          "type": "uint256"
        },
        {
          "internalType": "uint256",
          "name": "lastRepaymentTime",
          "type": "uint256"
        }
      ],
      "stateMutability": "view",
      "type": "function"
    },
    {
      "inputs": [],
      "name": "expertFee",
      "outputs": [
        {
          "internalType": "uint256",
          "name": "",
          "type": "uint256"
        }
      ],
      "stateMutability": "view",
      "type": "function"
    },
    {
      "inputs": [],
      "name": "expertStake",
      "outputs": [
        {
          "internalType": "uint256",
          "name": "",
          "type": "uint256"
        }
      ],
      "stateMutability": "view",
      "type": "function"
    },
    {
      "inputs": [],
      "name": "feeFraction",
      "outputs": [
        {
          "internalType": "uint256",
          "name": "",
          "type": "uint256"
        }
      ],
      "stateMutability": "view",
      "type": "function"
    },
    {
      "inputs": [],
      "name": "liquidation",
      "outputs": [
        {
          "internalType": "uint256",
          "name": "",
          "type": "uint256"
        }
      ],
      "stateMutability": "view",
      "type": "function"
    },
    {
      "inputs": [],
      "name": "liquidationThreshold",
      "outputs": [
        {
          "internalType": "uint256",
          "name": "",
          "type": "uint256"
        }
      ],
      "stateMutability": "view",
      "type": "function"
    },
    {
      "inputs": [],
      "name": "owner",
      "outputs": [
        {
          "internalType": "address",
          "name": "",
          "type": "address"
        }
      ],
      "stateMutability": "view",
      "type": "function"
    },
    {
      "inputs": [
        {
          "internalType": "address",
          "name": "",
          "type": "address"
        },
        {
          "internalType": "uint256",
          "name": "",
          "type": "uint256"
        }
      ],
      "name": "quoteVarsInfo",
      "outputs": [
        {
          "internalType": "address",
          "name": "NFTRent",
          "type": "address"
        },
        {
          "internalType": "uint256",
          "name": "NFTId",
          "type": "uint256"
        },
        {
          "internalType": "address",
          "name": "NFTOwner",
          "type": "address"
        },
        {
          "internalType": "uint256",
          "name": "maxRentalDuration",
          "type": "uint256"
        },
        {
          "internalType": "uint256",
          "name": "dailyRentalPrice",
          "type": "uint256"
        },
        {
          "internalType": "uint256",
          "name": "repayInterval",
          "type": "uint256"
        },
        {
          "internalType": "address",
          "name": "collateralAsset",
          "type": "address"
        },
        {
          "internalType": "uint256",
          "name": "collateralAmount",
          "type": "uint256"
        },
        {
          "internalType": "address",
          "name": "expert",
          "type": "address"
        },
        {
          "internalType": "bool",
          "name": "verified",
          "type": "bool"
        },
        {
          "internalType": "enum NFTRentStorage.QuoteStatus",
          "name": "quoteStatus",
          "type": "uint8"
        },
        {
          "internalType": "bool",
          "name": "Toescrow",
          "type": "bool"
        },
        {
          "internalType": "bool",
          "name": "Towallet",
          "type": "bool"
        }
      ],
      "stateMutability": "view",
      "type": "function"
    },
    {
      "inputs": [],
      "name": "renounceOwnership",
      "outputs": [],
      "stateMutability": "nonpayable",
      "type": "function"
    },
    {
      "inputs": [],
      "name": "stakeFraction",
      "outputs": [
        {
          "internalType": "uint256",
          "name": "",
          "type": "uint256"
        }
      ],
      "stateMutability": "view",
      "type": "function"
    },
    {
      "inputs": [
        {
          "internalType": "address",
          "name": "newOwner",
          "type": "address"
        }
      ],
      "name": "transferOwnership",
      "outputs": [],
      "stateMutability": "nonpayable",
      "type": "function"
    },
    {
      "inputs": [],
      "name": "yearInSeconds",
      "outputs": [
        {
          "internalType": "uint256",
          "name": "",
          "type": "uint256"
        }
      ],
      "stateMutability": "view",
      "type": "function"
    }
  ],
  "transactionHash": "0x721bf6a8658238f6a7c266d829641751c1bacbf8d9f34445250c48c9f50bccb8",
  "args": [],
  "solcInputHash": "bb12ff30c9ceb6cf2cce034a25a0667a",
  "bytecode": "0x6080604052600a606655603260675560146068556100386b204fce5e3e2502611000000060665461009e60201b6106a61790919060201c565b6069556100606b204fce5e3e2502611000000060675461009e60201b6106a61790919060201c565b606a556100896c0c9f2c9cd04674edea4000000060685461009e60201b6106a61790919060201c565b606b5534801561009857600080fd5b50610100565b6000826100ad575060006100fa565b828202828482816100ba57fe5b04146100f75760405162461bcd60e51b81526004018080602001828103825260218152602001806108946021913960400191505060405180910390fd5b90505b92915050565b6107858061010f6000396000f3fe608060405234801561001057600080fd5b50600436106100ea5760003560e01c806389a012651161008c578063b2db2f5111610066578063b2db2f51146101f0578063e99fb9ac146102e4578063f2dfbf6614610339578063f2fde38b14610341576100ea565b806389a012651461013b5780638da5cb5b146101c4578063a8f05101146101e8576100ea565b80634059d596116100c85780634059d596146101195780635bf8eddd146101215780636d30cccb14610129578063715018a614610131576100ea565b80632893c27e146100ef5780632b64f838146101095780634031234c14610111575b600080fd5b6100f7610367565b60408051918252519081900360200190f35b6100f761036d565b6100f7610373565b6100f7610379565b6100f7610381565b6100f7610387565b61013961038d565b005b6101586004803603602081101561015157600080fd5b503561044b565b6040805189151581526001600160a01b03808a1660208301528881169282019290925260608101879052858216608082015260a0810185905290831660c082015260e081018260058111156101a957fe5b60ff1681526020019850505050505050505060405180910390f35b6101cc6104a6565b604080516001600160a01b039092168252519081900360200190f35b6100f76104b5565b61021c6004803603604081101561020657600080fd5b506001600160a01b0381351690602001356104bb565b604051808e6001600160a01b03166001600160a01b031681526020018d81526020018c6001600160a01b03166001600160a01b031681526020018b81526020018a8152602001898152602001886001600160a01b03166001600160a01b03168152602001878152602001866001600160a01b03166001600160a01b03168152602001851515151581526020018460038111156102b457fe5b60ff168152921515602084015250151560408083019190915251908190036060019b509950505050505050505050f35b610301600480360360208110156102fa57600080fd5b503561054a565b604080519788526020880196909652868601949094526060860192909252608085015260a084015260c0830152519081900360e00190f35b6100f7610587565b6101396004803603602081101561035757600080fd5b50356001600160a01b031661058d565b60675481565b606a5481565b606b5481565b6301e1338081565b60665481565b60655481565b6103956106a2565b6001600160a01b03166103a66104a6565b6001600160a01b031614610401576040805162461bcd60e51b815260206004820181905260248201527f4f776e61626c653a2063616c6c6572206973206e6f7420746865206f776e6572604482015290519081900360640190fd5b6033546040516000916001600160a01b0316907f8be0079c531659141344cd1fd0a4f28419497f9722a3daafe3b4186f6b6457e0908390a3603380546001600160a01b0319169055565b606d6020526000908152604090208054600182015460028301546003840154600485015460059095015460ff808616966001600160a01b036101009097048716969586169593841693909290811691600160a01b9091041688565b6033546001600160a01b031690565b60695481565b606e6020908152600092835260408084209091529082529020805460018201546002830154600384015460048501546005860154600687015460078801546008909801546001600160a01b0397881698969795861696949593949293918216929181169060ff600160a01b8204811691600160a81b8104821691600160b01b8204811691600160b81b9004168d565b606c602052600090815260409020805460018201546002830154600384015460048501546005860154600690960154949593949293919290919087565b60685481565b6105956106a2565b6001600160a01b03166105a66104a6565b6001600160a01b031614610601576040805162461bcd60e51b815260206004820181905260248201527f4f776e61626c653a2063616c6c6572206973206e6f7420746865206f776e6572604482015290519081900360640190fd5b6001600160a01b0381166106465760405162461bcd60e51b81526004018080602001828103825260268152602001806107096026913960400191505060405180910390fd5b6033546040516001600160a01b038084169216907f8be0079c531659141344cd1fd0a4f28419497f9722a3daafe3b4186f6b6457e090600090a3603380546001600160a01b0319166001600160a01b0392909216919091179055565b3390565b6000826106b557506000610702565b828202828482816106c257fe5b04146106ff5760405162461bcd60e51b815260040180806020018281038252602181526020018061072f6021913960400191505060405180910390fd5b90505b9291505056fe4f776e61626c653a206e6577206f776e657220697320746865207a65726f2061646472657373536166654d6174683a206d756c7469706c69636174696f6e206f766572666c6f77a2646970667358221220f9e737599d39c9afe50c5ef75f0f8cb8acb3799cfa68c1d90fe6392a060f0e6664736f6c63430006070033536166654d6174683a206d756c7469706c69636174696f6e206f766572666c6f77",
  "devdoc": {
    "methods": {
      "owner()": {
        "details": "Returns the address of the current owner."
      },
      "renounceOwnership()": {
        "details": "Leaves the contract without owner. It will not be possible to call `onlyOwner` functions anymore. Can only be called by the current owner.     * NOTE: Renouncing ownership will leave the contract without an owner, thereby removing any functionality that is only available to the owner."
      },
      "transferOwnership(address)": {
        "details": "Transfers ownership of the contract to a new account (`newOwner`). Can only be called by the current owner."
      }
    }
  },
  "userdoc": {
    "methods": {}
  },
  "storageLayout": {
    "storage": [
      {
        "astId": 136,
        "contract": "contracts/NFTRentStorage.sol:NFTRentStorage",
        "label": "_initialized",
        "offset": 0,
        "slot": "0",
        "type": "t_bool"
      },
      {
        "astId": 138,
        "contract": "contracts/NFTRentStorage.sol:NFTRentStorage",
        "label": "_initializing",
        "offset": 1,
        "slot": "0",
        "type": "t_bool"
      },
      {
        "astId": 482,
        "contract": "contracts/NFTRentStorage.sol:NFTRentStorage",
        "label": "__gap",
        "offset": 0,
        "slot": "1",
        "type": "t_array(t_uint256)50_storage"
      },
      {
        "astId": 10,
        "contract": "contracts/NFTRentStorage.sol:NFTRentStorage",
        "label": "_owner",
        "offset": 0,
        "slot": "51",
        "type": "t_address"
      },
      {
        "astId": 129,
        "contract": "contracts/NFTRentStorage.sol:NFTRentStorage",
        "label": "__gap",
        "offset": 0,
        "slot": "52",
        "type": "t_array(t_uint256)49_storage"
      },
      {
        "astId": 6429,
        "contract": "contracts/NFTRentStorage.sol:NFTRentStorage",
        "label": "NFTRentLineCounter",
        "offset": 0,
        "slot": "101",
        "type": "t_uint256"
      },
      {
        "astId": 6435,
        "contract": "contracts/NFTRentStorage.sol:NFTRentStorage",
        "label": "feeFraction",
        "offset": 0,
        "slot": "102",
        "type": "t_uint256"
      },
      {
        "astId": 6438,
        "contract": "contracts/NFTRentStorage.sol:NFTRentStorage",
        "label": "stakeFraction",
        "offset": 0,
        "slot": "103",
        "type": "t_uint256"
      },
      {
        "astId": 6441,
        "contract": "contracts/NFTRentStorage.sol:NFTRentStorage",
        "label": "liquidation",
        "offset": 0,
        "slot": "104",
        "type": "t_uint256"
      },
      {
        "astId": 6449,
        "contract": "contracts/NFTRentStorage.sol:NFTRentStorage",
        "label": "expertFee",
        "offset": 0,
        "slot": "105",
        "type": "t_uint256"
      },
      {
        "astId": 6457,
        "contract": "contracts/NFTRentStorage.sol:NFTRentStorage",
        "label": "expertStake",
        "offset": 0,
        "slot": "106",
        "type": "t_uint256"
      },
      {
        "astId": 6465,
        "contract": "contracts/NFTRentStorage.sol:NFTRentStorage",
        "label": "liquidationThreshold",
        "offset": 0,
        "slot": "107",
        "type": "t_uint256"
      },
      {
        "astId": 6528,
        "contract": "contracts/NFTRentStorage.sol:NFTRentStorage",
        "label": "NFTRentLineUsage",
        "offset": 0,
        "slot": "108",
        "type": "t_mapping(t_bytes32,t_struct(NFTRentLineUsageVars)6507_storage)"
      },
      {
        "astId": 6532,
        "contract": "contracts/NFTRentStorage.sol:NFTRentStorage",
        "label": "NFTRentLineInfo",
        "offset": 0,
        "slot": "109",
        "type": "t_mapping(t_bytes32,t_struct(NFTRentLineVars)6524_storage)"
      },
      {
        "astId": 6538,
        "contract": "contracts/NFTRentStorage.sol:NFTRentStorage",
        "label": "quoteVarsInfo",
        "offset": 0,
        "slot": "110",
        "type": "t_mapping(t_address,t_mapping(t_uint256,t_struct(QuoteVars)6492_storage))"
      }
    ],
    "types": {
      "t_address": {
        "encoding": "inplace",
        "label": "address",
        "numberOfBytes": "20"
      },
      "t_array(t_uint256)49_storage": {
        "base": "t_uint256",
        "encoding": "inplace",
        "label": "uint256[49]",
        "numberOfBytes": "1568"
      },
      "t_array(t_uint256)50_storage": {
        "base": "t_uint256",
        "encoding": "inplace",
        "label": "uint256[50]",
        "numberOfBytes": "1600"
      },
      "t_bool": {
        "encoding": "inplace",
        "label": "bool",
        "numberOfBytes": "1"
      },
      "t_bytes32": {
        "encoding": "inplace",
        "label": "bytes32",
        "numberOfBytes": "32"
      },
      "t_enum(NFTRentLineStatus)6422": {
        "encoding": "inplace",
        "label": "enum NFTRentStorage.NFTRentLineStatus",
        "numberOfBytes": "1"
      },
      "t_enum(QuoteStatus)6427": {
        "encoding": "inplace",
        "label": "enum NFTRentStorage.QuoteStatus",
        "numberOfBytes": "1"
      },
      "t_mapping(t_address,t_mapping(t_uint256,t_struct(QuoteVars)6492_storage))": {
        "encoding": "mapping",
        "key": "t_address",
        "label": "mapping(address => mapping(uint256 => struct NFTRentStorage.QuoteVars))",
        "numberOfBytes": "32",
        "value": "t_mapping(t_uint256,t_struct(QuoteVars)6492_storage)"
      },
      "t_mapping(t_bytes32,t_struct(NFTRentLineUsageVars)6507_storage)": {
        "encoding": "mapping",
        "key": "t_bytes32",
        "label": "mapping(bytes32 => struct NFTRentStorage.NFTRentLineUsageVars)",
        "numberOfBytes": "32",
        "value": "t_struct(NFTRentLineUsageVars)6507_storage"
      },
      "t_mapping(t_bytes32,t_struct(NFTRentLineVars)6524_storage)": {
        "encoding": "mapping",
        "key": "t_bytes32",
        "label": "mapping(bytes32 => struct NFTRentStorage.NFTRentLineVars)",
        "numberOfBytes": "32",
        "value": "t_struct(NFTRentLineVars)6524_storage"
      },
      "t_mapping(t_uint256,t_struct(QuoteVars)6492_storage)": {
        "encoding": "mapping",
        "key": "t_uint256",
        "label": "mapping(uint256 => struct NFTRentStorage.QuoteVars)",
        "numberOfBytes": "32",
        "value": "t_struct(QuoteVars)6492_storage"
      },
      "t_struct(NFTRentLineUsageVars)6507_storage": {
        "encoding": "inplace",
        "label": "struct NFTRentStorage.NFTRentLineUsageVars",
        "members": [
          {
            "astId": 6494,
            "contract": "contracts/NFTRentStorage.sol:NFTRentStorage",
            "label": "repayments",
            "offset": 0,
            "slot": "0",
            "type": "t_uint256"
          },
          {
            "astId": 6496,
            "contract": "contracts/NFTRentStorage.sol:NFTRentStorage",
            "label": "withdrawInterval",
            "offset": 0,
            "slot": "1",
            "type": "t_uint256"
          },
          {
            "astId": 6498,
            "contract": "contracts/NFTRentStorage.sol:NFTRentStorage",
            "label": "repaymentInterval",
            "offset": 0,
            "slot": "2",
            "type": "t_uint256"
          },
          {
            "astId": 6500,
            "contract": "contracts/NFTRentStorage.sol:NFTRentStorage",
            "label": "repaymentsCompleted",
            "offset": 0,
            "slot": "3",
            "type": "t_uint256"
          },
          {
            "astId": 6502,
            "contract": "contracts/NFTRentStorage.sol:NFTRentStorage",
            "label": "_rentalPrice",
            "offset": 0,
            "slot": "4",
            "type": "t_uint256"
          },
          {
            "astId": 6504,
            "contract": "contracts/NFTRentStorage.sol:NFTRentStorage",
            "label": "loanStartTime",
            "offset": 0,
            "slot": "5",
            "type": "t_uint256"
          },
          {
            "astId": 6506,
            "contract": "contracts/NFTRentStorage.sol:NFTRentStorage",
            "label": "lastRepaymentTime",
            "offset": 0,
            "slot": "6",
            "type": "t_uint256"
          }
        ],
        "numberOfBytes": "224"
      },
      "t_struct(NFTRentLineVars)6524_storage": {
        "encoding": "inplace",
        "label": "struct NFTRentStorage.NFTRentLineVars",
        "members": [
          {
            "astId": 6509,
            "contract": "contracts/NFTRentStorage.sol:NFTRentStorage",
            "label": "exists",
            "offset": 0,
            "slot": "0",
            "type": "t_bool"
          },
          {
            "astId": 6511,
            "contract": "contracts/NFTRentStorage.sol:NFTRentStorage",
            "label": "lender",
            "offset": 1,
            "slot": "0",
            "type": "t_address"
          },
          {
            "astId": 6513,
            "contract": "contracts/NFTRentStorage.sol:NFTRentStorage",
            "label": "borrower",
            "offset": 0,
            "slot": "1",
            "type": "t_address"
          },
          {
            "astId": 6515,
            "contract": "contracts/NFTRentStorage.sol:NFTRentStorage",
            "label": "rentalPrice",
            "offset": 0,
            "slot": "2",
            "type": "t_uint256"
          },
          {
            "astId": 6517,
            "contract": "contracts/NFTRentStorage.sol:NFTRentStorage",
            "label": "NftAsset",
            "offset": 0,
            "slot": "3",
            "type": "t_address"
          },
          {
            "astId": 6519,
            "contract": "contracts/NFTRentStorage.sol:NFTRentStorage",
            "label": "NftId",
            "offset": 0,
            "slot": "4",
            "type": "t_uint256"
          },
          {
            "astId": 6521,
            "contract": "contracts/NFTRentStorage.sol:NFTRentStorage",
            "label": "collateralAsset",
            "offset": 0,
            "slot": "5",
            "type": "t_address"
          },
          {
            "astId": 6523,
            "contract": "contracts/NFTRentStorage.sol:NFTRentStorage",
            "label": "currentStatus",
            "offset": 20,
            "slot": "5",
            "type": "t_enum(NFTRentLineStatus)6422"
          }
        ],
        "numberOfBytes": "192"
      },
      "t_struct(QuoteVars)6492_storage": {
        "encoding": "inplace",
        "label": "struct NFTRentStorage.QuoteVars",
        "members": [
          {
            "astId": 6467,
            "contract": "contracts/NFTRentStorage.sol:NFTRentStorage",
            "label": "NFTRent",
            "offset": 0,
            "slot": "0",
            "type": "t_address"
          },
          {
            "astId": 6469,
            "contract": "contracts/NFTRentStorage.sol:NFTRentStorage",
            "label": "NFTId",
            "offset": 0,
            "slot": "1",
            "type": "t_uint256"
          },
          {
            "astId": 6471,
            "contract": "contracts/NFTRentStorage.sol:NFTRentStorage",
            "label": "NFTOwner",
            "offset": 0,
            "slot": "2",
            "type": "t_address"
          },
          {
            "astId": 6473,
            "contract": "contracts/NFTRentStorage.sol:NFTRentStorage",
            "label": "maxRentalDuration",
            "offset": 0,
            "slot": "3",
            "type": "t_uint256"
          },
          {
            "astId": 6475,
            "contract": "contracts/NFTRentStorage.sol:NFTRentStorage",
            "label": "dailyRentalPrice",
            "offset": 0,
            "slot": "4",
            "type": "t_uint256"
          },
          {
            "astId": 6477,
            "contract": "contracts/NFTRentStorage.sol:NFTRentStorage",
            "label": "repayInterval",
            "offset": 0,
            "slot": "5",
            "type": "t_uint256"
          },
          {
            "astId": 6479,
            "contract": "contracts/NFTRentStorage.sol:NFTRentStorage",
            "label": "collateralAsset",
            "offset": 0,
            "slot": "6",
            "type": "t_address"
          },
          {
            "astId": 6481,
            "contract": "contracts/NFTRentStorage.sol:NFTRentStorage",
            "label": "collateralAmount",
            "offset": 0,
            "slot": "7",
            "type": "t_uint256"
          },
          {
            "astId": 6483,
            "contract": "contracts/NFTRentStorage.sol:NFTRentStorage",
            "label": "expert",
            "offset": 0,
            "slot": "8",
            "type": "t_address"
          },
          {
            "astId": 6485,
            "contract": "contracts/NFTRentStorage.sol:NFTRentStorage",
            "label": "verified",
            "offset": 20,
            "slot": "8",
            "type": "t_bool"
          },
          {
            "astId": 6487,
            "contract": "contracts/NFTRentStorage.sol:NFTRentStorage",
            "label": "quoteStatus",
            "offset": 21,
            "slot": "8",
            "type": "t_enum(QuoteStatus)6427"
          },
          {
            "astId": 6489,
            "contract": "contracts/NFTRentStorage.sol:NFTRentStorage",
            "label": "Toescrow",
            "offset": 22,
            "slot": "8",
            "type": "t_bool"
          },
          {
            "astId": 6491,
            "contract": "contracts/NFTRentStorage.sol:NFTRentStorage",
            "label": "Towallet",
            "offset": 23,
            "slot": "8",
            "type": "t_bool"
          }
        ],
        "numberOfBytes": "288"
      },
      "t_uint256": {
        "encoding": "inplace",
        "label": "uint256",
        "numberOfBytes": "32"
      }
    }
  }
}