{
  "_format": "hh-sol-artifact-1",
  "contractName": "YourContract",
  "sourceName": "contracts/YourContract.sol",
  "abi": [
    {
      "inputs": [],
      "stateMutability": "nonpayable",
      "type": "constructor"
    },
    {
      "anonymous": false,
      "inputs": [
        {
          "indexed": true,
          "internalType": "address",
          "name": "owner",
          "type": "address"
        },
        {
          "indexed": true,
          "internalType": "address",
          "name": "approved",
          "type": "address"
        },
        {
          "indexed": true,
          "internalType": "uint256",
          "name": "tokenId",
          "type": "uint256"
        }
      ],
      "name": "Approval",
      "type": "event"
    },
    {
      "anonymous": false,
      "inputs": [
        {
          "indexed": true,
          "internalType": "address",
          "name": "owner",
          "type": "address"
        },
        {
          "indexed": true,
          "internalType": "address",
          "name": "operator",
          "type": "address"
        },
        {
          "indexed": false,
          "internalType": "bool",
          "name": "approved",
          "type": "bool"
        }
      ],
      "name": "ApprovalForAll",
      "type": "event"
    },
    {
      "anonymous": false,
      "inputs": [
        {
          "indexed": true,
          "internalType": "address",
          "name": "from",
          "type": "address"
        },
        {
          "indexed": true,
          "internalType": "address",
          "name": "to",
          "type": "address"
        },
        {
          "indexed": true,
          "internalType": "uint256",
          "name": "tokenId",
          "type": "uint256"
        }
      ],
      "name": "Transfer",
      "type": "event"
    },
    {
      "inputs": [
        {
          "internalType": "address",
          "name": "to",
          "type": "address"
        },
        {
          "internalType": "uint256",
          "name": "tokenId",
          "type": "uint256"
        }
      ],
      "name": "approve",
      "outputs": [],
      "stateMutability": "nonpayable",
      "type": "function"
    },
    {
      "inputs": [
        {
          "internalType": "address",
          "name": "owner",
          "type": "address"
        }
      ],
      "name": "balanceOf",
      "outputs": [
        {
          "internalType": "uint256",
          "name": "",
          "type": "uint256"
        }
      ],
      "stateMutability": "view",
      "type": "function"
    },
    {
      "inputs": [],
      "name": "baseURI",
      "outputs": [
        {
          "internalType": "string",
          "name": "",
          "type": "string"
        }
      ],
      "stateMutability": "view",
      "type": "function"
    },
    {
      "inputs": [
        {
          "internalType": "uint256",
          "name": "tokenId",
          "type": "uint256"
        }
      ],
      "name": "getApproved",
      "outputs": [
        {
          "internalType": "address",
          "name": "",
          "type": "address"
        }
      ],
      "stateMutability": "view",
      "type": "function"
    },
    {
      "inputs": [
        {
          "internalType": "address",
          "name": "owner",
          "type": "address"
        },
        {
          "internalType": "address",
          "name": "operator",
          "type": "address"
        }
      ],
      "name": "isApprovedForAll",
      "outputs": [
        {
          "internalType": "bool",
          "name": "",
          "type": "bool"
        }
      ],
      "stateMutability": "view",
      "type": "function"
    },
    {
      "inputs": [],
      "name": "mintItem",
      "outputs": [
        {
          "internalType": "uint256",
          "name": "",
          "type": "uint256"
        }
      ],
      "stateMutability": "nonpayable",
      "type": "function"
    },
    {
      "inputs": [],
      "name": "name",
      "outputs": [
        {
          "internalType": "string",
          "name": "",
          "type": "string"
        }
      ],
      "stateMutability": "view",
      "type": "function"
    },
    {
      "inputs": [
        {
          "internalType": "uint256",
          "name": "tokenId",
          "type": "uint256"
        }
      ],
      "name": "ownerOf",
      "outputs": [
        {
          "internalType": "address",
          "name": "",
          "type": "address"
        }
      ],
      "stateMutability": "view",
      "type": "function"
    },
    {
      "inputs": [
        {
          "internalType": "address",
          "name": "from",
          "type": "address"
        },
        {
          "internalType": "address",
          "name": "to",
          "type": "address"
        },
        {
          "internalType": "uint256",
          "name": "tokenId",
          "type": "uint256"
        }
      ],
      "name": "safeTransferFrom",
      "outputs": [],
      "stateMutability": "nonpayable",
      "type": "function"
    },
    {
      "inputs": [
        {
          "internalType": "address",
          "name": "from",
          "type": "address"
        },
        {
          "internalType": "address",
          "name": "to",
          "type": "address"
        },
        {
          "internalType": "uint256",
          "name": "tokenId",
          "type": "uint256"
        },
        {
          "internalType": "bytes",
          "name": "_data",
          "type": "bytes"
        }
      ],
      "name": "safeTransferFrom",
      "outputs": [],
      "stateMutability": "nonpayable",
      "type": "function"
    },
    {
      "inputs": [
        {
          "internalType": "address",
          "name": "operator",
          "type": "address"
        },
        {
          "internalType": "bool",
          "name": "approved",
          "type": "bool"
        }
      ],
      "name": "setApprovalForAll",
      "outputs": [],
      "stateMutability": "nonpayable",
      "type": "function"
    },
    {
      "inputs": [
        {
          "internalType": "bytes4",
          "name": "interfaceId",
          "type": "bytes4"
        }
      ],
      "name": "supportsInterface",
      "outputs": [
        {
          "internalType": "bool",
          "name": "",
          "type": "bool"
        }
      ],
      "stateMutability": "view",
      "type": "function"
    },
    {
      "inputs": [],
      "name": "symbol",
      "outputs": [
        {
          "internalType": "string",
          "name": "",
          "type": "string"
        }
      ],
      "stateMutability": "view",
      "type": "function"
    },
    {
      "inputs": [
        {
          "internalType": "uint256",
          "name": "index",
          "type": "uint256"
        }
      ],
      "name": "tokenByIndex",
      "outputs": [
        {
          "internalType": "uint256",
          "name": "",
          "type": "uint256"
        }
      ],
      "stateMutability": "view",
      "type": "function"
    },
    {
      "inputs": [
        {
          "internalType": "address",
          "name": "owner",
          "type": "address"
        },
        {
          "internalType": "uint256",
          "name": "index",
          "type": "uint256"
        }
      ],
      "name": "tokenOfOwnerByIndex",
      "outputs": [
        {
          "internalType": "uint256",
          "name": "",
          "type": "uint256"
        }
      ],
      "stateMutability": "view",
      "type": "function"
    },
    {
      "inputs": [
        {
          "internalType": "uint256",
          "name": "tokenId",
          "type": "uint256"
        }
      ],
      "name": "tokenURI",
      "outputs": [
        {
          "internalType": "string",
          "name": "",
          "type": "string"
        }
      ],
      "stateMutability": "view",
      "type": "function"
    },
    {
      "inputs": [],
      "name": "totalSupply",
      "outputs": [
        {
          "internalType": "uint256",
          "name": "",
          "type": "uint256"
        }
      ],
      "stateMutability": "view",
      "type": "function"
    },
    {
      "inputs": [
        {
          "internalType": "address",
          "name": "from",
          "type": "address"
        },
        {
          "internalType": "address",
          "name": "to",
          "type": "address"
        },
        {
          "internalType": "uint256",
          "name": "tokenId",
          "type": "uint256"
        }
      ],
      "name": "transferFrom",
      "outputs": [],
      "stateMutability": "nonpayable",
      "type": "function"
    }
  ],
  "bytecode": "0x60806040523480156200001157600080fd5b50604080518082018252600f81526e596f7572436f6c6c65637469626c6560881b602080830191909152825180840190935260038352622ca1a160e91b90830152906200006e6301ffc9a760e01b6001600160e01b036200010816565b8151620000839060069060208501906200054e565b508051620000999060079060208401906200054e565b50620000b56380ac58cd60e01b6001600160e01b036200010816565b620000d0635b5e139f60e01b6001600160e01b036200010816565b620000eb63780e9d6360e01b6001600160e01b036200010816565b506200010190506001600160e01b036200018d16565b50620005f0565b6001600160e01b0319808216141562000168576040805162461bcd60e51b815260206004820152601c60248201527f4552433136353a20696e76616c696420696e7465726661636520696400000000604482015290519081900360640190fd5b6001600160e01b0319166000908152602081905260409020805460ff19166001179055565b600080620001a7600a6200024a60201b620011691760201c565b6000818152600b602052604090205490915060ff1615620001ff576040805162461bcd60e51b815260206004820152600d60248201526c546f6b656e206578697374732160981b604482015290519081900360640190fd5b62000216600a6200024e60201b6200116d1760201c565b6200022b33826001600160e01b036200025716565b6000818152600b60205260409020805460ff1916600117905590505b90565b5490565b80546001019055565b6001600160a01b038216620002b3576040805162461bcd60e51b815260206004820181905260248201527f4552433732313a206d696e7420746f20746865207a65726f2061646472657373604482015290519081900360640190fd5b620002c7816001600160e01b03620003bd16565b156200031a576040805162461bcd60e51b815260206004820152601c60248201527f4552433732313a20746f6b656e20616c7265616479206d696e74656400000000604482015290519081900360640190fd5b62000331600083836001600160e01b03620003e016565b6001600160a01b038216600090815260016020908152604090912062000362918390620012c8620003e5821b17901c565b5062000380818360026200040360201b620012d4179092919060201c565b5060405181906001600160a01b038416906000907fddf252ad1be2c89b69c2b068fc378daa952ba7f163c4a11628f55a4df523b3ef908290a45050565b6000620003da8260026200042c60201b620012b01790919060201c565b92915050565b505050565b6000620003fc83836001600160e01b036200044316565b9392505050565b60006200042484846001600160a01b0385166001600160e01b036200049b16565b949350505050565b6000620003fc83836001600160e01b036200053616565b60006200045a83836001600160e01b036200053616565b6200049257508154600181810184556000848152602080822090930184905584548482528286019093526040902091909155620003da565b506000620003da565b60008281526001840160205260408120548062000502575050604080518082018252838152602080820184815286546001818101895560008981528481209551600290930290950191825591519082015586548684528188019092529290912055620003fc565b828560000160018303815481106200051657fe5b9060005260206000209060020201600101819055506000915050620003fc565b60009081526001919091016020526040902054151590565b828054600181600116156101000203166002900490600052602060002090601f016020900481019282601f106200059157805160ff1916838001178555620005c1565b82800160010185558215620005c1579182015b82811115620005c1578251825591602001919060010190620005a4565b50620005cf929150620005d3565b5090565b6200024791905b80821115620005cf5760008155600101620005da565b611bc180620006006000396000f3fe608060405234801561001057600080fd5b50600436106101165760003560e01c80636352211e116100a2578063a22cb46511610071578063a22cb4651461035c578063b88d4fde1461038a578063c87b56dd14610450578063e985e9c51461046d578063eb93406b1461049b57610116565b80636352211e146103095780636c0360eb1461032657806370a082311461032e57806395d89b411461035457610116565b806318160ddd116100e957806318160ddd1461023a57806323b872dd146102545780632f745c591461028a57806342842e0e146102b65780634f6ccce7146102ec57610116565b806301ffc9a71461011b57806306fdde0314610156578063081812fc146101d3578063095ea7b31461020c575b600080fd5b6101426004803603602081101561013157600080fd5b50356001600160e01b0319166104a3565b604080519115158252519081900360200190f35b61015e6104c6565b6040805160208082528351818301528351919283929083019185019080838360005b83811015610198578181015183820152602001610180565b50505050905090810190601f1680156101c55780820380516001836020036101000a031916815260200191505b509250505060405180910390f35b6101f0600480360360208110156101e957600080fd5b503561055c565b604080516001600160a01b039092168252519081900360200190f35b6102386004803603604081101561022257600080fd5b506001600160a01b0381351690602001356105be565b005b610242610699565b60408051918252519081900360200190f35b6102386004803603606081101561026a57600080fd5b506001600160a01b038135811691602081013590911690604001356106aa565b610242600480360360408110156102a057600080fd5b506001600160a01b038135169060200135610701565b610238600480360360608110156102cc57600080fd5b506001600160a01b03813581169160208101359091169060400135610732565b6102426004803603602081101561030257600080fd5b503561074d565b6101f06004803603602081101561031f57600080fd5b5035610769565b61015e610797565b6102426004803603602081101561034457600080fd5b50356001600160a01b03166107f8565b61015e610860565b6102386004803603604081101561037257600080fd5b506001600160a01b03813516906020013515156108c1565b610238600480360360808110156103a057600080fd5b6001600160a01b038235811692602081013590911691604082013591908101906080810160608201356401000000008111156103db57600080fd5b8201836020820111156103ed57600080fd5b8035906020019184600183028401116401000000008311171561040f57600080fd5b91908080601f0160208091040260200160405190810160405280939291908181526020018383808284376000920191909152509295506109c6945050505050565b61015e6004803603602081101561046657600080fd5b5035610a24565b6101426004803603604081101561048357600080fd5b506001600160a01b0381358116916020013516610ca7565b610242610cd5565b6001600160e01b0319811660009081526020819052604090205460ff165b919050565b60068054604080516020601f60026000196101006001881615020190951694909404938401819004810282018101909252828152606093909290918301828280156105525780601f1061052757610100808354040283529160200191610552565b820191906000526020600020905b81548152906001019060200180831161053557829003601f168201915b5050505050905090565b600061056782610d6b565b6105a25760405162461bcd60e51b815260040180806020018281038252602c815260200180611ab6602c913960400191505060405180910390fd5b506000908152600460205260409020546001600160a01b031690565b60006105c982610769565b9050806001600160a01b0316836001600160a01b0316141561061c5760405162461bcd60e51b8152600401808060200182810382526021815260200180611b3a6021913960400191505060405180910390fd5b806001600160a01b031661062e610d7e565b6001600160a01b0316148061064f575061064f8161064a610d7e565b610ca7565b61068a5760405162461bcd60e51b8152600401808060200182810382526038815260200180611a096038913960400191505060405180910390fd5b6106948383610d82565b505050565b60006106a56002610df0565b905090565b6106bb6106b5610d7e565b82610dfb565b6106f65760405162461bcd60e51b8152600401808060200182810382526031815260200180611b5b6031913960400191505060405180910390fd5b610694838383610e9f565b6001600160a01b0382166000908152600160205260408120610729908363ffffffff610ffd16565b90505b92915050565b610694838383604051806020016040528060008152506109c6565b60008061076160028463ffffffff61100916565b509392505050565b600061072c82604051806060016040528060298152602001611a6b602991396002919063ffffffff61102516565b60098054604080516020601f60026000196101006001881615020190951694909404938401819004810282018101909252828152606093909290918301828280156105525780601f1061052757610100808354040283529160200191610552565b60006001600160a01b03821661083f5760405162461bcd60e51b815260040180806020018281038252602a815260200180611a41602a913960400191505060405180910390fd5b6001600160a01b038216600090815260016020526040902061072c90610df0565b60078054604080516020601f60026000196101006001881615020190951694909404938401819004810282018101909252828152606093909290918301828280156105525780601f1061052757610100808354040283529160200191610552565b6108c9610d7e565b6001600160a01b0316826001600160a01b0316141561092f576040805162461bcd60e51b815260206004820152601960248201527f4552433732313a20617070726f766520746f2063616c6c657200000000000000604482015290519081900360640190fd5b806005600061093c610d7e565b6001600160a01b03908116825260208083019390935260409182016000908120918716808252919093529120805460ff191692151592909217909155610980610d7e565b60408051841515815290516001600160a01b0392909216917f17307eab39ab6107e8899845ad3d59bd9653f200f220920489ca2b5937696c319181900360200190a35050565b6109d76109d1610d7e565b83610dfb565b610a125760405162461bcd60e51b8152600401808060200182810382526031815260200180611b5b6031913960400191505060405180910390fd5b610a1e8484848461103c565b50505050565b6060610a2f82610d6b565b610a6a5760405162461bcd60e51b815260040180806020018281038252602f815260200180611b0b602f913960400191505060405180910390fd5b60008281526008602090815260409182902080548351601f6002600019610100600186161502019093169290920491820184900484028101840190945280845260609392830182828015610aff5780601f10610ad457610100808354040283529160200191610aff565b820191906000526020600020905b815481529060010190602001808311610ae257829003601f168201915b505050505090506060610b10610797565b9050805160001415610b24575090506104c1565b815115610be55780826040516020018083805190602001908083835b60208310610b5f5780518252601f199092019160209182019101610b40565b51815160209384036101000a600019018019909216911617905285519190930192850191508083835b60208310610ba75780518252601f199092019160209182019101610b88565b6001836020036101000a03801982511681845116808217855250505050505090500192505050604051602081830303815290604052925050506104c1565b80610bef8561108e565b6040516020018083805190602001908083835b60208310610c215780518252601f199092019160209182019101610c02565b51815160209384036101000a600019018019909216911617905285519190930192850191508083835b60208310610c695780518252601f199092019160209182019101610c4a565b6001836020036101000a0380198251168184511680821785525050505050509050019250505060405160208183030381529060405292505050919050565b6001600160a01b03918216600090815260056020908152604080832093909416825291909152205460ff1690565b600080610ce2600a611169565b6000818152600b602052604090205490915060ff1615610d39576040805162461bcd60e51b815260206004820152600d60248201526c546f6b656e206578697374732160981b604482015290519081900360640190fd5b610d43600a61116d565b610d4d3382611176565b6000818152600b60205260409020805460ff19166001179055905090565b600061072c60028363ffffffff6112b016565b3390565b600081815260046020526040902080546001600160a01b0319166001600160a01b0384169081179091558190610db782610769565b6001600160a01b03167f8c5be1e5ebec7d5bd14f71427d1e84f3dd0314c0f7b2291e5b200ac8c7c3b92560405160405180910390a45050565b600061072c82611169565b6000610e0682610d6b565b610e415760405162461bcd60e51b815260040180806020018281038252602c8152602001806119dd602c913960400191505060405180910390fd5b6000610e4c83610769565b9050806001600160a01b0316846001600160a01b03161480610e875750836001600160a01b0316610e7c8461055c565b6001600160a01b0316145b80610e975750610e978185610ca7565b949350505050565b826001600160a01b0316610eb282610769565b6001600160a01b031614610ef75760405162461bcd60e51b8152600401808060200182810382526029815260200180611ae26029913960400191505060405180910390fd5b6001600160a01b038216610f3c5760405162461bcd60e51b81526004018080602001828103825260248152602001806119b96024913960400191505060405180910390fd5b610f47838383610694565b610f52600082610d82565b6001600160a01b0383166000908152600160205260409020610f7a908263ffffffff6112bc16565b506001600160a01b0382166000908152600160205260409020610fa3908263ffffffff6112c816565b50610fb66002828463ffffffff6112d416565b5080826001600160a01b0316846001600160a01b03167fddf252ad1be2c89b69c2b068fc378daa952ba7f163c4a11628f55a4df523b3ef60405160405180910390a4505050565b600061072983836112ea565b6000808080611018868661134e565b9097909650945050505050565b60006110328484846113c9565b90505b9392505050565b611047848484610e9f565b61105384848484611493565b610a1e5760405162461bcd60e51b81526004018080602001828103825260328152602001806119876032913960400191505060405180910390fd5b6060816110b357506040805180820190915260018152600360fc1b60208201526104c1565b8160005b81156110cb57600101600a820491506110b7565b60608167ffffffffffffffff811180156110e457600080fd5b506040519080825280601f01601f19166020018201604052801561110f576020820181803683370190505b50859350905060001982015b831561116057600a840660300160f81b8282806001900393508151811061113e57fe5b60200101906001600160f81b031916908160001a905350600a8404935061111b565b50949350505050565b5490565b80546001019055565b6001600160a01b0382166111d1576040805162461bcd60e51b815260206004820181905260248201527f4552433732313a206d696e7420746f20746865207a65726f2061646472657373604482015290519081900360640190fd5b6111da81610d6b565b1561122c576040805162461bcd60e51b815260206004820152601c60248201527f4552433732313a20746f6b656e20616c7265616479206d696e74656400000000604482015290519081900360640190fd5b61123860008383610694565b6001600160a01b0382166000908152600160205260409020611260908263ffffffff6112c816565b506112736002828463ffffffff6112d416565b5060405181906001600160a01b038416906000907fddf252ad1be2c89b69c2b068fc378daa952ba7f163c4a11628f55a4df523b3ef908290a45050565b60006107298383611613565b6000610729838361162b565b600061072983836116f1565b600061103284846001600160a01b03851661173b565b8154600090821061132c5760405162461bcd60e51b81526004018080602001828103825260228152602001806119656022913960400191505060405180910390fd5b82600001828154811061133b57fe5b9060005260206000200154905092915050565b8154600090819083106113925760405162461bcd60e51b8152600401808060200182810382526022815260200180611a946022913960400191505060405180910390fd5b60008460000184815481106113a357fe5b906000526020600020906002020190508060000154816001015492509250509250929050565b600082815260018401602052604081205482816114645760405162461bcd60e51b81526004018080602001828103825283818151815260200191508051906020019080838360005b83811015611429578181015183820152602001611411565b50505050905090810190601f1680156114565780820380516001836020036101000a031916815260200191505b509250505060405180910390fd5b5084600001600182038154811061147757fe5b9060005260206000209060020201600101549150509392505050565b60006114a7846001600160a01b03166117d2565b6114b357506001610e97565b60606115d9630a85bd0160e11b6114c8610d7e565b88878760405160240180856001600160a01b03166001600160a01b03168152602001846001600160a01b03166001600160a01b0316815260200183815260200180602001828103825283818151815260200191508051906020019080838360005b83811015611541578181015183820152602001611529565b50505050905090810190601f16801561156e5780820380516001836020036101000a031916815260200191505b5095505050505050604051602081830303815290604052906001600160e01b0319166020820180516001600160e01b038381831617835250505050604051806060016040528060328152602001611987603291396001600160a01b038816919063ffffffff6117d816565b905060008180602001905160208110156115f257600080fd5b50516001600160e01b031916630a85bd0160e11b1492505050949350505050565b60009081526001919091016020526040902054151590565b600081815260018301602052604081205480156116e7578354600019808301919081019060009087908390811061165e57fe5b906000526020600020015490508087600001848154811061167b57fe5b6000918252602080832090910192909255828152600189810190925260409020908401905586548790806116ab57fe5b6001900381819060005260206000200160009055905586600101600087815260200190815260200160002060009055600194505050505061072c565b600091505061072c565b60006116fd8383611613565b6117335750815460018181018455600084815260208082209093018490558454848252828601909352604090209190915561072c565b50600061072c565b6000828152600184016020526040812054806117a0575050604080518082018252838152602080820184815286546001818101895560008981528481209551600290930290950191825591519082015586548684528188019092529290912055611035565b828560000160018303815481106117b357fe5b9060005260206000209060020201600101819055506000915050611035565b3b151590565b60606110328484600085856117ec856117d2565b61183d576040805162461bcd60e51b815260206004820152601d60248201527f416464726573733a2063616c6c20746f206e6f6e2d636f6e7472616374000000604482015290519081900360640190fd5b60006060866001600160a01b031685876040518082805190602001908083835b6020831061187c5780518252601f19909201916020918201910161185d565b6001836020036101000a03801982511681845116808217855250505050505090500191505060006040518083038185875af1925050503d80600081146118de576040519150601f19603f3d011682016040523d82523d6000602084013e6118e3565b606091505b50915091506118f38282866118fe565b979650505050505050565b6060831561190d575081611035565b82511561191d5782518084602001fd5b60405162461bcd60e51b815260206004820181815284516024840152845185939192839260440191908501908083836000831561142957818101518382015260200161141156fe456e756d657261626c655365743a20696e646578206f7574206f6620626f756e64734552433732313a207472616e7366657220746f206e6f6e20455243373231526563656976657220696d706c656d656e7465724552433732313a207472616e7366657220746f20746865207a65726f20616464726573734552433732313a206f70657261746f7220717565727920666f72206e6f6e6578697374656e7420746f6b656e4552433732313a20617070726f76652063616c6c6572206973206e6f74206f776e6572206e6f7220617070726f76656420666f7220616c6c4552433732313a2062616c616e636520717565727920666f7220746865207a65726f20616464726573734552433732313a206f776e657220717565727920666f72206e6f6e6578697374656e7420746f6b656e456e756d657261626c654d61703a20696e646578206f7574206f6620626f756e64734552433732313a20617070726f76656420717565727920666f72206e6f6e6578697374656e7420746f6b656e4552433732313a207472616e73666572206f6620746f6b656e2074686174206973206e6f74206f776e4552433732314d657461646174613a2055524920717565727920666f72206e6f6e6578697374656e7420746f6b656e4552433732313a20617070726f76616c20746f2063757272656e74206f776e65724552433732313a207472616e736665722063616c6c6572206973206e6f74206f776e6572206e6f7220617070726f766564a264697066735822122078f7e509291abf59d994611605a756fd78827ede88778792004e3d3688a52c3164736f6c63430006070033",
  "linkReferences": {},
  "deployedLinkReferences": {}
}