{
  "_format": "hh-sol-artifact-1",
  "contractName": "Verification",
  "sourceName": "contracts/Verification.sol",
  "abi": [
    {
      "anonymous": false,
      "inputs": [
        {
          "indexed": true,
          "internalType": "address",
          "name": "previousOwner",
          "type": "address"
        },
        {
          "indexed": true,
          "internalType": "address",
          "name": "newOwner",
          "type": "address"
        }
      ],
      "name": "OwnershipTransferred",
      "type": "event"
    },
    {
      "anonymous": false,
      "inputs": [
        {
          "indexed": false,
          "internalType": "address",
          "name": "masterAddress",
          "type": "address"
        },
        {
          "indexed": false,
          "internalType": "address",
          "name": "verifier",
          "type": "address"
        },
        {
          "indexed": false,
          "internalType": "bool",
          "name": "isMasterLinked",
          "type": "bool"
        }
      ],
      "name": "UserRegistered",
      "type": "event"
    },
    {
      "anonymous": false,
      "inputs": [
        {
          "indexed": false,
          "internalType": "address",
          "name": "masterAddress",
          "type": "address"
        },
        {
          "indexed": false,
          "internalType": "address",
          "name": "verifier",
          "type": "address"
        },
        {
          "indexed": false,
          "internalType": "address",
          "name": "unregisteredBy",
          "type": "address"
        }
      ],
      "name": "UserUnregistered",
      "type": "event"
    },
    {
      "anonymous": false,
      "inputs": [
        {
          "indexed": false,
          "internalType": "address",
          "name": "verifier",
          "type": "address"
        }
      ],
      "name": "VerifierAdded",
      "type": "event"
    },
    {
      "anonymous": false,
      "inputs": [
        {
          "indexed": false,
          "internalType": "address",
          "name": "verifier",
          "type": "address"
        }
      ],
      "name": "VerifierRemoved",
      "type": "event"
    },
    {
      "anonymous": false,
      "inputs": [
        {
          "indexed": false,
          "internalType": "address",
          "name": "linkedAddress",
          "type": "address"
        },
        {
          "indexed": false,
          "internalType": "address",
          "name": "masterAddress",
          "type": "address"
        }
      ],
      "name": "addressLinked",
      "type": "event"
    },
    {
      "anonymous": false,
      "inputs": [
        {
          "indexed": false,
          "internalType": "address",
          "name": "linkedAddress",
          "type": "address"
        },
        {
          "indexed": false,
          "internalType": "address",
          "name": "masterAddress",
          "type": "address"
        }
      ],
      "name": "addressUnlinked",
      "type": "event"
    },
    {
      "inputs": [
        {
          "internalType": "address",
          "name": "_verifier",
          "type": "address"
        }
      ],
      "name": "addVerifier",
      "outputs": [],
      "stateMutability": "nonpayable",
      "type": "function"
    },
    {
      "inputs": [
        {
          "internalType": "address",
          "name": "_admin",
          "type": "address"
        }
      ],
      "name": "initialize",
      "outputs": [],
      "stateMutability": "nonpayable",
      "type": "function"
    },
    {
      "inputs": [
        {
          "internalType": "address",
          "name": "_user",
          "type": "address"
        },
        {
          "internalType": "address",
          "name": "_verifier",
          "type": "address"
        }
      ],
      "name": "isUser",
      "outputs": [
        {
          "internalType": "bool",
          "name": "",
          "type": "bool"
        }
      ],
      "stateMutability": "view",
      "type": "function"
    },
    {
      "inputs": [
        {
          "internalType": "bytes",
          "name": "_approval",
          "type": "bytes"
        }
      ],
      "name": "linkAddress",
      "outputs": [],
      "stateMutability": "nonpayable",
      "type": "function"
    },
    {
      "inputs": [
        {
          "internalType": "address",
          "name": "",
          "type": "address"
        }
      ],
      "name": "linkedAddresses",
      "outputs": [
        {
          "internalType": "address",
          "name": "",
          "type": "address"
        }
      ],
      "stateMutability": "view",
      "type": "function"
    },
    {
      "inputs": [
        {
          "internalType": "address",
          "name": "",
          "type": "address"
        },
        {
          "internalType": "address",
          "name": "",
          "type": "address"
        }
      ],
      "name": "masterAddresses",
      "outputs": [
        {
          "internalType": "bool",
          "name": "",
          "type": "bool"
        }
      ],
      "stateMutability": "view",
      "type": "function"
    },
    {
      "inputs": [],
      "name": "owner",
      "outputs": [
        {
          "internalType": "address",
          "name": "",
          "type": "address"
        }
      ],
      "stateMutability": "view",
      "type": "function"
    },
    {
      "inputs": [
        {
          "internalType": "address",
          "name": "_masterAddress",
          "type": "address"
        },
        {
          "internalType": "bool",
          "name": "_isMasterLinked",
          "type": "bool"
        }
      ],
      "name": "registerMasterAddress",
      "outputs": [],
      "stateMutability": "nonpayable",
      "type": "function"
    },
    {
      "inputs": [
        {
          "internalType": "address",
          "name": "_verifier",
          "type": "address"
        }
      ],
      "name": "removeVerifier",
      "outputs": [],
      "stateMutability": "nonpayable",
      "type": "function"
    },
    {
      "inputs": [],
      "name": "renounceOwnership",
      "outputs": [],
      "stateMutability": "nonpayable",
      "type": "function"
    },
    {
      "inputs": [
        {
          "internalType": "address",
          "name": "newOwner",
          "type": "address"
        }
      ],
      "name": "transferOwnership",
      "outputs": [],
      "stateMutability": "nonpayable",
      "type": "function"
    },
    {
      "inputs": [
        {
          "internalType": "address",
          "name": "_linkedAddress",
          "type": "address"
        }
      ],
      "name": "unlinkAddress",
      "outputs": [],
      "stateMutability": "nonpayable",
      "type": "function"
    },
    {
      "inputs": [
        {
          "internalType": "address",
          "name": "_masterAddress",
          "type": "address"
        },
        {
          "internalType": "address",
          "name": "_verifier",
          "type": "address"
        }
      ],
      "name": "unregisterMasterAddress",
      "outputs": [],
      "stateMutability": "nonpayable",
      "type": "function"
    },
    {
      "inputs": [
        {
          "internalType": "address",
          "name": "",
          "type": "address"
        }
      ],
      "name": "verifiers",
      "outputs": [
        {
          "internalType": "bool",
          "name": "",
          "type": "bool"
        }
      ],
      "stateMutability": "view",
      "type": "function"
    }
  ],
  "bytecode": "0x608060405234801561001057600080fd5b50611433806100206000396000f3fe608060405234801561001057600080fd5b50600436106100ea5760003560e01c8063a21dae471161008c578063b59284ac11610066578063b59284ac146102cb578063c4d66de8146102f1578063ca2dfd0a14610317578063f2fde38b1461033d576100ea565b8063a21dae4714610249578063a94413a11461026f578063b4d59d0e1461029d576100ea565b8063715018a6116100c8578063715018a6146101c95780638da5cb5b146101d15780639000b3d6146101f55780639a5f0e3f1461021b576100ea565b806302d43dc8146100ef57806308d04d4f146101315780636c824487146101a3575b600080fd5b61011d6004803603604081101561010557600080fd5b506001600160a01b0381358116916020013516610363565b604080519115158252519081900360200190f35b6101a16004803603602081101561014757600080fd5b81019060208101813564010000000081111561016257600080fd5b82018360208201111561017457600080fd5b8035906020019184600183028401116401000000008311171561019657600080fd5b5090925090506103ce565b005b61011d600480360360208110156101b957600080fd5b50356001600160a01b031661058b565b6101a16105a0565b6101d961064c565b604080516001600160a01b039092168252519081900360200190f35b6101a16004803603602081101561020b57600080fd5b50356001600160a01b031661065b565b61011d6004803603604081101561023157600080fd5b506001600160a01b03813581169160200135166107d8565b6101d96004803603602081101561025f57600080fd5b50356001600160a01b03166107f8565b6101a16004803603604081101561028557600080fd5b506001600160a01b0381351690602001351515610813565b6101a1600480360360408110156102b357600080fd5b506001600160a01b038135811691602001351661098e565b6101a1600480360360208110156102e157600080fd5b50356001600160a01b0316610aa3565b6101a16004803603602081101561030757600080fd5b50356001600160a01b0316610bd8565b6101a16004803603602081101561032d57600080fd5b50356001600160a01b0316610c8c565b6101a16004803603602081101561035357600080fd5b50356001600160a01b0316610db3565b6001600160a01b038083166000908152606760205260408120549091168015806103b357506001600160a01b0380821660009081526066602090815260408083209387168352929052205460ff16155b156103c25760009150506103c8565b60019150505b92915050565b336000908152606760205260409020546001600160a01b031615610439576040805162461bcd60e51b815260206004820152601b60248201527f563a4c412d4164647265737320616c7265616479206c696e6b65640000000000604482015290519081900360640190fd5b60606040518060600160405280602f81526020016113cf602f9139336040516020018083805190602001908083835b602083106104875780518252601f199092019160209182019101610468565b51815160209384036101000a600019018019909216911617905260609590951b6bffffffffffffffffffffffff191692019182525060408051808303600b1901815260148301808352815182870120601f8a018790049096028401603490810190935288815290965093945060009361051e93508592909189918991829101838280828437600092019190915250610eb692505050565b3360008181526067602090815260409182902080546001600160a01b0319166001600160a01b03861690811790915582519384529083015280519293507fd0c463b5556d4e3cbc5da50aa6699931a1aa6dffff326e151189a8e15449556692918290030190a15050505050565b60656020526000908152604090205460ff1681565b6105a8610f36565b6001600160a01b03166105b961064c565b6001600160a01b031614610602576040805162461bcd60e51b815260206004820181905260248201526000805160206113af833981519152604482015290519081900360640190fd5b6033546040516000916001600160a01b0316907f8be0079c531659141344cd1fd0a4f28419497f9722a3daafe3b4186f6b6457e0908390a3603380546001600160a01b0319169055565b6033546001600160a01b031690565b610663610f36565b6001600160a01b031661067461064c565b6001600160a01b0316146106bd576040805162461bcd60e51b815260206004820181905260248201526000805160206113af833981519152604482015290519081900360640190fd5b6001600160a01b038116610718576040805162461bcd60e51b815260206004820152601f60248201527f563a41562d56657269666965722063616e742062652030206164647265737300604482015290519081900360640190fd5b6001600160a01b03811660009081526065602052604090205460ff161561077d576040805162461bcd60e51b8152602060048201526014602482015273563a41562d56657269666965722065786973747360601b604482015290519081900360640190fd5b6001600160a01b038116600081815260656020908152604091829020805460ff19166001179055815192835290517f6d05492139c5ea989514a5d2150c028041e5c087e2a39967f67dc7d2655adb819281900390910190a150565b606660209081526000928352604080842090915290825290205460ff1681565b6067602052600090815260409020546001600160a01b031681565b3360009081526065602052604090205460ff1661086a576040805162461bcd60e51b815260206004820152601060248201526f24b73b30b634b2103b32b934b334b2b960811b604482015290519081900360640190fd5b6001600160a01b038216600090815260666020908152604080832033845290915290205460ff16156108e3576040805162461bcd60e51b815260206004820152601860248201527f563a524d412d416c726561647920726567697374657265640000000000000000604482015290519081900360640190fd5b6001600160a01b03821660009081526066602090815260408083203384529091529020805460ff191660011790558015610941576001600160a01b038216600081815260676020526040902080546001600160a01b03191690911790555b604080516001600160a01b03841681523360208201528215158183015290517f859d113797d39f050d937c356ae6c65cef56740d5748fdbe2766c43aab2f54389181900360600190a15050565b61099661064c565b6001600160a01b0316336001600160a01b031614610a32576001600160a01b038216600090815260666020908152604080832033845290915290205460ff16806109e85750336001600160a01b038216145b610a32576040805162461bcd60e51b81526020600482015260166024820152752b1d2aa6a096a4b73b30b634b2103b32b934b334b2b960511b604482015290519081900360640190fd5b6001600160a01b03808316600081815260666020908152604080832094861680845294825291829020805460ff191690558151928352820192909252338183015290517f5eafa2f9e2a450ef3572e53b30967abce55adc77273307c9a17059eb0084614d9181900360600190a15050565b6001600160a01b038082166000908152606760205260409020541680610b10576040805162461bcd60e51b815260206004820152601760248201527f563a55412d41646472657373206e6f74206c696e6b6564000000000000000000604482015290519081900360640190fd5b6001600160a01b0381163314610b6d576040805162461bcd60e51b815260206004820152601960248201527f563a55412d4e6f74206c696e6b656420746f2073656e64657200000000000000604482015290519081900360640190fd5b6001600160a01b0380831660008181526067602090815260409182902080546001600160a01b031916905581519283529284169282019290925281517ff05e36c1ca443662674a6f5123293683bd2a280d5d9c48adee27cb950e1a8aaf929181900390910190a15050565b600054610100900460ff1680610bf15750610bf1610f3a565b80610bff575060005460ff16155b610c3a5760405162461bcd60e51b815260040180806020018281038252602e81526020018061135f602e913960400191505060405180910390fd5b600054610100900460ff16158015610c65576000805460ff1961ff0019909116610100171660011790555b610c6d610f4b565b610c7682610db3565b8015610c88576000805461ff00191690555b5050565b610c94610f36565b6001600160a01b0316610ca561064c565b6001600160a01b031614610cee576040805162461bcd60e51b815260206004820181905260248201526000805160206113af833981519152604482015290519081900360640190fd5b6001600160a01b03811660009081526065602052604090205460ff16610d5b576040805162461bcd60e51b815260206004820152601a60248201527f563a41562d566572696669657220646f65736e74206578697374000000000000604482015290519081900360640190fd5b6001600160a01b038116600081815260656020908152604091829020805460ff19169055815192835290517f44a3cd4eb5cc5748f6169df057b1cb2ae4c383e87cd94663c430e095d4cba4249281900390910190a150565b610dbb610f36565b6001600160a01b0316610dcc61064c565b6001600160a01b031614610e15576040805162461bcd60e51b815260206004820181905260248201526000805160206113af833981519152604482015290519081900360640190fd5b6001600160a01b038116610e5a5760405162461bcd60e51b81526004018080602001828103825260268152602001806113176026913960400191505060405180910390fd5b6033546040516001600160a01b038084169216907f8be0079c531659141344cd1fd0a4f28419497f9722a3daafe3b4186f6b6457e090600090a3603380546001600160a01b0319166001600160a01b0392909216919091179055565b60008151604114610f0e576040805162461bcd60e51b815260206004820152601f60248201527f45434453413a20696e76616c6964207369676e6174757265206c656e67746800604482015290519081900360640190fd5b60208201516040830151606084015160001a610f2c86828585610ffd565b9695505050505050565b3390565b6000610f4530611177565b15905090565b600054610100900460ff1680610f645750610f64610f3a565b80610f72575060005460ff16155b610fad5760405162461bcd60e51b815260040180806020018281038252602e81526020018061135f602e913960400191505060405180910390fd5b600054610100900460ff16158015610fd8576000805460ff1961ff0019909116610100171660011790555b610fe061117d565b610fe861121d565b8015610ffa576000805461ff00191690555b50565b60007f7fffffffffffffffffffffffffffffff5d576e7357a4501ddfe92f46681b20a082111561105e5760405162461bcd60e51b815260040180806020018281038252602281526020018061133d6022913960400191505060405180910390fd5b8360ff16601b148061107357508360ff16601c145b6110ae5760405162461bcd60e51b815260040180806020018281038252602281526020018061138d6022913960400191505060405180910390fd5b604080516000808252602080830180855289905260ff88168385015260608301879052608083018690529251909260019260a080820193601f1981019281900390910190855afa158015611106573d6000803e3d6000fd5b5050604051601f1901519150506001600160a01b03811661116e576040805162461bcd60e51b815260206004820152601860248201527f45434453413a20696e76616c6964207369676e61747572650000000000000000604482015290519081900360640190fd5b95945050505050565b3b151590565b600054610100900460ff16806111965750611196610f3a565b806111a4575060005460ff16155b6111df5760405162461bcd60e51b815260040180806020018281038252602e81526020018061135f602e913960400191505060405180910390fd5b600054610100900460ff16158015610fe8576000805460ff1961ff0019909116610100171660011790558015610ffa576000805461ff001916905550565b600054610100900460ff16806112365750611236610f3a565b80611244575060005460ff16155b61127f5760405162461bcd60e51b815260040180806020018281038252602e81526020018061135f602e913960400191505060405180910390fd5b600054610100900460ff161580156112aa576000805460ff1961ff0019909116610100171660011790555b60006112b4610f36565b603380546001600160a01b0319166001600160a01b038316908117909155604051919250906000907f8be0079c531659141344cd1fd0a4f28419497f9722a3daafe3b4186f6b6457e0908290a3508015610ffa576000805461ff00191690555056fe4f776e61626c653a206e6577206f776e657220697320746865207a65726f206164647265737345434453413a20696e76616c6964207369676e6174757265202773272076616c7565496e697469616c697a61626c653a20636f6e747261637420697320616c726561647920696e697469616c697a656445434453413a20696e76616c6964207369676e6174757265202776272076616c75654f776e61626c653a2063616c6c6572206973206e6f7420746865206f776e6572415050524f56494e47204144445245535320544f204245204c494e4b454420544f204d45204f4e205355424c494d45a26469706673582212204d242647036408897b3f78baadb304b1235e20ccec3912051f091055ff9539fd64736f6c63430006070033",
  "linkReferences": {},
  "deployedLinkReferences": {}
}