{
  "_format": "hh-sol-artifact-1",
  "contractName": "NFTRent",
  "sourceName": "contracts/NFTRent.sol",
  "abi": [
    {
      "anonymous": false,
      "inputs": [
        {
          "indexed": false,
          "internalType": "address",
          "name": "_borrower",
          "type": "address"
        }
      ],
      "name": "BorrowerVerified",
      "type": "event"
    },
    {
      "anonymous": false,
      "inputs": [
        {
          "indexed": false,
          "internalType": "address",
          "name": "_rentNft",
          "type": "address"
        },
        {
          "indexed": false,
          "internalType": "uint256",
          "name": "_nftId",
          "type": "uint256"
        }
      ],
      "name": "LendingStopped",
      "type": "event"
    },
    {
      "anonymous": false,
      "inputs": [
        {
          "indexed": true,
          "internalType": "address",
          "name": "previousOwner",
          "type": "address"
        },
        {
          "indexed": true,
          "internalType": "address",
          "name": "newOwner",
          "type": "address"
        }
      ],
      "name": "OwnershipTransferred",
      "type": "event"
    },
    {
      "anonymous": false,
      "inputs": [
        {
          "indexed": false,
          "internalType": "address",
          "name": "NFTRent",
          "type": "address"
        },
        {
          "indexed": false,
          "internalType": "uint256",
          "name": "DailyRentPrice",
          "type": "uint256"
        }
      ],
      "name": "QuoteAccepted",
      "type": "event"
    },
    {
      "anonymous": false,
      "inputs": [
        {
          "indexed": false,
          "internalType": "address",
          "name": "_rentNft",
          "type": "address"
        },
        {
          "indexed": false,
          "internalType": "uint256",
          "name": "_NftId",
          "type": "uint256"
        },
        {
          "indexed": false,
          "internalType": "uint256",
          "name": "_dailyRentPrice",
          "type": "uint256"
        },
        {
          "indexed": false,
          "internalType": "uint256",
          "name": "_repayInterval",
          "type": "uint256"
        },
        {
          "indexed": false,
          "internalType": "uint256",
          "name": "_collateralAmount",
          "type": "uint256"
        }
      ],
      "name": "QuoteProvided",
      "type": "event"
    },
    {
      "anonymous": false,
      "inputs": [
        {
          "indexed": false,
          "internalType": "address",
          "name": "NFTRent",
          "type": "address"
        },
        {
          "indexed": false,
          "internalType": "uint256",
          "name": "DailyRentPrice",
          "type": "uint256"
        }
      ],
      "name": "QuoteRejected",
      "type": "event"
    },
    {
      "anonymous": false,
      "inputs": [
        {
          "indexed": false,
          "internalType": "string",
          "name": "_name",
          "type": "string"
        },
        {
          "indexed": false,
          "internalType": "address",
          "name": "_rentNft",
          "type": "address"
        },
        {
          "indexed": false,
          "internalType": "uint256",
          "name": "_nftId",
          "type": "uint256"
        },
        {
          "indexed": false,
          "internalType": "address",
          "name": "_collateralAsset",
          "type": "address"
        },
        {
          "indexed": false,
          "internalType": "uint256",
          "name": "_rentDuration",
          "type": "uint256"
        },
        {
          "indexed": false,
          "internalType": "uint256",
          "name": "_dailyRentalPrice",
          "type": "uint256"
        },
        {
          "indexed": false,
          "internalType": "uint256",
          "name": "_collateralAmount",
          "type": "uint256"
        }
      ],
      "name": "QuoteReleased",
      "type": "event"
    },
    {
      "anonymous": false,
      "inputs": [
        {
          "indexed": false,
          "internalType": "string",
          "name": "_name",
          "type": "string"
        },
        {
          "indexed": false,
          "internalType": "address",
          "name": "_rentNft",
          "type": "address"
        },
        {
          "indexed": false,
          "internalType": "uint256",
          "name": "_nftId",
          "type": "uint256"
        },
        {
          "indexed": false,
          "internalType": "address",
          "name": "_collateralAsset",
          "type": "address"
        },
        {
          "indexed": false,
          "internalType": "uint256",
          "name": "_rentDuration",
          "type": "uint256"
        }
      ],
      "name": "QuoteRequested",
      "type": "event"
    },
    {
      "anonymous": false,
      "inputs": [
        {
          "indexed": false,
          "internalType": "address",
          "name": "NFTRent",
          "type": "address"
        },
        {
          "indexed": false,
          "internalType": "bytes32",
          "name": "NFTRentHash",
          "type": "bytes32"
        },
        {
          "indexed": false,
          "internalType": "enum NFTRentStorage.NFTRentLineStatus",
          "name": "currentStatus",
          "type": "uint8"
        }
      ],
      "name": "RentActive",
      "type": "event"
    },
    {
      "anonymous": false,
      "inputs": [
        {
          "indexed": false,
          "internalType": "address",
          "name": "NFTRent",
          "type": "address"
        },
        {
          "indexed": false,
          "internalType": "bytes32",
          "name": "NFTRentHash",
          "type": "bytes32"
        },
        {
          "indexed": false,
          "internalType": "enum NFTRentStorage.NFTRentLineStatus",
          "name": "currentStatus",
          "type": "uint8"
        }
      ],
      "name": "RentCancelled",
      "type": "event"
    },
    {
      "anonymous": false,
      "inputs": [
        {
          "indexed": false,
          "internalType": "address",
          "name": "NFTRent",
          "type": "address"
        },
        {
          "indexed": false,
          "internalType": "bytes32",
          "name": "NFTRentHash",
          "type": "bytes32"
        },
        {
          "indexed": false,
          "internalType": "enum NFTRentStorage.NFTRentLineStatus",
          "name": "currentStatus",
          "type": "uint8"
        }
      ],
      "name": "RentClosed",
      "type": "event"
    },
    {
      "anonymous": false,
      "inputs": [
        {
          "indexed": false,
          "internalType": "address",
          "name": "NFTRent",
          "type": "address"
        },
        {
          "indexed": false,
          "internalType": "bytes32",
          "name": "NFTRentHash",
          "type": "bytes32"
        },
        {
          "indexed": false,
          "internalType": "enum NFTRentStorage.NFTRentLineStatus",
          "name": "currentStatus",
          "type": "uint8"
        }
      ],
      "name": "RentDefaulted",
      "type": "event"
    },
    {
      "anonymous": false,
      "inputs": [
        {
          "indexed": false,
          "internalType": "address",
          "name": "NFTRent",
          "type": "address"
        },
        {
          "indexed": false,
          "internalType": "bytes32",
          "name": "NFTRentHash",
          "type": "bytes32"
        },
        {
          "indexed": false,
          "internalType": "enum NFTRentStorage.NFTRentLineStatus",
          "name": "currentStatus",
          "type": "uint8"
        }
      ],
      "name": "RentRequested",
      "type": "event"
    },
    {
      "anonymous": false,
      "inputs": [
        {
          "indexed": false,
          "internalType": "address",
          "name": "_rentNft",
          "type": "address"
        },
        {
          "indexed": false,
          "internalType": "uint256",
          "name": "repaymentsLeft",
          "type": "uint256"
        }
      ],
      "name": "Repaid",
      "type": "event"
    },
    {
      "anonymous": false,
      "inputs": [
        {
          "indexed": false,
          "internalType": "address",
          "name": "verifier",
          "type": "address"
        },
        {
          "indexed": false,
          "internalType": "string",
          "name": "metadata",
          "type": "string"
        }
      ],
      "name": "VerifierAdded",
      "type": "event"
    },
    {
      "anonymous": false,
      "inputs": [
        {
          "indexed": false,
          "internalType": "address",
          "name": "verifier",
          "type": "address"
        }
      ],
      "name": "VerifierRemoved",
      "type": "event"
    },
    {
      "inputs": [
        {
          "internalType": "address",
          "name": "_rentNft",
          "type": "address"
        },
        {
          "internalType": "uint256",
          "name": "_nftId",
          "type": "uint256"
        }
      ],
      "name": "AcceptQuote",
      "outputs": [],
      "stateMutability": "nonpayable",
      "type": "function"
    },
    {
      "inputs": [
        {
          "internalType": "address",
          "name": "_rentNft",
          "type": "address"
        },
        {
          "internalType": "uint256",
          "name": "_nftId",
          "type": "uint256"
        }
      ],
      "name": "ClaimCollateral",
      "outputs": [],
      "stateMutability": "nonpayable",
      "type": "function"
    },
    {
      "inputs": [
        {
          "internalType": "address",
          "name": "_rentNft",
          "type": "address"
        },
        {
          "internalType": "uint256",
          "name": "_nftId",
          "type": "uint256"
        }
      ],
      "name": "ClaimStake",
      "outputs": [],
      "stateMutability": "nonpayable",
      "type": "function"
    },
    {
      "inputs": [
        {
          "internalType": "address",
          "name": "_rentNft",
          "type": "address"
        },
        {
          "internalType": "uint256",
          "name": "_nftId",
          "type": "uint256"
        },
        {
          "internalType": "uint256",
          "name": "_rentDuration",
          "type": "uint256"
        },
        {
          "internalType": "address",
          "name": "_collateralAsset",
          "type": "address"
        },
        {
          "internalType": "uint256",
          "name": "_dailyRentalPrice",
          "type": "uint256"
        },
        {
          "internalType": "uint256",
          "name": "_repayInterval",
          "type": "uint256"
        },
        {
          "internalType": "uint256",
          "name": "_collateralAmount",
          "type": "uint256"
        }
      ],
      "name": "CustomQuote",
      "outputs": [],
      "stateMutability": "nonpayable",
      "type": "function"
    },
    {
      "inputs": [
        {
          "internalType": "address",
          "name": "_rentNft",
          "type": "address"
        },
        {
          "internalType": "uint256",
          "name": "_nftId",
          "type": "uint256"
        }
      ],
      "name": "GetStakeBack",
      "outputs": [],
      "stateMutability": "nonpayable",
      "type": "function"
    },
    {
      "inputs": [],
      "name": "NFTRentLineCounter",
      "outputs": [
        {
          "internalType": "uint256",
          "name": "",
          "type": "uint256"
        }
      ],
      "stateMutability": "view",
      "type": "function"
    },
    {
      "inputs": [
        {
          "internalType": "bytes32",
          "name": "",
          "type": "bytes32"
        }
      ],
      "name": "NFTRentLineInfo",
      "outputs": [
        {
          "internalType": "bool",
          "name": "exists",
          "type": "bool"
        },
        {
          "internalType": "address",
          "name": "lender",
          "type": "address"
        },
        {
          "internalType": "address",
          "name": "borrower",
          "type": "address"
        },
        {
          "internalType": "uint256",
          "name": "rentalPrice",
          "type": "uint256"
        },
        {
          "internalType": "address",
          "name": "NftAsset",
          "type": "address"
        },
        {
          "internalType": "uint256",
          "name": "NftId",
          "type": "uint256"
        },
        {
          "internalType": "address",
          "name": "collateralAsset",
          "type": "address"
        },
        {
          "internalType": "enum NFTRentStorage.NFTRentLineStatus",
          "name": "currentStatus",
          "type": "uint8"
        }
      ],
      "stateMutability": "view",
      "type": "function"
    },
    {
      "inputs": [
        {
          "internalType": "bytes32",
          "name": "",
          "type": "bytes32"
        }
      ],
      "name": "NFTRentLineUsage",
      "outputs": [
        {
          "internalType": "uint256",
          "name": "repayments",
          "type": "uint256"
        },
        {
          "internalType": "uint256",
          "name": "withdrawInterval",
          "type": "uint256"
        },
        {
          "internalType": "uint256",
          "name": "repaymentInterval",
          "type": "uint256"
        },
        {
          "internalType": "uint256",
          "name": "repaymentsCompleted",
          "type": "uint256"
        },
        {
          "internalType": "uint256",
          "name": "_rentalPrice",
          "type": "uint256"
        },
        {
          "internalType": "uint256",
          "name": "loanStartTime",
          "type": "uint256"
        },
        {
          "internalType": "uint256",
          "name": "lastRepaymentTime",
          "type": "uint256"
        }
      ],
      "stateMutability": "view",
      "type": "function"
    },
    {
      "inputs": [
        {
          "internalType": "address",
          "name": "",
          "type": "address"
        },
        {
          "internalType": "uint256",
          "name": "",
          "type": "uint256"
        }
      ],
      "name": "NFTtoHash",
      "outputs": [
        {
          "internalType": "bytes32",
          "name": "",
          "type": "bytes32"
        }
      ],
      "stateMutability": "view",
      "type": "function"
    },
    {
      "inputs": [
        {
          "internalType": "address",
          "name": "_rentNft",
          "type": "address"
        },
        {
          "internalType": "uint256",
          "name": "_nftId",
          "type": "uint256"
        },
        {
          "internalType": "uint256",
          "name": "_dailyRentalPrice",
          "type": "uint256"
        },
        {
          "internalType": "uint256",
          "name": "_collateralAmount",
          "type": "uint256"
        }
      ],
      "name": "RejectQuote",
      "outputs": [],
      "stateMutability": "nonpayable",
      "type": "function"
    },
    {
      "inputs": [
        {
          "internalType": "address",
          "name": "_rentNft",
          "type": "address"
        },
        {
          "internalType": "uint256",
          "name": "_nftId",
          "type": "uint256"
        }
      ],
      "name": "Rent",
      "outputs": [],
      "stateMutability": "payable",
      "type": "function"
    },
    {
      "inputs": [
        {
          "internalType": "address",
          "name": "_rentNft",
          "type": "address"
        },
        {
          "internalType": "uint256",
          "name": "_nftId",
          "type": "uint256"
        }
      ],
      "name": "SendNft",
      "outputs": [],
      "stateMutability": "payable",
      "type": "function"
    },
    {
      "inputs": [
        {
          "internalType": "address",
          "name": "_rentNft",
          "type": "address"
        },
        {
          "internalType": "uint256",
          "name": "_nftId",
          "type": "uint256"
        },
        {
          "internalType": "uint256",
          "name": "_amount",
          "type": "uint256"
        }
      ],
      "name": "Stake",
      "outputs": [],
      "stateMutability": "payable",
      "type": "function"
    },
    {
      "inputs": [
        {
          "internalType": "address",
          "name": "",
          "type": "address"
        }
      ],
      "name": "VerifiedBorrowers",
      "outputs": [
        {
          "internalType": "bool",
          "name": "",
          "type": "bool"
        }
      ],
      "stateMutability": "view",
      "type": "function"
    },
    {
      "inputs": [
        {
          "internalType": "address",
          "name": "_verifier",
          "type": "address"
        },
        {
          "internalType": "string",
          "name": "_metadata",
          "type": "string"
        }
      ],
      "name": "addExpert",
      "outputs": [],
      "stateMutability": "nonpayable",
      "type": "function"
    },
    {
      "inputs": [
        {
          "internalType": "address",
          "name": "_rentNft",
          "type": "address"
        },
        {
          "internalType": "uint256",
          "name": "_nftId",
          "type": "uint256"
        }
      ],
      "name": "claimDeposit",
      "outputs": [],
      "stateMutability": "nonpayable",
      "type": "function"
    },
    {
      "inputs": [
        {
          "internalType": "address",
          "name": "",
          "type": "address"
        }
      ],
      "name": "expertData",
      "outputs": [
        {
          "internalType": "string",
          "name": "",
          "type": "string"
        }
      ],
      "stateMutability": "view",
      "type": "function"
    },
    {
      "inputs": [],
      "name": "expertFee",
      "outputs": [
        {
          "internalType": "uint256",
          "name": "",
          "type": "uint256"
        }
      ],
      "stateMutability": "view",
      "type": "function"
    },
    {
      "inputs": [],
      "name": "expertStake",
      "outputs": [
        {
          "internalType": "uint256",
          "name": "",
          "type": "uint256"
        }
      ],
      "stateMutability": "view",
      "type": "function"
    },
    {
      "inputs": [],
      "name": "feeFraction",
      "outputs": [
        {
          "internalType": "uint256",
          "name": "",
          "type": "uint256"
        }
      ],
      "stateMutability": "view",
      "type": "function"
    },
    {
      "inputs": [
        {
          "internalType": "address",
          "name": "_admin",
          "type": "address"
        },
        {
          "internalType": "address",
          "name": "_verification",
          "type": "address"
        }
      ],
      "name": "initialize",
      "outputs": [],
      "stateMutability": "nonpayable",
      "type": "function"
    },
    {
      "inputs": [],
      "name": "liquidation",
      "outputs": [
        {
          "internalType": "uint256",
          "name": "",
          "type": "uint256"
        }
      ],
      "stateMutability": "view",
      "type": "function"
    },
    {
      "inputs": [],
      "name": "liquidationThreshold",
      "outputs": [
        {
          "internalType": "uint256",
          "name": "",
          "type": "uint256"
        }
      ],
      "stateMutability": "view",
      "type": "function"
    },
    {
      "inputs": [],
      "name": "owner",
      "outputs": [
        {
          "internalType": "address",
          "name": "",
          "type": "address"
        }
      ],
      "stateMutability": "view",
      "type": "function"
    },
    {
      "inputs": [
        {
          "internalType": "address",
          "name": "_rentNft",
          "type": "address"
        },
        {
          "internalType": "uint256",
          "name": "_nftId",
          "type": "uint256"
        },
        {
          "internalType": "uint256",
          "name": "_dailyRentPrice",
          "type": "uint256"
        },
        {
          "internalType": "uint256",
          "name": "_collateralAmount",
          "type": "uint256"
        },
        {
          "internalType": "uint256",
          "name": "_repayInterval",
          "type": "uint256"
        },
        {
          "internalType": "bool",
          "name": "_toescrow",
          "type": "bool"
        },
        {
          "internalType": "bool",
          "name": "_towallet",
          "type": "bool"
        }
      ],
      "name": "provideQuote",
      "outputs": [],
      "stateMutability": "nonpayable",
      "type": "function"
    },
    {
      "inputs": [
        {
          "internalType": "address",
          "name": "",
          "type": "address"
        },
        {
          "internalType": "uint256",
          "name": "",
          "type": "uint256"
        }
      ],
      "name": "quoteVarsInfo",
      "outputs": [
        {
          "internalType": "address",
          "name": "NFTRent",
          "type": "address"
        },
        {
          "internalType": "uint256",
          "name": "NFTId",
          "type": "uint256"
        },
        {
          "internalType": "address",
          "name": "NFTOwner",
          "type": "address"
        },
        {
          "internalType": "uint256",
          "name": "maxRentalDuration",
          "type": "uint256"
        },
        {
          "internalType": "uint256",
          "name": "dailyRentalPrice",
          "type": "uint256"
        },
        {
          "internalType": "uint256",
          "name": "repayInterval",
          "type": "uint256"
        },
        {
          "internalType": "address",
          "name": "collateralAsset",
          "type": "address"
        },
        {
          "internalType": "uint256",
          "name": "collateralAmount",
          "type": "uint256"
        },
        {
          "internalType": "address",
          "name": "expert",
          "type": "address"
        },
        {
          "internalType": "bool",
          "name": "verified",
          "type": "bool"
        },
        {
          "internalType": "enum NFTRentStorage.QuoteStatus",
          "name": "quoteStatus",
          "type": "uint8"
        },
        {
          "internalType": "bool",
          "name": "Toescrow",
          "type": "bool"
        },
        {
          "internalType": "bool",
          "name": "Towallet",
          "type": "bool"
        }
      ],
      "stateMutability": "view",
      "type": "function"
    },
    {
      "inputs": [
        {
          "internalType": "address",
          "name": "",
          "type": "address"
        },
        {
          "internalType": "uint256",
          "name": "",
          "type": "uint256"
        }
      ],
      "name": "quotes",
      "outputs": [
        {
          "internalType": "bool",
          "name": "",
          "type": "bool"
        }
      ],
      "stateMutability": "view",
      "type": "function"
    },
    {
      "inputs": [
        {
          "internalType": "address",
          "name": "_verifier",
          "type": "address"
        }
      ],
      "name": "removeExpert",
      "outputs": [],
      "stateMutability": "nonpayable",
      "type": "function"
    },
    {
      "inputs": [],
      "name": "renounceOwnership",
      "outputs": [],
      "stateMutability": "nonpayable",
      "type": "function"
    },
    {
      "inputs": [
        {
          "internalType": "address",
          "name": "_rentNft",
          "type": "address"
        },
        {
          "internalType": "uint256",
          "name": "_nftId",
          "type": "uint256"
        },
        {
          "internalType": "uint256",
          "name": "_amount",
          "type": "uint256"
        }
      ],
      "name": "repayInterest",
      "outputs": [],
      "stateMutability": "payable",
      "type": "function"
    },
    {
      "inputs": [
        {
          "internalType": "address",
          "name": "_rentNft",
          "type": "address"
        },
        {
          "internalType": "uint256",
          "name": "_nftId",
          "type": "uint256"
        },
        {
          "internalType": "uint256",
          "name": "_rentDuration",
          "type": "uint256"
        },
        {
          "internalType": "address",
          "name": "_collateralAsset",
          "type": "address"
        }
      ],
      "name": "requestQuote",
      "outputs": [],
      "stateMutability": "nonpayable",
      "type": "function"
    },
    {
      "inputs": [],
      "name": "stakeFraction",
      "outputs": [
        {
          "internalType": "uint256",
          "name": "",
          "type": "uint256"
        }
      ],
      "stateMutability": "view",
      "type": "function"
    },
    {
      "inputs": [
        {
          "internalType": "address",
          "name": "_rentNft",
          "type": "address"
        },
        {
          "internalType": "uint256",
          "name": "_nftId",
          "type": "uint256"
        }
      ],
      "name": "stopLending",
      "outputs": [],
      "stateMutability": "nonpayable",
      "type": "function"
    },
    {
      "inputs": [
        {
          "internalType": "address",
          "name": "newOwner",
          "type": "address"
        }
      ],
      "name": "transferOwnership",
      "outputs": [],
      "stateMutability": "nonpayable",
      "type": "function"
    },
    {
      "inputs": [],
      "name": "verification",
      "outputs": [
        {
          "internalType": "contract IVerification",
          "name": "",
          "type": "address"
        }
      ],
      "stateMutability": "view",
      "type": "function"
    },
    {
      "inputs": [
        {
          "internalType": "address",
          "name": "_borrower",
          "type": "address"
        }
      ],
      "name": "verifyBorrower",
      "outputs": [],
      "stateMutability": "nonpayable",
      "type": "function"
    },
    {
      "inputs": [],
      "name": "yearInSeconds",
      "outputs": [
        {
          "internalType": "uint256",
          "name": "",
          "type": "uint256"
        }
      ],
      "stateMutability": "view",
      "type": "function"
    }
  ],
  "bytecode": "0x6080604052600a606655603260675560146068556200003b6b204fce5e3e25026110000000606654620000a960201b620034421790919060201c565b606955620000666b204fce5e3e25026110000000606754620000a960201b620034421790919060201c565b606a55620000926c0c9f2c9cd04674edea40000000606854620000a960201b620034421790919060201c565b606b55348015620000a257600080fd5b5062000110565b600082620000ba575060006200010a565b82820282848281620000c857fe5b0414620001075760405162461bcd60e51b8152600401808060200182810382526021815260200180620044ec6021913960400191505060405180910390fd5b90505b92915050565b6143cc80620001206000396000f3fe60806040526004361061021a5760003560e01c8063715018a611610123578063b2db2f51116100ab578063e99fb9ac1161006f578063e99fb9ac146109ae578063eeb6f23314610a10578063f27c292e14610ab8578063f2dfbf6614610afd578063f2fde38b14610b125761021a565b8063b2db2f5114610759578063c2297c271461085a578063cd1351d5146108b5578063cf338821146108e8578063d802a6fd146109755761021a565b80638da5cb5b116100f25780638da5cb5b14610670578063a1bfe1ba14610685578063a28b800e146106be578063a418cac6146106f7578063a8f05101146107445761021a565b8063715018a6146105665780637957836e1461057b5780638440f1c5146105ae57806389a01265146105da5761021a565b80634059d596116101a65780635af41713116101755780635af41713146104985780635bf8eddd146104ca5780635cfd95a0146104df578063676d405e146105185780636d30cccb146105515761021a565b80634059d596146103eb578063485cc955146104005780634ffe2a8b1461043b57806357a7e13d1461046c5761021a565b80632b64f838116101ed5780632b64f838146103155780632c26bac71461032a5780632f59a5ce146103715780633a19deb0146103a45780634031234c146103d65761021a565b80630d7b4b3d1461021f5780631299c2a71461025a578063157fac8f146102b55780632893c27e146102ee575b600080fd5b34801561022b57600080fd5b506102586004803603604081101561024257600080fd5b506001600160a01b038135169060200135610b45565b005b34801561026657600080fd5b50610258600480360360e081101561027d57600080fd5b506001600160a01b038135169060208101359060408101359060608101359060808101359060a081013515159060c001351515610b9b565b3480156102c157600080fd5b50610258600480360360408110156102d857600080fd5b506001600160a01b038135169060200135610e67565b3480156102fa57600080fd5b50610303611065565b60408051918252519081900360200190f35b34801561032157600080fd5b5061030361106b565b34801561033657600080fd5b506102586004803603608081101561034d57600080fd5b506001600160a01b0381358116916020810135916040820135916060013516611071565b34801561037d57600080fd5b506102586004803603602081101561039457600080fd5b50356001600160a01b03166113ca565b610258600480360360608110156103ba57600080fd5b506001600160a01b038135169060208101359060400135611560565b3480156103e257600080fd5b5061030361191e565b3480156103f757600080fd5b50610303611924565b34801561040c57600080fd5b506102586004803603604081101561042357600080fd5b506001600160a01b038135811691602001351661192c565b34801561044757600080fd5b506104506119fc565b604080516001600160a01b039092168252519081900360200190f35b6102586004803603604081101561048257600080fd5b506001600160a01b038135169060200135611a0b565b610258600480360360608110156104ae57600080fd5b506001600160a01b038135169060208101359060400135611a7f565b3480156104d657600080fd5b50610303611cb0565b3480156104eb57600080fd5b506102586004803603604081101561050257600080fd5b506001600160a01b038135169060200135611cb6565b34801561052457600080fd5b506103036004803603604081101561053b57600080fd5b506001600160a01b038135169060200135611e06565b34801561055d57600080fd5b50610303611e23565b34801561057257600080fd5b50610258611e29565b34801561058757600080fd5b506102586004803603602081101561059e57600080fd5b50356001600160a01b0316611ed5565b610258600480360360408110156105c457600080fd5b506001600160a01b038135169060200135611ffd565b3480156105e657600080fd5b50610604600480360360208110156105fd57600080fd5b503561238a565b6040805189151581526001600160a01b03808a1660208301528881169282019290925260608101879052858216608082015260a0810185905290831660c082015260e0810182600581111561065557fe5b60ff1681526020019850505050505050505060405180910390f35b34801561067c57600080fd5b506104506123e5565b34801561069157600080fd5b50610258600480360360408110156106a857600080fd5b506001600160a01b0381351690602001356123f5565b3480156106ca57600080fd5b50610258600480360360408110156106e157600080fd5b506001600160a01b0381351690602001356126c8565b34801561070357600080fd5b506107306004803603604081101561071a57600080fd5b506001600160a01b0381351690602001356128b7565b604080519115158252519081900360200190f35b34801561075057600080fd5b506103036128d7565b34801561076557600080fd5b506107926004803603604081101561077c57600080fd5b506001600160a01b0381351690602001356128dd565b604051808e6001600160a01b03166001600160a01b031681526020018d81526020018c6001600160a01b03166001600160a01b031681526020018b81526020018a8152602001898152602001886001600160a01b03166001600160a01b03168152602001878152602001866001600160a01b03166001600160a01b031681526020018515151515815260200184600381111561082a57fe5b60ff168152921515602084015250151560408083019190915251908190036060019b509950505050505050505050f35b34801561086657600080fd5b50610258600480360360e081101561087d57600080fd5b506001600160a01b03813581169160208101359160408201359160608101359091169060808101359060a08101359060c0013561296c565b3480156108c157600080fd5b50610730600480360360208110156108d857600080fd5b50356001600160a01b0316612d05565b3480156108f457600080fd5b506102586004803603604081101561090b57600080fd5b6001600160a01b03823516919081019060408101602082013564010000000081111561093657600080fd5b82018360208201111561094857600080fd5b8035906020019184600183028401116401000000008311171561096a57600080fd5b509092509050612d1a565b34801561098157600080fd5b506102586004803603604081101561099857600080fd5b506001600160a01b038135169060200135612ef4565b3480156109ba57600080fd5b506109d8600480360360208110156109d157600080fd5b503561306e565b604080519788526020880196909652868601949094526060860192909252608085015260a084015260c0830152519081900360e00190f35b348015610a1c57600080fd5b50610a4360048036036020811015610a3357600080fd5b50356001600160a01b03166130ab565b6040805160208082528351818301528351919283929083019185019080838360005b83811015610a7d578181015183820152602001610a65565b50505050905090810190601f168015610aaa5780820380516001836020036101000a031916815260200191505b509250505060405180910390f35b348015610ac457600080fd5b5061025860048036036080811015610adb57600080fd5b506001600160a01b038135169060208101359060408101359060600135613146565b348015610b0957600080fd5b50610303613339565b348015610b1e57600080fd5b5061025860048036036020811015610b3557600080fd5b50356001600160a01b031661333f565b6001600160a01b03821660009081526072602090815260408220918390525260405162461bcd60e51b81526004018080602001828103825260258152602001806140ce6025913960400191505060405180910390fd5b3360008181526070602052604090205460026000196101006001841615020190911604610bf95760405162461bcd60e51b81526004018080602001828103825260298152602001806141b26029913960400191505060405180910390fd5b6001600160a01b038816610c4a576040805162461bcd60e51b8152602060048201526013602482015272496e76616c6964204e4654206164647265737360681b604482015290519081900360640190fd5b6001600160a01b03881660009081526071602090815260408083208a845290915290205460ff16610cc2576040805162461bcd60e51b815260206004820152601860248201527f5468652071756f746520646f6573206e6f742065786973740000000000000000604482015290519081900360640190fd5b60006001600160a01b0389166000908152606e602090815260408083208b8452909152902060080154600160a81b900460ff166003811115610d0057fe5b14610d4b576040805162461bcd60e51b81526020600482015260166024820152755468652071756f74652076616c75652065786973747360501b604482015290519081900360640190fd5b8115158315151415610d8e5760405162461bcd60e51b81526004018080602001828103825260328152602001806142a96032913960400191505060405180910390fd5b6001600160a01b0388166000818152606e602090815260408083208b8452825291829020600881018054600483018c9055600783018b90556005909201899055600160a01b336001600160a01b03199093169290921760ff60a01b19169190911760ff60b01b1916600160b01b881515021760ff60b81b1916600160b81b87151502179055815192835282018990528181018890526060820186905260808201879052517f2642d20c95a5efb3314ca259516737c56f1035334e28cc3e27a75112083f24fe9160a0908290030190a15050505050505050565b3360008181526070602052604090205460026000196101006001841615020190911604610ec55760405162461bcd60e51b81526004018080602001828103825260298152602001806141b26029913960400191505060405180910390fd5b6001600160a01b0383166000908152607260209081526040808320858452825280832054808452606d9092529091205460ff16610f49576040805162461bcd60e51b815260206004820181905260248201527f546865204e46542072656e74206c696e6520646f6573206e6f74206578697374604482015290519081900360640190fd5b60046000828152606d60205260409020600590810154600160a01b900460ff1690811115610f7357fe5b14610fba576040805162461bcd60e51b815260206004820152601260248201527114995b9d081b9bdd0818d85b98d95b1b195960721b604482015290519081900360640190fd5b606a546001600160a01b0385166000908152606e602090815260408083208784529091528120600701549091611015916c0c9f2c9cd04674edea4000000091611009919063ffffffff61344216565b9063ffffffff6134a416565b6001600160a01b0386166000908152606e60209081526040808320888452909152902060080154909150600160a01b900460ff1615156001141561105e5761105e85858361350b565b5050505050565b60675481565b606a5481565b6001600160a01b0384166110c2576040805162461bcd60e51b8152602060048201526013602482015272496e76616c6964204e4654206164647265737360681b604482015290519081900360640190fd5b6001600160a01b038416600090815260716020908152604080832086845290915290205460ff1615611136576040805162461bcd60e51b81526020600482015260186024820152775468652071756f746520616c72656164792065786973747360401b604482015290519081900360640190fd5b6001600160a01b038481166000818152606e60209081526040808320888452825280832080546001600160a01b03199081168617825560018083018b9055600283018054831633179055600383018a9055600683018054988a169890921697909717905560080180546001600160b01b031916905583835260718252808320888452909152808220805460ff191690941790935582516306fdde0360e01b815292517f907d68ef74e5ecd6be58baff9d21fa31f9a3fa3d441f5c8ce4f25f7c3ae87629936306fdde03926004808301939192829003018186803b15801561121c57600080fd5b505afa158015611230573d6000803e3d6000fd5b505050506040513d6000823e601f3d908101601f19168201604052602081101561125957600080fd5b810190808051604051939291908464010000000082111561127957600080fd5b90830190602082018581111561128e57600080fd5b82516401000000008111828201881017156112a857600080fd5b82525081516020918201929091019080838360005b838110156112d55781810151838201526020016112bd565b50505050905090810190601f1680156113025780820380516001836020036101000a031916815260200191505b50604052505050858584866040518080602001866001600160a01b03166001600160a01b03168152602001858152602001846001600160a01b03166001600160a01b03168152602001838152602001828103825287818151815260200191508051906020019080838360005b8381101561138657818101518382015260200161136e565b50505050905090810190601f1680156113b35780820380516001836020036101000a031916815260200191505b50965050505050505060405180910390a150505050565b6113d2613554565b6001600160a01b03166113e36123e5565b6001600160a01b03161461142c576040805162461bcd60e51b81526020600482018190526024820152600080516020614242833981519152604482015290519081900360640190fd5b6001600160a01b038116600090815260706020526040902054600260001961010060018416150201909116046114935760405162461bcd60e51b81526004018080602001828103825260238152602001806141616023913960400191505060405180910390fd5b6001600160a01b03811660009081526070602052604081206114b491613ff1565b606f5460408051635a6ace8760e11b81526001600160a01b0384811660048301523060248301529151919092169163b4d59d0e91604480830192600092919082900301818387803b15801561150857600080fd5b505af115801561151c573d6000803e3d6000fd5b5050604080516001600160a01b038516815290517f44a3cd4eb5cc5748f6169df057b1cb2ae4c383e87cd94663c430e095d4cba4249350908190036020019150a150565b6001600160a01b038084166000908152607260209081526040808320868452825280832054808452606d9092529091206001015490911633146115d45760405162461bcd60e51b81526004018080602001828103825260258152602001806143276025913960400191505060405180910390fd5b6001600160a01b0384166000908152607260209081526040808320868452825280832054808452606d9092529091205460ff166116425760405162461bcd60e51b815260040180806020018281038252602181526020018061434c6021913960400191505060405180910390fd5b6000818152606c6020526040902060030154600111156116a9576040805162461bcd60e51b815260206004820152601760248201527f416c6c2072657061796d656e74732061726520646f6e65000000000000000000604482015290519081900360640190fd5b60026000828152606d60205260409020600590810154600160a01b900460ff16908111156116d357fe5b14611725576040805162461bcd60e51b815260206004820152601960248201527f52656e74696e6720686173206e6f7420626567756e2079657400000000000000604482015290519081900360640190fd5b60006117318686613558565b905083811461177d576040805162461bcd60e51b8152602060048201526013602482015272125b9cdd59999a58da595b9d08185b5bdd5b9d606a1b604482015290519081900360640190fd5b6000828152606c6020526040902060068101546002909101544291906117a9828263ffffffff61359416565b831161185c576000858152606c6020526040902060030154600114156117e3576117d48989896135ee565b6117de89896136ec565b6117ee565b6117ee8989896135ee565b6000858152606c602090815260409182902060038101805460001901908190554260069092019190915582516001600160a01b038d1681529182015281517f0516911bcc3a0a7412a44601057c0a0a1ec628bde049a84284bc428866534488929181900390910190a1611913565b60056000868152606d60205260409020600590810154600160a01b900460ff169081111561188657fe5b50507f7409cb79815e2fcde95fb7b9a71f41844973d56c2677fa71c263f76d01576fa08986606d600089815260200190815260200160002060050160149054906101000a900460ff1660405180846001600160a01b03166001600160a01b031681526020018381526020018260058111156118fd57fe5b60ff168152602001935050505060405180910390a15b505050505050505050565b606b5481565b6301e1338081565b600054610100900460ff1680611945575061194561391f565b80611953575060005460ff16155b61198e5760405162461bcd60e51b815260040180806020018281038252602e815260200180614184602e913960400191505060405180910390fd5b600054610100900460ff161580156119b9576000805460ff1961ff0019909116610100171660011790555b6119c1613930565b6119ca8361333f565b606f80546001600160a01b0319166001600160a01b03841617905580156119f7576000805461ff00191690555b505050565b606f546001600160a01b031681565b6001600160a01b03821660009081526072602090815260408220918390525260405162461bcd60e51b81526004018080602001828103825260228152602001806141196022913960400191505060405180910390fd5b60ff168152602001935050505060405180910390a150505050505050565b3360008181526070602052604090205460026000196101006001841615020190911604611add5760405162461bcd60e51b81526004018080602001828103825260298152602001806141b26029913960400191505060405180910390fd5b6001600160a01b0384166000908152607260209081526040808320868452825280832054808452606d9092529091205460ff16611b61576040805162461bcd60e51b815260206004820181905260248201527f546865204e46542072656e74206c696e6520646f6573206e6f74206578697374604482015290519081900360640190fd5b60016000828152606d60205260409020600590810154600160a01b900460ff1690811115611b8b57fe5b14611bd2576040805162461bcd60e51b815260206004820152601260248201527114995b9d081b9bdd081c995c5d595cdd195960721b604482015290519081900360640190fd5b606a546001600160a01b0386166000908152606e602090815260408083208884529091528120600701549091611c21916c0c9f2c9cd04674edea4000000091611009919063ffffffff61344216565b6001600160a01b0387166000908152606e60209081526040808320898452909152902060080154909150600160a01b900460ff16151560011415611ca857838114611c9d5760405162461bcd60e51b81526004018080602001828103825260228152602001806143056022913960400191505060405180910390fd5b611ca88686866139e2565b505050505050565b60665481565b3360008181526070602052604090205460026000196101006001841615020190911604611d145760405162461bcd60e51b81526004018080602001828103825260298152602001806141b26029913960400191505060405180910390fd5b6001600160a01b0383166000908152607260209081526040808320858452825280832054808452606d9092529091205460ff16611d98576040805162461bcd60e51b815260206004820181905260248201527f546865204e46542072656e74206c696e6520646f6573206e6f74206578697374604482015290519081900360640190fd5b60036000828152606d60205260409020600590810154600160a01b900460ff1690811115611dc257fe5b14610fba576040805162461bcd60e51b815260206004820152600f60248201526e14995b9d081b9bdd0818db1bdcd959608a1b604482015290519081900360640190fd5b607260209081526000928352604080842090915290825290205481565b60655481565b611e31613554565b6001600160a01b0316611e426123e5565b6001600160a01b031614611e8b576040805162461bcd60e51b81526020600482018190526024820152600080516020614242833981519152604482015290519081900360640190fd5b6033546040516000916001600160a01b0316907f8be0079c531659141344cd1fd0a4f28419497f9722a3daafe3b4186f6b6457e0908390a3603380546001600160a01b0319169055565b3360008181526070602052604090205460026000196101006001841615020190911604611f335760405162461bcd60e51b81526004018080602001828103825260298152602001806141b26029913960400191505060405180910390fd5b6001600160a01b03821660009081526073602052604090205460ff1615611fa1576040805162461bcd60e51b815260206004820181905260248201527f54686520626f72726f77657220697320616c7265616479207665726966696564604482015290519081900360640190fd5b6001600160a01b038216600081815260736020908152604091829020805460ff19166001179055815192835290517f01172049b4a794575e07ae9f81e9d6631faf9838434887247323de8c2df804f49281900390910190a15050565b6001600160a01b038083166000908152607260209081526040808320858452825280832054808452606d9092529091205490916101009091041633146120745760405162461bcd60e51b81526004018080602001828103825260238152602001806142866023913960400191505060405180910390fd5b6001600160a01b0383166000908152607260209081526040808320858452825280832054808452606d9092529091205460ff166120e25760405162461bcd60e51b815260040180806020018281038252602181526020018061434c6021913960400191505060405180910390fd5b60016000828152606d60205260409020600590810154600160a01b900460ff169081111561210c57fe5b146121485760405162461bcd60e51b815260040180806020018281038252602481526020018061421e6024913960400191505060405180910390fd5b6000818152606c602052604090206005810154600190910154429190612174828263ffffffff61359416565b8311612301576001600160a01b0387166000908152606e60209081526040808320898452909152902060080154600160b81b900460ff16151560011415612257576000848152606d602090815260408083206001908101546001600160a01b038c8116808752606e86528487208d8852909552838620909201548351632142170760e11b8152336004820152929091166024830181905260448301829052925192949093926342842e0e92606480820193929182900301818387803b15801561223c57600080fd5b505af1158015612250573d6000803e3d6000fd5b5050505050505b6000848152606d602081815260408084206005908101805460ff60a01b1916600160a11b178155606c84529482902042600690910155928252925483516001600160a01b038c1681529182018890527fcf4767466573ec9226de1c83e0c44ef78996c5f4876aee8e4cc4bb49bc2019f4938b938993600160a01b90930460ff16929182019083908111156122e757fe5b60ff168152602001935050505060405180910390a1612381565b6000848152606d60209081526040918290206005908101805460ff60a01b1916600160a21b179081905583516001600160a01b038c1681529283018890527f127334b334dba48bbab255244c480e89b00a22dca4ad126dd1916487de1b22ff938b938993600160a01b90930460ff169290918201908390811115611a6157fe5b50505050505050565b606d6020526000908152604090208054600182015460028301546003840154600485015460059095015460ff808616966001600160a01b036101009097048716969586169593841693909290811691600160a01b9091041688565b6033546001600160a01b03165b90565b6001600160a01b038083166000908152607260209081526040808320858452825280832054808452606d90925290912054909161010090910416331461246c5760405162461bcd60e51b81526004018080602001828103825260238152602001806142866023913960400191505060405180910390fd5b6001600160a01b0383166000908152607260209081526040808320858452825280832054808452606d9092529091205460ff166124da5760405162461bcd60e51b815260040180806020018281038252602181526020018061434c6021913960400191505060405180910390fd5b60056000828152606d60205260409020600590810154600160a01b900460ff169081111561250457fe5b14612556576040805162461bcd60e51b815260206004820152601e60248201527f5468652072656e74206973206e6f742064656661756c746564207965742e0000604482015290519081900360640190fd5b6000818152606d6020908152604080832060050154606c9092528220600381015490546001600160a01b0390921692909190612598828463ffffffff613a7d16565b905060006125a68989613558565b905060006125ba828463ffffffff61344216565b6001600160a01b038b166000908152606e602090815260408083208d8452909152812060070154919250906125f5908363ffffffff61359416565b6001600160a01b038c166000908152606e602090815260408083208e8452909152902060080154909150600160a01b900460ff161515600114156126a057600061266b8561265f6c0c9f2c9cd04674edea400000006110096069548961344290919063ffffffff16565b9063ffffffff61344216565b905060006126798d8d613ada565b905061269b8261268f858463ffffffff61359416565b9063ffffffff613a7d16565b925050505b6126bb6001600160a01b03881630338463ffffffff613b2a16565b5050505050505050505050565b6001600160a01b038216600090815260716020908152604080832084845290915290205460ff1661273c576040805162461bcd60e51b81526020600482015260196024820152785468652071756f746520646f6573206e6f742065786973747360381b604482015290519081900360640190fd5b6001600160a01b038281166000908152606e602090815260408083208584529091529020600201541633146127b8576040805162461bcd60e51b815260206004820152601c60248201527f4f6e6c79206c656e6465722063616e206163636570742071756f746500000000604482015290519081900360640190fd5b6001600160a01b038281166000908152606e6020908152604080832085845290915290206008015416612832576040805162461bcd60e51b815260206004820152601e60248201527f45787065727420686173206e6f7420676976656e207468652071756f74650000604482015290519081900360640190fd5b6001600160a01b0382166000818152606e60209081526040808320858452825291829020600881018054600160a01b60ff60a81b19909116600160a81b1760ff60a01b19161790556004015482519384529083015280517fb791d9e8e11147d21baa1cd78c4adb0806ea5839b3e26a4305fa50045d3ec96d9281900390910190a15050565b607160209081526000928352604080842090915290825290205460ff1681565b60695481565b606e6020908152600092835260408084209091529082529020805460018201546002830154600384015460048501546005860154600687015460078801546008909801546001600160a01b0397881698969795861696949593949293918216929181169060ff600160a01b8204811691600160a81b8104821691600160b01b8204811691600160b81b9004168d565b6001600160a01b0387166129bd576040805162461bcd60e51b8152602060048201526013602482015272496e76616c6964204e4654206164647265737360681b604482015290519081900360640190fd5b6001600160a01b038716600090815260716020908152604080832089845290915290205460ff1615612a31576040805162461bcd60e51b81526020600482015260186024820152775468652071756f746520616c72656164792065786973747360401b604482015290519081900360640190fd5b6001600160a01b038781166000818152606e602090815260408083208b8452825280832080546001600160a01b03199081168617825560018083018e905560028301805433908416179055600383018d905560048084018c9055600584018b9055600684018054909316988d169890981790915560078201889055600890910180546001600160b01b031916600360a81b1761ffff60b01b1916600160b81b179055848452607183528184208c8552909252808320805460ff191690921790915580516306fdde0360e01b815290517f9dfe99d0d260e0d5c8d17db277bfd33d975b2c347e6eceb328e99d5b8eb970fd946306fdde03938382019390929190829003018186803b158015612b4457600080fd5b505afa158015612b58573d6000803e3d6000fd5b505050506040513d6000823e601f3d908101601f191682016040526020811015612b8157600080fd5b8101908080516040519392919084640100000000821115612ba157600080fd5b908301906020820185811115612bb657600080fd5b8251640100000000811182820188101715612bd057600080fd5b82525081516020918201929091019080838360005b83811015612bfd578181015183820152602001612be5565b50505050905090810190601f168015612c2a5780820380516001836020036101000a031916815260200191505b506040525050508888878988876040518080602001886001600160a01b03166001600160a01b03168152602001878152602001866001600160a01b03166001600160a01b03168152602001858152602001848152602001838152602001828103825289818151815260200191508051906020019080838360005b83811015612cbc578181015183820152602001612ca4565b50505050905090810190601f168015612ce95780820380516001836020036101000a031916815260200191505b509850505050505050505060405180910390a150505050505050565b60736020526000908152604090205460ff1681565b612d22613554565b6001600160a01b0316612d336123e5565b6001600160a01b031614612d7c576040805162461bcd60e51b81526020600482018190526024820152600080516020614242833981519152604482015290519081900360640190fd5b6001600160a01b0383166000908152607060205260409020546002600019610100600184161502019091160415612de45760405162461bcd60e51b81526004018080602001828103825260228152602001806141db6022913960400191505060405180910390fd5b606f546040805163a94413a160e01b81526001600160a01b038681166004830152600160248301529151919092169163a94413a191604480830192600092919082900301818387803b158015612e3957600080fd5b505af1158015612e4d573d6000803e3d6000fd5b5050506001600160a01b0384166000908152607060205260409020612e7491508383614035565b507f30b5eb94a54f18a967aed7e72caf39194d0f0ba44ed3fed9febc2f355556115883838360405180846001600160a01b03166001600160a01b03168152602001806020018281038252848482818152602001925080828437600083820152604051601f909101601f1916909201829003965090945050505050a1505050565b6001600160a01b038083166000908152607260209081526040808320858452825280832054808452606d909252909120600101549091163314612f685760405162461bcd60e51b81526004018080602001828103825260258152602001806143276025913960400191505060405180910390fd5b6001600160a01b0383166000908152607260209081526040808320858452825280832054808452606d9092529091205460ff16612fd65760405162461bcd60e51b815260040180806020018281038252602181526020018061434c6021913960400191505060405180910390fd5b60046000828152606d60205260409020600590810154600160a01b900460ff169081111561300057fe5b1461303c5760405162461bcd60e51b81526004018080602001828103825260248152602001806142626024913960400191505060405180910390fd5b6001600160a01b0384166000908152606e6020908152604080832086845290915290206007015461105e85858361350b565b606c602052600090815260409020805460018201546002830154600384015460048501546005860154600690960154949593949293919290919087565b60706020908152600091825260409182902080548351601f60026000196101006001861615020190931692909204918201849004840281018401909452808452909183018282801561313e5780601f106131135761010080835404028352916020019161313e565b820191906000526020600020905b81548152906001019060200180831161312157829003601f168201915b505050505081565b6001600160a01b038416600090815260716020908152604080832086845290915290205460ff166131ba576040805162461bcd60e51b81526020600482015260196024820152785468652071756f746520646f6573206e6f742065786973747360381b604482015290519081900360640190fd5b6001600160a01b038481166000908152606e60209081526040808320878452909152902060020154163314613236576040805162461bcd60e51b815260206004820152601c60248201527f4f6e6c79206c656e6465722063616e206163636570742071756f746500000000604482015290519081900360640190fd5b6001600160a01b038481166000908152606e60209081526040808320878452909152902060080154166132b0576040805162461bcd60e51b815260206004820152601e60248201527f45787065727420686173206e6f7420676976656e207468652071756f74650000604482015290519081900360640190fd5b6001600160a01b0384166000818152606e602090815260408083208784528252918290206004810186905560078101859055600801805460ff60a81b1916600160a91b1760ff60a01b191690558151928352820184905280517f72453b8947a73e283f4cd3b93848a9166c14805b4b2ccde25a44393a21a6fbd79281900390910190a150505050565b60685481565b613347613554565b6001600160a01b03166133586123e5565b6001600160a01b0316146133a1576040805162461bcd60e51b81526020600482018190526024820152600080516020614242833981519152604482015290519081900360640190fd5b6001600160a01b0381166133e65760405162461bcd60e51b81526004018080602001828103825260268152602001806140f36026913960400191505060405180910390fd5b6033546040516001600160a01b038084169216907f8be0079c531659141344cd1fd0a4f28419497f9722a3daafe3b4186f6b6457e090600090a3603380546001600160a01b0319166001600160a01b0392909216919091179055565b6000826134515750600061349e565b8282028284828161345e57fe5b041461349b5760405162461bcd60e51b81526004018080602001828103825260218152602001806141fd6021913960400191505060405180910390fd5b90505b92915050565b60008082116134fa576040805162461bcd60e51b815260206004820152601a60248201527f536166654d6174683a206469766973696f6e206279207a65726f000000000000604482015290519081900360640190fd5b81838161350357fe5b049392505050565b6001600160a01b038084166000908152607260209081526040808320868452825280832054808452606d9092529091206005015490911661105e8130338663ffffffff613b2a16565b3390565b6001600160a01b039091166000908152607260209081526040808320938352928152828220548252606c90522060048101546002909101540290565b60008282018381101561349b576040805162461bcd60e51b815260206004820152601b60248201527f536166654d6174683a206164646974696f6e206f766572666c6f770000000000604482015290519081900360640190fd5b6001600160a01b038381166000818152607260209081526040808320878452825280832054808452606d835281842060050154948452606e8352818420888552909252909120600801549092918216918116906001600160a01b90910460ff16151514156136d157600061367e6c0c9f2c9cd04674edea400000006110096069548861344290919063ffffffff16565b90506000613692868363ffffffff613a7d16565b90506136af6001600160a01b03851633308463ffffffff613b2a16565b6136ca6001600160a01b03851633858563ffffffff613b2a16565b5050611ca8565b611ca86001600160a01b03831633308763ffffffff613b2a16565b6001600160a01b0382166000908152607260209081526040808320848452825280832054808452606d9092529091205460ff1661375a5760405162461bcd60e51b815260040180806020018281038252602181526020018061434c6021913960400191505060405180910390fd5b6000818152606c6020526040902060030154156137a85760405162461bcd60e51b815260040180806020018281038252602a8152602001806142db602a913960400191505060405180910390fd5b6001600160a01b0383166000908152606e60209081526040808320858452909152902060080154600160b81b900460ff16151560011415613885576000818152606d60209081526040808320546001600160a01b03878116808652606e8552838620888752909452828520600101548351632142170760e11b81523360048201526101009093049091166024830181905260448301829052925192949093926342842e0e92606480820193929182900301818387803b15801561386a57600080fd5b505af115801561387e573d6000803e3d6000fd5b5050505050505b6000818152606d60209081526040918290206005908101805460ff60a01b1916600360a01b179081905583516001600160a01b03881681529283018590527fdada2cadbe023a84ca3cbfc50edffdac70618798e68b3f8d84987084eb7f82f19387938693600160a01b90930460ff16929091820190839081111561390557fe5b60ff168152602001935050505060405180910390a1505050565b600061392a30613b8a565b15905090565b600054610100900460ff1680613949575061394961391f565b80613957575060005460ff16155b6139925760405162461bcd60e51b815260040180806020018281038252602e815260200180614184602e913960400191505060405180910390fd5b600054610100900460ff161580156139bd576000805460ff1961ff0019909116610100171660011790555b6139c5613b90565b6139cd613c30565b80156139df576000805461ff00191690555b50565b6001600160a01b0383166000908152607260209081526040808320858452825280832054808452606d9092529091205460ff16613a505760405162461bcd60e51b815260040180806020018281038252602181526020018061434c6021913960400191505060405180910390fd5b6000818152606d60205260409020600501546001600160a01b031661105e8133308663ffffffff613b2a16565b600082821115613ad4576040805162461bcd60e51b815260206004820152601e60248201527f536166654d6174683a207375627472616374696f6e206f766572666c6f770000604482015290519081900360640190fd5b50900390565b606a546001600160a01b0383166000908152606e602090815260408083208584529091528120600701549091613b23916c0c9f2c9cd04674edea40000000916110099190613442565b9392505050565b604080516001600160a01b0380861660248301528416604482015260648082018490528251808303909101815260849091019091526020810180516001600160e01b03166323b872dd60e01b179052613b84908590613d29565b50505050565b3b151590565b600054610100900460ff1680613ba95750613ba961391f565b80613bb7575060005460ff16155b613bf25760405162461bcd60e51b815260040180806020018281038252602e815260200180614184602e913960400191505060405180910390fd5b600054610100900460ff161580156139cd576000805460ff1961ff00199091166101001716600117905580156139df576000805461ff001916905550565b600054610100900460ff1680613c495750613c4961391f565b80613c57575060005460ff16155b613c925760405162461bcd60e51b815260040180806020018281038252602e815260200180614184602e913960400191505060405180910390fd5b600054610100900460ff16158015613cbd576000805460ff1961ff0019909116610100171660011790555b6000613cc7613554565b603380546001600160a01b0319166001600160a01b038316908117909155604051919250906000907f8be0079c531659141344cd1fd0a4f28419497f9722a3daafe3b4186f6b6457e0908290a35080156139df576000805461ff001916905550565b6060613d7e826040518060400160405280602081526020017f5361666545524332303a206c6f772d6c6576656c2063616c6c206661696c6564815250856001600160a01b0316613dda9092919063ffffffff16565b8051909150156119f757808060200190516020811015613d9d57600080fd5b50516119f75760405162461bcd60e51b815260040180806020018281038252602a81526020018061436d602a913960400191505060405180910390fd5b6060613de98484600085613df1565b949350505050565b606082471015613e325760405162461bcd60e51b815260040180806020018281038252602681526020018061413b6026913960400191505060405180910390fd5b613e3b85613b8a565b613e8c576040805162461bcd60e51b815260206004820152601d60248201527f416464726573733a2063616c6c20746f206e6f6e2d636f6e7472616374000000604482015290519081900360640190fd5b60006060866001600160a01b031685876040518082805190602001908083835b60208310613ecb5780518252601f199092019160209182019101613eac565b6001836020036101000a03801982511681845116808217855250505050505090500191505060006040518083038185875af1925050503d8060008114613f2d576040519150601f19603f3d011682016040523d82523d6000602084013e613f32565b606091505b5091509150613f42828286613f4d565b979650505050505050565b60608315613f5c575081613b23565b825115613f6c5782518084602001fd5b8160405162461bcd60e51b81526004018080602001828103825283818151815260200191508051906020019080838360005b83811015613fb6578181015183820152602001613f9e565b50505050905090810190601f168015613fe35780820380516001836020036101000a031916815260200191505b509250505060405180910390fd5b50805460018160011615610100020316600290046000825580601f1061401757506139df565b601f0160209004906000526020600020908101906139df91906140b3565b828054600181600116156101000203166002900490600052602060002090601f016020900481019282601f106140765782800160ff198235161785556140a3565b828001600101855582156140a3579182015b828111156140a3578235825591602001919060010190614088565b506140af9291506140b3565b5090565b6123f291905b808211156140af57600081556001016140b956fe54686520726571756573746564204e465420696e2063757272656e746c792072656e7465644f776e61626c653a206e6577206f776e657220697320746865207a65726f206164647265737354686520726571756573746564204e465420697320616c726561792072656e746564416464726573733a20696e73756666696369656e742062616c616e636520666f722063616c6c4164644578706572743a20566572696669657220646f6573206e6f7420657869737473496e697469616c697a61626c653a20636f6e747261637420697320616c726561647920696e697469616c697a65645468652045787065727420616c6f6e652063616e2061636365737320746869732066756e6374696f6e4164644578706572743a20566572696669657220616c726561647920657869737473536166654d6174683a206d756c7469706c69636174696f6e206f766572666c6f775468652052656e7420686173206e6f74206265656e20726571756573746564207965742e4f776e61626c653a2063616c6c6572206973206e6f7420746865206f776e65725468652052656e7420686173206e6f74206265656e2063616e63656c6c6564207965742e4f6e6c79204e465452656e74206c696e65204c656e6465722063616e20616363657373426f746820657363726f7720616e642077616c6c65742063616e6e6f742062652073657420746f2073616d652076616c7565506c6561736520636f6d706c6574652072656d61696e696e672072657061796d656e747320666972737454686520616d6f756e742070726f7669646564206973206e6f7420636f72726563744f6e6c79204e465452656e74206c696e6520426f72726f7765722063616e20616363657373546865204e46542072656e74206973206e6f7420796574207265717565737465645361666545524332303a204552433230206f7065726174696f6e20646964206e6f742073756363656564a2646970667358221220bdebb23f85f690a0de7f06092aa2ba011daf326ac4500e96892a696ab66d5af864736f6c63430006070033536166654d6174683a206d756c7469706c69636174696f6e206f766572666c6f77",
  "linkReferences": {},
  "deployedLinkReferences": {}
}