{
  "_format": "hh-sol-artifact-1",
  "contractName": "NFTRent",
  "sourceName": "contracts/NFTRent.sol",
  "abi": [
    {
      "anonymous": false,
      "inputs": [
        {
          "indexed": false,
          "internalType": "address",
          "name": "_borrower",
          "type": "address"
        }
      ],
      "name": "BorrowerVerified",
      "type": "event"
    },
    {
      "anonymous": false,
      "inputs": [
        {
          "indexed": false,
          "internalType": "address",
          "name": "_rentNft",
          "type": "address"
        },
        {
          "indexed": false,
          "internalType": "uint256",
          "name": "_nftId",
          "type": "uint256"
        }
      ],
      "name": "LendingStopped",
      "type": "event"
    },
    {
      "anonymous": false,
      "inputs": [
        {
          "indexed": true,
          "internalType": "address",
          "name": "previousOwner",
          "type": "address"
        },
        {
          "indexed": true,
          "internalType": "address",
          "name": "newOwner",
          "type": "address"
        }
      ],
      "name": "OwnershipTransferred",
      "type": "event"
    },
    {
      "anonymous": false,
      "inputs": [
        {
          "indexed": false,
          "internalType": "address",
          "name": "NFTRent",
          "type": "address"
        },
        {
          "indexed": false,
          "internalType": "uint256",
          "name": "DailyRentPrice",
          "type": "uint256"
        }
      ],
      "name": "QuoteAccepted",
      "type": "event"
    },
    {
      "anonymous": false,
      "inputs": [
        {
          "indexed": false,
          "internalType": "address",
          "name": "_rentNft",
          "type": "address"
        },
        {
          "indexed": false,
          "internalType": "uint256",
          "name": "_NftId",
          "type": "uint256"
        },
        {
          "indexed": false,
          "internalType": "uint256",
          "name": "_dailyRentPrice",
          "type": "uint256"
        },
        {
          "indexed": false,
          "internalType": "uint256",
          "name": "_repayInterval",
          "type": "uint256"
        },
        {
          "indexed": false,
          "internalType": "uint256",
          "name": "_collateralAmount",
          "type": "uint256"
        }
      ],
      "name": "QuoteProvided",
      "type": "event"
    },
    {
      "anonymous": false,
      "inputs": [
        {
          "indexed": false,
          "internalType": "address",
          "name": "NFTRent",
          "type": "address"
        },
        {
          "indexed": false,
          "internalType": "uint256",
          "name": "DailyRentPrice",
          "type": "uint256"
        }
      ],
      "name": "QuoteRejected",
      "type": "event"
    },
    {
      "anonymous": false,
      "inputs": [
        {
          "indexed": false,
          "internalType": "string",
          "name": "_name",
          "type": "string"
        },
        {
          "indexed": false,
          "internalType": "address",
          "name": "_rentNft",
          "type": "address"
        },
        {
          "indexed": false,
          "internalType": "uint256",
          "name": "_nftId",
          "type": "uint256"
        },
        {
          "indexed": false,
          "internalType": "address",
          "name": "_collateralAsset",
          "type": "address"
        },
        {
          "indexed": false,
          "internalType": "uint256",
          "name": "_rentDuration",
          "type": "uint256"
        },
        {
          "indexed": false,
          "internalType": "uint256",
          "name": "_dailyRentalPrice",
          "type": "uint256"
        },
        {
          "indexed": false,
          "internalType": "uint256",
          "name": "_collateralAmount",
          "type": "uint256"
        }
      ],
      "name": "QuoteReleased",
      "type": "event"
    },
    {
      "anonymous": false,
      "inputs": [
        {
          "indexed": false,
          "internalType": "string",
          "name": "_name",
          "type": "string"
        },
        {
          "indexed": false,
          "internalType": "address",
          "name": "_rentNft",
          "type": "address"
        },
        {
          "indexed": false,
          "internalType": "uint256",
          "name": "_nftId",
          "type": "uint256"
        },
        {
          "indexed": false,
          "internalType": "address",
          "name": "_collateralAsset",
          "type": "address"
        },
        {
          "indexed": false,
          "internalType": "uint256",
          "name": "_rentDuration",
          "type": "uint256"
        }
      ],
      "name": "QuoteRequested",
      "type": "event"
    },
    {
      "anonymous": false,
      "inputs": [
        {
          "indexed": false,
          "internalType": "address",
          "name": "NFTRent",
          "type": "address"
        },
        {
          "indexed": false,
          "internalType": "bytes32",
          "name": "NFTRentHash",
          "type": "bytes32"
        },
        {
          "indexed": false,
          "internalType": "enum NFTRentStorage.NFTRentLineStatus",
          "name": "currentStatus",
          "type": "uint8"
        }
      ],
      "name": "RentActive",
      "type": "event"
    },
    {
      "anonymous": false,
      "inputs": [
        {
          "indexed": false,
          "internalType": "address",
          "name": "NFTRent",
          "type": "address"
        },
        {
          "indexed": false,
          "internalType": "bytes32",
          "name": "NFTRentHash",
          "type": "bytes32"
        },
        {
          "indexed": false,
          "internalType": "enum NFTRentStorage.NFTRentLineStatus",
          "name": "currentStatus",
          "type": "uint8"
        }
      ],
      "name": "RentCancelled",
      "type": "event"
    },
    {
      "anonymous": false,
      "inputs": [
        {
          "indexed": false,
          "internalType": "address",
          "name": "NFTRent",
          "type": "address"
        },
        {
          "indexed": false,
          "internalType": "bytes32",
          "name": "NFTRentHash",
          "type": "bytes32"
        },
        {
          "indexed": false,
          "internalType": "enum NFTRentStorage.NFTRentLineStatus",
          "name": "currentStatus",
          "type": "uint8"
        }
      ],
      "name": "RentClosed",
      "type": "event"
    },
    {
      "anonymous": false,
      "inputs": [
        {
          "indexed": false,
          "internalType": "address",
          "name": "NFTRent",
          "type": "address"
        },
        {
          "indexed": false,
          "internalType": "bytes32",
          "name": "NFTRentHash",
          "type": "bytes32"
        },
        {
          "indexed": false,
          "internalType": "enum NFTRentStorage.NFTRentLineStatus",
          "name": "currentStatus",
          "type": "uint8"
        }
      ],
      "name": "RentDefaulted",
      "type": "event"
    },
    {
      "anonymous": false,
      "inputs": [
        {
          "indexed": false,
          "internalType": "address",
          "name": "NFTRent",
          "type": "address"
        },
        {
          "indexed": false,
          "internalType": "bytes32",
          "name": "NFTRentHash",
          "type": "bytes32"
        },
        {
          "indexed": false,
          "internalType": "enum NFTRentStorage.NFTRentLineStatus",
          "name": "currentStatus",
          "type": "uint8"
        }
      ],
      "name": "RentRequested",
      "type": "event"
    },
    {
      "anonymous": false,
      "inputs": [
        {
          "indexed": false,
          "internalType": "address",
          "name": "_rentNft",
          "type": "address"
        },
        {
          "indexed": false,
          "internalType": "uint256",
          "name": "repaymentsLeft",
          "type": "uint256"
        }
      ],
      "name": "Repaid",
      "type": "event"
    },
    {
      "anonymous": false,
      "inputs": [
        {
          "indexed": false,
          "internalType": "address",
          "name": "verifier",
          "type": "address"
        },
        {
          "indexed": false,
          "internalType": "string",
          "name": "metadata",
          "type": "string"
        }
      ],
      "name": "VerifierAdded",
      "type": "event"
    },
    {
      "anonymous": false,
      "inputs": [
        {
          "indexed": false,
          "internalType": "address",
          "name": "verifier",
          "type": "address"
        }
      ],
      "name": "VerifierRemoved",
      "type": "event"
    },
    {
      "inputs": [
        {
          "internalType": "address",
          "name": "_rentNft",
          "type": "address"
        },
        {
          "internalType": "uint256",
          "name": "_nftId",
          "type": "uint256"
        }
      ],
      "name": "AcceptQuote",
      "outputs": [],
      "stateMutability": "nonpayable",
      "type": "function"
    },
    {
      "inputs": [
        {
          "internalType": "address",
          "name": "_rentNft",
          "type": "address"
        },
        {
          "internalType": "uint256",
          "name": "_nftId",
          "type": "uint256"
        }
      ],
      "name": "ClaimCollateral",
      "outputs": [],
      "stateMutability": "nonpayable",
      "type": "function"
    },
    {
      "inputs": [
        {
          "internalType": "address",
          "name": "_rentNft",
          "type": "address"
        },
        {
          "internalType": "uint256",
          "name": "_nftId",
          "type": "uint256"
        }
      ],
      "name": "ClaimStake",
      "outputs": [],
      "stateMutability": "nonpayable",
      "type": "function"
    },
    {
      "inputs": [
        {
          "internalType": "address",
          "name": "_rentNft",
          "type": "address"
        },
        {
          "internalType": "uint256",
          "name": "_nftId",
          "type": "uint256"
        },
        {
          "internalType": "uint256",
          "name": "_rentDuration",
          "type": "uint256"
        },
        {
          "internalType": "address",
          "name": "_collateralAsset",
          "type": "address"
        },
        {
          "internalType": "uint256",
          "name": "_dailyRentalPrice",
          "type": "uint256"
        },
        {
          "internalType": "uint256",
          "name": "_repayInterval",
          "type": "uint256"
        },
        {
          "internalType": "uint256",
          "name": "_collateralAmount",
          "type": "uint256"
        }
      ],
      "name": "CustomQuote",
      "outputs": [],
      "stateMutability": "nonpayable",
      "type": "function"
    },
    {
      "inputs": [
        {
          "internalType": "address",
          "name": "_rentNft",
          "type": "address"
        },
        {
          "internalType": "uint256",
          "name": "_nftId",
          "type": "uint256"
        }
      ],
      "name": "GetStakeBack",
      "outputs": [],
      "stateMutability": "nonpayable",
      "type": "function"
    },
    {
      "inputs": [],
      "name": "NFTRentLineCounter",
      "outputs": [
        {
          "internalType": "uint256",
          "name": "",
          "type": "uint256"
        }
      ],
      "stateMutability": "view",
      "type": "function"
    },
    {
      "inputs": [
        {
          "internalType": "bytes32",
          "name": "",
          "type": "bytes32"
        }
      ],
      "name": "NFTRentLineInfo",
      "outputs": [
        {
          "internalType": "bool",
          "name": "exists",
          "type": "bool"
        },
        {
          "internalType": "address",
          "name": "lender",
          "type": "address"
        },
        {
          "internalType": "address",
          "name": "borrower",
          "type": "address"
        },
        {
          "internalType": "uint256",
          "name": "rentalPrice",
          "type": "uint256"
        },
        {
          "internalType": "address",
          "name": "NftAsset",
          "type": "address"
        },
        {
          "internalType": "uint256",
          "name": "NftId",
          "type": "uint256"
        },
        {
          "internalType": "address",
          "name": "collateralAsset",
          "type": "address"
        },
        {
          "internalType": "enum NFTRentStorage.NFTRentLineStatus",
          "name": "currentStatus",
          "type": "uint8"
        }
      ],
      "stateMutability": "view",
      "type": "function"
    },
    {
      "inputs": [
        {
          "internalType": "bytes32",
          "name": "",
          "type": "bytes32"
        }
      ],
      "name": "NFTRentLineUsage",
      "outputs": [
        {
          "internalType": "uint256",
          "name": "repayments",
          "type": "uint256"
        },
        {
          "internalType": "uint256",
          "name": "withdrawInterval",
          "type": "uint256"
        },
        {
          "internalType": "uint256",
          "name": "repaymentInterval",
          "type": "uint256"
        },
        {
          "internalType": "uint256",
          "name": "repaymentsCompleted",
          "type": "uint256"
        },
        {
          "internalType": "uint256",
          "name": "_rentalPrice",
          "type": "uint256"
        },
        {
          "internalType": "uint256",
          "name": "loanStartTime",
          "type": "uint256"
        },
        {
          "internalType": "uint256",
          "name": "lastRepaymentTime",
          "type": "uint256"
        }
      ],
      "stateMutability": "view",
      "type": "function"
    },
    {
      "inputs": [
        {
          "internalType": "address",
          "name": "",
          "type": "address"
        },
        {
          "internalType": "uint256",
          "name": "",
          "type": "uint256"
        }
      ],
      "name": "NFTtoHash",
      "outputs": [
        {
          "internalType": "bytes32",
          "name": "",
          "type": "bytes32"
        }
      ],
      "stateMutability": "view",
      "type": "function"
    },
    {
      "inputs": [
        {
          "internalType": "address",
          "name": "_rentNft",
          "type": "address"
        },
        {
          "internalType": "uint256",
          "name": "_nftId",
          "type": "uint256"
        },
        {
          "internalType": "uint256",
          "name": "_dailyRentalPrice",
          "type": "uint256"
        },
        {
          "internalType": "uint256",
          "name": "_collateralAmount",
          "type": "uint256"
        }
      ],
      "name": "RejectQuote",
      "outputs": [],
      "stateMutability": "nonpayable",
      "type": "function"
    },
    {
      "inputs": [
        {
          "internalType": "address",
          "name": "_rentNft",
          "type": "address"
        },
        {
          "internalType": "uint256",
          "name": "_nftId",
          "type": "uint256"
        }
      ],
      "name": "Rent",
      "outputs": [],
      "stateMutability": "payable",
      "type": "function"
    },
    {
      "inputs": [
        {
          "internalType": "address",
          "name": "_rentNft",
          "type": "address"
        },
        {
          "internalType": "uint256",
          "name": "_nftId",
          "type": "uint256"
        }
      ],
      "name": "SendNft",
      "outputs": [],
      "stateMutability": "nonpayable",
      "type": "function"
    },
    {
      "inputs": [
        {
          "internalType": "address",
          "name": "_rentNft",
          "type": "address"
        },
        {
          "internalType": "uint256",
          "name": "_nftId",
          "type": "uint256"
        },
        {
          "internalType": "uint256",
          "name": "_amount",
          "type": "uint256"
        }
      ],
      "name": "Stake",
      "outputs": [],
      "stateMutability": "payable",
      "type": "function"
    },
    {
      "inputs": [
        {
          "internalType": "address",
          "name": "",
          "type": "address"
        }
      ],
      "name": "VerifiedBorrowers",
      "outputs": [
        {
          "internalType": "bool",
          "name": "",
          "type": "bool"
        }
      ],
      "stateMutability": "view",
      "type": "function"
    },
    {
      "inputs": [
        {
          "internalType": "address",
          "name": "_verifier",
          "type": "address"
        },
        {
          "internalType": "string",
          "name": "_metadata",
          "type": "string"
        }
      ],
      "name": "addExpert",
      "outputs": [],
      "stateMutability": "nonpayable",
      "type": "function"
    },
    {
      "inputs": [
        {
          "internalType": "address",
          "name": "_rentNft",
          "type": "address"
        },
        {
          "internalType": "uint256",
          "name": "_nftId",
          "type": "uint256"
        }
      ],
      "name": "claimDeposit",
      "outputs": [],
      "stateMutability": "nonpayable",
      "type": "function"
    },
    {
      "inputs": [],
      "name": "expertFee",
      "outputs": [
        {
          "internalType": "uint256",
          "name": "",
          "type": "uint256"
        }
      ],
      "stateMutability": "view",
      "type": "function"
    },
    {
      "inputs": [],
      "name": "expertStake",
      "outputs": [
        {
          "internalType": "uint256",
          "name": "",
          "type": "uint256"
        }
      ],
      "stateMutability": "view",
      "type": "function"
    },
    {
      "inputs": [],
      "name": "feeFraction",
      "outputs": [
        {
          "internalType": "uint256",
          "name": "",
          "type": "uint256"
        }
      ],
      "stateMutability": "view",
      "type": "function"
    },
    {
      "inputs": [],
      "name": "liquidation",
      "outputs": [
        {
          "internalType": "uint256",
          "name": "",
          "type": "uint256"
        }
      ],
      "stateMutability": "view",
      "type": "function"
    },
    {
      "inputs": [],
      "name": "liquidationThreshold",
      "outputs": [
        {
          "internalType": "uint256",
          "name": "",
          "type": "uint256"
        }
      ],
      "stateMutability": "view",
      "type": "function"
    },
    {
      "inputs": [],
      "name": "owner",
      "outputs": [
        {
          "internalType": "address",
          "name": "",
          "type": "address"
        }
      ],
      "stateMutability": "view",
      "type": "function"
    },
    {
      "inputs": [
        {
          "internalType": "address",
          "name": "_rentNft",
          "type": "address"
        },
        {
          "internalType": "uint256",
          "name": "_nftId",
          "type": "uint256"
        },
        {
          "internalType": "uint256",
          "name": "_dailyRentPrice",
          "type": "uint256"
        },
        {
          "internalType": "uint256",
          "name": "_collateralAmount",
          "type": "uint256"
        },
        {
          "internalType": "uint256",
          "name": "_repayInterval",
          "type": "uint256"
        },
        {
          "internalType": "bool",
          "name": "_toescrow",
          "type": "bool"
        },
        {
          "internalType": "bool",
          "name": "_towallet",
          "type": "bool"
        }
      ],
      "name": "provideQuote",
      "outputs": [],
      "stateMutability": "nonpayable",
      "type": "function"
    },
    {
      "inputs": [
        {
          "internalType": "address",
          "name": "",
          "type": "address"
        },
        {
          "internalType": "uint256",
          "name": "",
          "type": "uint256"
        }
      ],
      "name": "quoteVarsInfo",
      "outputs": [
        {
          "internalType": "address",
          "name": "NFTRent",
          "type": "address"
        },
        {
          "internalType": "uint256",
          "name": "NFTId",
          "type": "uint256"
        },
        {
          "internalType": "address",
          "name": "NFTOwner",
          "type": "address"
        },
        {
          "internalType": "uint256",
          "name": "maxRentalDuration",
          "type": "uint256"
        },
        {
          "internalType": "uint256",
          "name": "dailyRentalPrice",
          "type": "uint256"
        },
        {
          "internalType": "uint256",
          "name": "repayInterval",
          "type": "uint256"
        },
        {
          "internalType": "address",
          "name": "collateralAsset",
          "type": "address"
        },
        {
          "internalType": "uint256",
          "name": "collateralAmount",
          "type": "uint256"
        },
        {
          "internalType": "address",
          "name": "expert",
          "type": "address"
        },
        {
          "internalType": "bool",
          "name": "verified",
          "type": "bool"
        },
        {
          "internalType": "enum NFTRentStorage.QuoteStatus",
          "name": "quoteStatus",
          "type": "uint8"
        },
        {
          "internalType": "bool",
          "name": "Toescrow",
          "type": "bool"
        },
        {
          "internalType": "bool",
          "name": "Towallet",
          "type": "bool"
        }
      ],
      "stateMutability": "view",
      "type": "function"
    },
    {
      "inputs": [
        {
          "internalType": "address",
          "name": "",
          "type": "address"
        },
        {
          "internalType": "uint256",
          "name": "",
          "type": "uint256"
        }
      ],
      "name": "quotes",
      "outputs": [
        {
          "internalType": "bool",
          "name": "",
          "type": "bool"
        }
      ],
      "stateMutability": "view",
      "type": "function"
    },
    {
      "inputs": [
        {
          "internalType": "address",
          "name": "_verifier",
          "type": "address"
        }
      ],
      "name": "removeExpert",
      "outputs": [],
      "stateMutability": "nonpayable",
      "type": "function"
    },
    {
      "inputs": [],
      "name": "renounceOwnership",
      "outputs": [],
      "stateMutability": "nonpayable",
      "type": "function"
    },
    {
      "inputs": [
        {
          "internalType": "address",
          "name": "_rentNft",
          "type": "address"
        },
        {
          "internalType": "uint256",
          "name": "_nftId",
          "type": "uint256"
        },
        {
          "internalType": "uint256",
          "name": "_amount",
          "type": "uint256"
        }
      ],
      "name": "repayInterest",
      "outputs": [],
      "stateMutability": "payable",
      "type": "function"
    },
    {
      "inputs": [
        {
          "internalType": "address",
          "name": "_rentNft",
          "type": "address"
        },
        {
          "internalType": "uint256",
          "name": "_nftId",
          "type": "uint256"
        },
        {
          "internalType": "uint256",
          "name": "_rentDuration",
          "type": "uint256"
        },
        {
          "internalType": "address",
          "name": "_collateralAsset",
          "type": "address"
        }
      ],
      "name": "requestQuote",
      "outputs": [],
      "stateMutability": "nonpayable",
      "type": "function"
    },
    {
      "inputs": [],
      "name": "stakeFraction",
      "outputs": [
        {
          "internalType": "uint256",
          "name": "",
          "type": "uint256"
        }
      ],
      "stateMutability": "view",
      "type": "function"
    },
    {
      "inputs": [
        {
          "internalType": "address",
          "name": "_rentNft",
          "type": "address"
        },
        {
          "internalType": "uint256",
          "name": "_nftId",
          "type": "uint256"
        }
      ],
      "name": "stopLending",
      "outputs": [],
      "stateMutability": "nonpayable",
      "type": "function"
    },
    {
      "inputs": [
        {
          "internalType": "address",
          "name": "newOwner",
          "type": "address"
        }
      ],
      "name": "transferOwnership",
      "outputs": [],
      "stateMutability": "nonpayable",
      "type": "function"
    },
    {
      "inputs": [
        {
          "internalType": "address",
          "name": "_borrower",
          "type": "address"
        }
      ],
      "name": "verifyBorrower",
      "outputs": [],
      "stateMutability": "nonpayable",
      "type": "function"
    },
    {
      "inputs": [],
      "name": "yearInSeconds",
      "outputs": [
        {
          "internalType": "uint256",
          "name": "",
          "type": "uint256"
        }
      ],
      "stateMutability": "view",
      "type": "function"
    }
  ],
  "bytecode": "0x6080604052600a606655603260675560146068556200003b6b204fce5e3e25026110000000606654620000a960201b620036221790919060201c565b606955620000666b204fce5e3e25026110000000606754620000a960201b620036221790919060201c565b606a55620000926c0c9f2c9cd04674edea40000000606854620000a960201b620036221790919060201c565b606b55348015620000a257600080fd5b5062000110565b600082620000ba575060006200010a565b82820282848281620000c857fe5b0414620001075760405162461bcd60e51b8152600401808060200182810382526021815260200180620043296021913960400191505060405180910390fd5b90505b92915050565b61420980620001206000396000f3fe6080604052600436106101f95760003560e01c80637957836e1161010d578063b2db2f51116100a0578063d802a6fd1161006f578063d802a6fd14610911578063e99fb9ac1461094a578063f27c292e146109ac578063f2dfbf66146109f1578063f2fde38b14610a06576101f9565b8063b2db2f51146106f5578063c2297c27146107f6578063cd1351d514610851578063cf33882114610884576101f9565b8063a1bfe1ba116100dc578063a1bfe1ba14610621578063a28b800e1461065a578063a418cac614610693578063a8f05101146106e0576101f9565b80637957836e146104ee5780638440f1c51461052157806389a012651461055a5780638da5cb5b146105f0576101f9565b80634031234c116101905780635bf8eddd1161015f5780635bf8eddd1461043d5780635cfd95a014610452578063676d405e1461048b5780636d30cccb146104c4578063715018a6146104d9576101f9565b80634031234c146103b55780634059d596146103ca57806357a7e13d146103df5780635af417131461040b576101f9565b80632b64f838116101cc5780632b64f838146102f45780632c26bac7146103095780632f59a5ce146103505780633a19deb014610383576101f9565b80630d7b4b3d146101fe5780631299c2a714610239578063157fac8f146102945780632893c27e146102cd575b600080fd5b34801561020a57600080fd5b506102376004803603604081101561022157600080fd5b506001600160a01b038135169060200135610a39565b005b34801561024557600080fd5b50610237600480360360e081101561025c57600080fd5b506001600160a01b038135169060208101359060408101359060608101359060808101359060a081013515159060c001351515610a8f565b3480156102a057600080fd5b50610237600480360360408110156102b757600080fd5b506001600160a01b038135169060200135610d5b565b3480156102d957600080fd5b506102e2610f59565b60408051918252519081900360200190f35b34801561030057600080fd5b506102e2610f5f565b34801561031557600080fd5b506102376004803603608081101561032c57600080fd5b506001600160a01b0381358116916020810135916040820135916060013516610f65565b34801561035c57600080fd5b506102376004803603602081101561037357600080fd5b50356001600160a01b0316611390565b6102376004803603606081101561039957600080fd5b506001600160a01b038135169060208101359060400135611457565b3480156103c157600080fd5b506102e2611815565b3480156103d657600080fd5b506102e261181b565b610237600480360360408110156103f557600080fd5b506001600160a01b038135169060200135611823565b6102376004803603606081101561042157600080fd5b506001600160a01b038135169060208101359060400135611bcf565b34801561044957600080fd5b506102e2611eb0565b34801561045e57600080fd5b506102376004803603604081101561047557600080fd5b506001600160a01b038135169060200135611eb6565b34801561049757600080fd5b506102e2600480360360408110156104ae57600080fd5b506001600160a01b038135169060200135612006565b3480156104d057600080fd5b506102e2612023565b3480156104e557600080fd5b50610237612029565b3480156104fa57600080fd5b506102376004803603602081101561051157600080fd5b50356001600160a01b03166120e7565b34801561052d57600080fd5b506102376004803603604081101561054457600080fd5b506001600160a01b03813516906020013561220f565b34801561056657600080fd5b506105846004803603602081101561057d57600080fd5b5035612643565b6040805189151581526001600160a01b03808a1660208301528881169282019290925260608101879052858216608082015260a0810185905290831660c082015260e081018260058111156105d557fe5b60ff1681526020019850505050505050505060405180910390f35b3480156105fc57600080fd5b5061060561269e565b604080516001600160a01b039092168252519081900360200190f35b34801561062d57600080fd5b506102376004803603604081101561064457600080fd5b506001600160a01b0381351690602001356126ae565b34801561066657600080fd5b506102376004803603604081101561067d57600080fd5b506001600160a01b038135169060200135612a00565b34801561069f57600080fd5b506106cc600480360360408110156106b657600080fd5b506001600160a01b038135169060200135612bef565b604080519115158252519081900360200190f35b3480156106ec57600080fd5b506102e2612c0f565b34801561070157600080fd5b5061072e6004803603604081101561071857600080fd5b506001600160a01b038135169060200135612c15565b604051808e6001600160a01b03166001600160a01b031681526020018d81526020018c6001600160a01b03166001600160a01b031681526020018b81526020018a8152602001898152602001886001600160a01b03166001600160a01b03168152602001878152602001866001600160a01b03166001600160a01b03168152602001851515151581526020018460038111156107c657fe5b60ff168152921515602084015250151560408083019190915251908190036060019b509950505050505050505050f35b34801561080257600080fd5b50610237600480360360e081101561081957600080fd5b506001600160a01b03813581169160208101359160408201359160608101359091169060808101359060a08101359060c00135612ca4565b34801561085d57600080fd5b506106cc6004803603602081101561087457600080fd5b50356001600160a01b031661303d565b34801561089057600080fd5b50610237600480360360408110156108a757600080fd5b6001600160a01b0382351691908101906040810160208201356401000000008111156108d257600080fd5b8201836020820111156108e457600080fd5b8035906020019184600183028401116401000000008311171561090657600080fd5b509092509050613052565b34801561091d57600080fd5b506102376004803603604081101561093457600080fd5b506001600160a01b03813516906020013561315d565b34801561095657600080fd5b506109746004803603602081101561096d57600080fd5b50356132d7565b604080519788526020880196909652868601949094526060860192909252608085015260a084015260c0830152519081900360e00190f35b3480156109b857600080fd5b50610237600480360360808110156109cf57600080fd5b506001600160a01b038135169060208101359060408101359060600135613314565b3480156109fd57600080fd5b506102e2613507565b348015610a1257600080fd5b5061023760048036036020811015610a2957600080fd5b50356001600160a01b031661350d565b6001600160a01b03821660009081526071602090815260408220918390525260405162461bcd60e51b8152600401808060200182810382526025815260200180613f2c6025913960400191505060405180910390fd5b336000818152606f602052604090205460026000196101006001841615020190911604610aed5760405162461bcd60e51b8152600401808060200182810382526029815260200180613ff06029913960400191505060405180910390fd5b6001600160a01b038816610b3e576040805162461bcd60e51b8152602060048201526013602482015272496e76616c6964204e4654206164647265737360681b604482015290519081900360640190fd5b6001600160a01b03881660009081526070602090815260408083208a845290915290205460ff16610bb6576040805162461bcd60e51b815260206004820152601860248201527f5468652071756f746520646f6573206e6f742065786973740000000000000000604482015290519081900360640190fd5b60006001600160a01b0389166000908152606e602090815260408083208b8452909152902060080154600160a81b900460ff166003811115610bf457fe5b14610c3f576040805162461bcd60e51b81526020600482015260166024820152755468652071756f74652076616c75652065786973747360501b604482015290519081900360640190fd5b8115158315151415610c825760405162461bcd60e51b81526004018080602001828103825260328152602001806140ea6032913960400191505060405180910390fd5b6001600160a01b0388166000818152606e602090815260408083208b8452825291829020600881018054600483018c9055600783018b90556005909201899055600160a01b336001600160a01b03199093169290921760ff60a01b19169190911760ff60b01b1916600160b01b881515021760ff60b81b1916600160b81b87151502179055815192835282018990528181018890526060820186905260808201879052517f2642d20c95a5efb3314ca259516737c56f1035334e28cc3e27a75112083f24fe9160a0908290030190a15050505050505050565b336000818152606f602052604090205460026000196101006001841615020190911604610db95760405162461bcd60e51b8152600401808060200182810382526029815260200180613ff06029913960400191505060405180910390fd5b6001600160a01b0383166000908152607160209081526040808320858452825280832054808452606d9092529091205460ff16610e3d576040805162461bcd60e51b815260206004820181905260248201527f546865204e46542072656e74206c696e6520646f6573206e6f74206578697374604482015290519081900360640190fd5b60046000828152606d60205260409020600590810154600160a01b900460ff1690811115610e6757fe5b14610eae576040805162461bcd60e51b815260206004820152601260248201527114995b9d081b9bdd0818d85b98d95b1b195960721b604482015290519081900360640190fd5b606a546001600160a01b0385166000908152606e602090815260408083208784529091528120600701549091610f09916c0c9f2c9cd04674edea4000000091610efd919063ffffffff61362216565b9063ffffffff61368416565b6001600160a01b0386166000908152606e60209081526040808320888452909152902060080154909150600160a01b900460ff16151560011415610f5257610f528585836136eb565b5050505050565b60675481565b606a5481565b6001600160a01b038416610fb6576040805162461bcd60e51b8152602060048201526013602482015272496e76616c6964204e4654206164647265737360681b604482015290519081900360640190fd5b6001600160a01b038416600090815260706020908152604080832086845290915290205460ff161561102a576040805162461bcd60e51b81526020600482015260186024820152775468652071756f746520616c72656164792065786973747360401b604482015290519081900360640190fd5b6000846001600160a01b0316636352211e856040518263ffffffff1660e01b81526004018082815260200191505060206040518083038186803b15801561107057600080fd5b505afa158015611084573d6000803e3d6000fd5b505050506040513d602081101561109a57600080fd5b50519050336001600160a01b038216146110fb576040805162461bcd60e51b815260206004820152601c60248201527f4c656e646572206e6f742074686520636f7272656374206f776e657200000000604482015290519081900360640190fd5b6001600160a01b038581166000818152606e60209081526040808320898452825280832080546001600160a01b03199081168617825560018083018c9055600283018054831633179055600383018b9055600683018054988b169890921697909717905560080180546001600160b01b031916905583835260708252808320898452909152808220805460ff191690941790935582516306fdde0360e01b815292517f907d68ef74e5ecd6be58baff9d21fa31f9a3fa3d441f5c8ce4f25f7c3ae87629936306fdde03926004808301939192829003018186803b1580156111e157600080fd5b505afa1580156111f5573d6000803e3d6000fd5b505050506040513d6000823e601f3d908101601f19168201604052602081101561121e57600080fd5b810190808051604051939291908464010000000082111561123e57600080fd5b90830190602082018581111561125357600080fd5b825164010000000081118282018810171561126d57600080fd5b82525081516020918201929091019080838360005b8381101561129a578181015183820152602001611282565b50505050905090810190601f1680156112c75780820380516001836020036101000a031916815260200191505b50604052505050868685876040518080602001866001600160a01b03166001600160a01b03168152602001858152602001846001600160a01b03166001600160a01b03168152602001838152602001828103825287818151815260200191508051906020019080838360005b8381101561134b578181015183820152602001611333565b50505050905090810190601f1680156113785780820380516001836020036101000a031916815260200191505b50965050505050505060405180910390a15050505050565b6001600160a01b0381166000908152606f6020526040902054600260001961010060018416150201909116046113f75760405162461bcd60e51b8152600401808060200182810382526023815260200180613fa26023913960400191505060405180910390fd5b6001600160a01b0381166000908152606f6020526040812061141891613e4c565b604080516001600160a01b038316815290517f44a3cd4eb5cc5748f6169df057b1cb2ae4c383e87cd94663c430e095d4cba4249181900360200190a150565b6001600160a01b038084166000908152607160209081526040808320868452825280832054808452606d9092529091206001015490911633146114cb5760405162461bcd60e51b81526004018080602001828103825260258152602001806141686025913960400191505060405180910390fd5b6001600160a01b0384166000908152607160209081526040808320868452825280832054808452606d9092529091205460ff166115395760405162461bcd60e51b815260040180806020018281038252602181526020018061418d6021913960400191505060405180910390fd5b6000818152606c6020526040902060030154600111156115a0576040805162461bcd60e51b815260206004820152601760248201527f416c6c2072657061796d656e74732061726520646f6e65000000000000000000604482015290519081900360640190fd5b60026000828152606d60205260409020600590810154600160a01b900460ff16908111156115ca57fe5b1461161c576040805162461bcd60e51b815260206004820152601860248201527f506c65617365206465706f736974204e46542066697273740000000000000000604482015290519081900360640190fd5b600061162886866137af565b9050838114611674576040805162461bcd60e51b8152602060048201526013602482015272125b9cdd59999a58da595b9d08185b5bdd5b9d606a1b604482015290519081900360640190fd5b6000828152606c6020526040902060068101546002909101544291906116a0828263ffffffff6137eb16565b8311611753576000858152606c6020526040902060030154600114156116da576116cb898989613845565b6116d58989613ab5565b6116e5565b6116e5898989613845565b6000858152606c602090815260409182902060038101805460001901908190554260069092019190915582516001600160a01b038d1681529182015281517f0516911bcc3a0a7412a44601057c0a0a1ec628bde049a84284bc428866534488929181900390910190a161180a565b60056000868152606d60205260409020600590810154600160a01b900460ff169081111561177d57fe5b50507f7409cb79815e2fcde95fb7b9a71f41844973d56c2677fa71c263f76d01576fa08986606d600089815260200190815260200160002060050160149054906101000a900460ff1660405180846001600160a01b03166001600160a01b031681526020018381526020018260058111156117f457fe5b60ff168152602001935050505060405180910390a15b505050505050505050565b606b5481565b6301e1338081565b3360009081526072602052604090205460ff166118715760405162461bcd60e51b815260040180806020018281038252602b815260200180613f77602b913960400191505060405180910390fd5b60006001600160a01b0383166000908152606e60209081526040808320858452909152902060080154600160a81b900460ff1660038111156118af57fe5b14156118ec5760405162461bcd60e51b81526004018080602001828103825260238152602001806140806023913960400191505060405180910390fd5b6001600160a01b038281166000908152606e60209081526040808320858452909152902060020154163314156119535760405162461bcd60e51b81526004018080602001828103825260268152602001806141ae6026913960400191505060405180910390fd5b606580546001908101918290556040805160208082019490945281518082038501815290820182528051908401206001600160a01b038681166000818152607187528481208882528752848120849055838152606d8752848120805460ff191687178082556005808301805460ff60a01b198116825599840180546001600160a01b03199081163317909155868652606e8c528986208d8752909b5297909320600280820154871661010002610100600160a81b03199093169290921783556004818101549284019290925560038084018054909b169095179099550188905560068701546001600160a81b0319909616959092169490941790925591830154920154909190611a638282613684565b6000848152606c602052604090209081556002810182905562015180600190910155611a95828263ffffffff61368416565b6000848152606c6020908152604080832060038101949094556001600160a01b0389168352606e8252808320888452909152902060048082015492019190915560070154348114611b175760405162461bcd60e51b815260040180806020018281038252602b815260200180613fc5602b913960400191505060405180910390fd5b611b22868683613ce8565b6000848152606c60209081526040808320426005808301829055600690920155606d8352928190208301805460ff60a01b1916600160a01b9081179182905582516001600160a01b038c1681529384018990527f9823ce50a18b6698b5b9973ad2b174e7765623a6749fe7dd871be8cca4c8c5ce948b948a949290930460ff1692918201908390811115611bb257fe5b60ff168152602001935050505060405180910390a1505050505050565b336000818152606f602052604090205460026000196101006001841615020190911604611c2d5760405162461bcd60e51b8152600401808060200182810382526029815260200180613ff06029913960400191505060405180910390fd5b6001600160a01b0384166000908152607160209081526040808320868452825280832054808452606d9092529091205460ff16611cb1576040805162461bcd60e51b815260206004820181905260248201527f546865204e46542072656e74206c696e6520646f6573206e6f74206578697374604482015290519081900360640190fd5b60016000828152606d60205260409020600590810154600160a01b900460ff1690811115611cdb57fe5b14611d22576040805162461bcd60e51b815260206004820152601260248201527114995b9d081b9bdd081c995c5d595cdd195960721b604482015290519081900360640190fd5b3360009081526073602090815260408083206001600160a01b0389168452825280832087845290915290205460ff1615611d9b576040805162461bcd60e51b8152602060048201526015602482015274115e1c195c9d08185b1c9958591e481cdd185ad959605a1b604482015290519081900360640190fd5b606a546001600160a01b0386166000908152606e602090815260408083208884529091528120600701549091611dea916c0c9f2c9cd04674edea4000000091610efd919063ffffffff61362216565b6001600160a01b0387166000908152606e60209081526040808320898452909152902060080154909150600160a01b900460ff16151560011415611e7157838114611e665760405162461bcd60e51b81526004018080602001828103825260228152602001806141466022913960400191505060405180910390fd5b611e71868686613ce8565b50503360009081526073602090815260408083206001600160a01b0397909716835295815285822094825293909352505020805460ff19166001179055565b60665481565b336000818152606f602052604090205460026000196101006001841615020190911604611f145760405162461bcd60e51b8152600401808060200182810382526029815260200180613ff06029913960400191505060405180910390fd5b6001600160a01b0383166000908152607160209081526040808320858452825280832054808452606d9092529091205460ff16611f98576040805162461bcd60e51b815260206004820181905260248201527f546865204e46542072656e74206c696e6520646f6573206e6f74206578697374604482015290519081900360640190fd5b60036000828152606d60205260409020600590810154600160a01b900460ff1690811115611fc257fe5b14610eae576040805162461bcd60e51b815260206004820152600f60248201526e14995b9d081b9bdd0818db1bdcd959608a1b604482015290519081900360640190fd5b607160209081526000928352604080842090915290825290205481565b60655481565b612031613d9b565b6001600160a01b031661204261269e565b6001600160a01b03161461209d576040805162461bcd60e51b815260206004820181905260248201527f4f776e61626c653a2063616c6c6572206973206e6f7420746865206f776e6572604482015290519081900360640190fd5b6033546040516000916001600160a01b0316907f8be0079c531659141344cd1fd0a4f28419497f9722a3daafe3b4186f6b6457e0908390a3603380546001600160a01b0319169055565b336000818152606f6020526040902054600260001961010060018416150201909116046121455760405162461bcd60e51b8152600401808060200182810382526029815260200180613ff06029913960400191505060405180910390fd5b6001600160a01b03821660009081526072602052604090205460ff16156121b3576040805162461bcd60e51b815260206004820181905260248201527f54686520626f72726f77657220697320616c7265616479207665726966696564604482015290519081900360640190fd5b6001600160a01b038216600081815260726020908152604091829020805460ff19166001179055815192835290517f01172049b4a794575e07ae9f81e9d6631faf9838434887247323de8c2df804f49281900390910190a15050565b6001600160a01b038083166000908152607160209081526040808320858452825280832054808452606d9092529091205490916101009091041633146122865760405162461bcd60e51b81526004018080602001828103825260238152602001806140c76023913960400191505060405180910390fd5b6001600160a01b0383166000908152607160209081526040808320858452825280832054808452606d9092529091205460ff166122f45760405162461bcd60e51b815260040180806020018281038252602181526020018061418d6021913960400191505060405180910390fd5b60016000828152606d60205260409020600590810154600160a01b900460ff169081111561231e57fe5b1461235a5760405162461bcd60e51b815260040180806020018281038252602481526020018061405c6024913960400191505060405180910390fd5b6001600160a01b038085166000818152606e60209081526040808320888452825280832060080154909416825260738152838220928252918252828120868252909152205460ff166123eb576040805162461bcd60e51b8152602060048201526015602482015274457870657274206e6565647320746f207374616b6560581b604482015290519081900360640190fd5b6000818152606c602052604090206005810154600190910154429190612417828263ffffffff6137eb16565b83116125a4576001600160a01b0387166000908152606e60209081526040808320898452909152902060080154600160b81b900460ff161515600114156124fa576000848152606d602090815260408083206001908101546001600160a01b038c8116808752606e86528487208d8852909552838620909201548351632142170760e11b8152336004820152929091166024830181905260448301829052925192949093926342842e0e92606480820193929182900301818387803b1580156124df57600080fd5b505af11580156124f3573d6000803e3d6000fd5b5050505050505b6000848152606d602081815260408084206005908101805460ff60a01b1916600160a11b178155606c84529482902042600690910155928252925483516001600160a01b038c1681529182018890527fcf4767466573ec9226de1c83e0c44ef78996c5f4876aee8e4cc4bb49bc2019f4938b938993600160a01b90930460ff169291820190839081111561258a57fe5b60ff168152602001935050505060405180910390a161263a565b6000848152606d60209081526040918290206005908101805460ff60a01b1916600160a21b179081905583516001600160a01b038c1681529283018890527f127334b334dba48bbab255244c480e89b00a22dca4ad126dd1916487de1b22ff938b938993600160a01b90930460ff16929091820190839081111561262457fe5b60ff168152602001935050505060405180910390a15b50505050505050565b606d6020526000908152604090208054600182015460028301546003840154600485015460059095015460ff808616966001600160a01b036101009097048716969586169593841693909290811691600160a01b9091041688565b6033546001600160a01b03165b90565b6001600160a01b038083166000908152607160209081526040808320858452825280832054808452606d9092529091205490916101009091041633146127255760405162461bcd60e51b81526004018080602001828103825260238152602001806140c76023913960400191505060405180910390fd5b6001600160a01b0383166000908152607160209081526040808320858452825280832054808452606d9092529091205460ff166127935760405162461bcd60e51b815260040180806020018281038252602181526020018061418d6021913960400191505060405180910390fd5b60056000828152606d60205260409020600590810154600160a01b900460ff16908111156127bd57fe5b1461280f576040805162461bcd60e51b815260206004820152601e60248201527f5468652072656e74206973206e6f742064656661756c746564207965742e0000604482015290519081900360640190fd5b6000818152606d6020908152604080832060050154606c9092528220600381015490546001600160a01b0390921692909190612851828463ffffffff613d9f16565b9050600061285f89896137af565b90506000612873828463ffffffff61362216565b6001600160a01b038b166000908152606e602090815260408083208d8452909152812060070154919250906128ae908363ffffffff6137eb16565b6001600160a01b038c166000908152606e602090815260408083208e8452909152902060080154909150600160a01b900460ff16151560011415612959576000612924856129186c0c9f2c9cd04674edea40000000610efd6069548961362290919063ffffffff16565b9063ffffffff61362216565b905060006129328d8d613dfc565b905061295482612948858463ffffffff6137eb16565b9063ffffffff613d9f16565b925050505b604051600090606090339084908481818185875af1925050503d806000811461299e576040519150601f19603f3d011682016040523d82523d6000602084013e6129a3565b606091505b5091509150816129f1576040805162461bcd60e51b81526020600482015260146024820152732330b4b632b2103a379039b2b7321022ba3432b960611b604482015290519081900360640190fd5b50505050505050505050505050565b6001600160a01b038216600090815260706020908152604080832084845290915290205460ff16612a74576040805162461bcd60e51b81526020600482015260196024820152785468652071756f746520646f6573206e6f742065786973747360381b604482015290519081900360640190fd5b6001600160a01b038281166000908152606e60209081526040808320858452909152902060020154163314612af0576040805162461bcd60e51b815260206004820152601c60248201527f4f6e6c79206c656e6465722063616e206163636570742071756f746500000000604482015290519081900360640190fd5b6001600160a01b038281166000908152606e6020908152604080832085845290915290206008015416612b6a576040805162461bcd60e51b815260206004820152601e60248201527f45787065727420686173206e6f7420676976656e207468652071756f74650000604482015290519081900360640190fd5b6001600160a01b0382166000818152606e60209081526040808320858452825291829020600881018054600160a01b60ff60a81b19909116600160a81b1760ff60a01b19161790556004015482519384529083015280517fb791d9e8e11147d21baa1cd78c4adb0806ea5839b3e26a4305fa50045d3ec96d9281900390910190a15050565b607060209081526000928352604080842090915290825290205460ff1681565b60695481565b606e6020908152600092835260408084209091529082529020805460018201546002830154600384015460048501546005860154600687015460078801546008909801546001600160a01b0397881698969795861696949593949293918216929181169060ff600160a01b8204811691600160a81b8104821691600160b01b8204811691600160b81b9004168d565b6001600160a01b038716612cf5576040805162461bcd60e51b8152602060048201526013602482015272496e76616c6964204e4654206164647265737360681b604482015290519081900360640190fd5b6001600160a01b038716600090815260706020908152604080832089845290915290205460ff1615612d69576040805162461bcd60e51b81526020600482015260186024820152775468652071756f746520616c72656164792065786973747360401b604482015290519081900360640190fd5b6001600160a01b038781166000818152606e602090815260408083208b8452825280832080546001600160a01b03199081168617825560018083018e905560028301805433908416179055600383018d905560048084018c9055600584018b9055600684018054909316988d169890981790915560078201889055600890910180546001600160b01b031916600360a81b1761ffff60b01b1916600160b81b179055848452607083528184208c8552909252808320805460ff191690921790915580516306fdde0360e01b815290517f9dfe99d0d260e0d5c8d17db277bfd33d975b2c347e6eceb328e99d5b8eb970fd946306fdde03938382019390929190829003018186803b158015612e7c57600080fd5b505afa158015612e90573d6000803e3d6000fd5b505050506040513d6000823e601f3d908101601f191682016040526020811015612eb957600080fd5b8101908080516040519392919084640100000000821115612ed957600080fd5b908301906020820185811115612eee57600080fd5b8251640100000000811182820188101715612f0857600080fd5b82525081516020918201929091019080838360005b83811015612f35578181015183820152602001612f1d565b50505050905090810190601f168015612f625780820380516001836020036101000a031916815260200191505b506040525050508888878988876040518080602001886001600160a01b03166001600160a01b03168152602001878152602001866001600160a01b03166001600160a01b03168152602001858152602001848152602001838152602001828103825289818151815260200191508051906020019080838360005b83811015612ff4578181015183820152602001612fdc565b50505050905090810190601f1680156130215780820380516001836020036101000a031916815260200191505b509850505050505050505060405180910390a150505050505050565b60726020526000908152604090205460ff1681565b6001600160a01b0383166000908152606f602052604090205460026000196101006001841615020190911604156130ba5760405162461bcd60e51b81526004018080602001828103825260228152602001806140196022913960400191505060405180910390fd5b6001600160a01b0383166000908152606f602052604090206130dd908383613e93565b507f30b5eb94a54f18a967aed7e72caf39194d0f0ba44ed3fed9febc2f355556115883838360405180846001600160a01b03166001600160a01b03168152602001806020018281038252848482818152602001925080828437600083820152604051601f909101601f1916909201829003965090945050505050a1505050565b6001600160a01b038083166000908152607160209081526040808320858452825280832054808452606d9092529091206001015490911633146131d15760405162461bcd60e51b81526004018080602001828103825260258152602001806141686025913960400191505060405180910390fd5b6001600160a01b0383166000908152607160209081526040808320858452825280832054808452606d9092529091205460ff1661323f5760405162461bcd60e51b815260040180806020018281038252602181526020018061418d6021913960400191505060405180910390fd5b60046000828152606d60205260409020600590810154600160a01b900460ff169081111561326957fe5b146132a55760405162461bcd60e51b81526004018080602001828103825260248152602001806140a36024913960400191505060405180910390fd5b6001600160a01b0384166000908152606e60209081526040808320868452909152902060070154610f528585836136eb565b606c602052600090815260409020805460018201546002830154600384015460048501546005860154600690960154949593949293919290919087565b6001600160a01b038416600090815260706020908152604080832086845290915290205460ff16613388576040805162461bcd60e51b81526020600482015260196024820152785468652071756f746520646f6573206e6f742065786973747360381b604482015290519081900360640190fd5b6001600160a01b038481166000908152606e60209081526040808320878452909152902060020154163314613404576040805162461bcd60e51b815260206004820152601c60248201527f4f6e6c79206c656e6465722063616e206163636570742071756f746500000000604482015290519081900360640190fd5b6001600160a01b038481166000908152606e602090815260408083208784529091529020600801541661347e576040805162461bcd60e51b815260206004820152601e60248201527f45787065727420686173206e6f7420676976656e207468652071756f74650000604482015290519081900360640190fd5b6001600160a01b0384166000818152606e602090815260408083208784528252918290206004810186905560078101859055600801805460ff60a81b1916600160a91b1760ff60a01b191690558151928352820184905280517f72453b8947a73e283f4cd3b93848a9166c14805b4b2ccde25a44393a21a6fbd79281900390910190a150505050565b60685481565b613515613d9b565b6001600160a01b031661352661269e565b6001600160a01b031614613581576040805162461bcd60e51b815260206004820181905260248201527f4f776e61626c653a2063616c6c6572206973206e6f7420746865206f776e6572604482015290519081900360640190fd5b6001600160a01b0381166135c65760405162461bcd60e51b8152600401808060200182810382526026815260200180613f516026913960400191505060405180910390fd5b6033546040516001600160a01b038084169216907f8be0079c531659141344cd1fd0a4f28419497f9722a3daafe3b4186f6b6457e090600090a3603380546001600160a01b0319166001600160a01b0392909216919091179055565b6000826136315750600061367e565b8282028284828161363e57fe5b041461367b5760405162461bcd60e51b815260040180806020018281038252602181526020018061403b6021913960400191505060405180910390fd5b90505b92915050565b60008082116136da576040805162461bcd60e51b815260206004820152601a60248201527f536166654d6174683a206469766973696f6e206279207a65726f000000000000604482015290519081900360640190fd5b8183816136e357fe5b049392505050565b6001600160a01b0383166000908152607160209081526040808320858452909152808220549051909190606090339085908481818185875af1925050503d8060008114613754576040519150601f19603f3d011682016040523d82523d6000602084013e613759565b606091505b5091509150816137a7576040805162461bcd60e51b81526020600482015260146024820152732330b4b632b2103a379039b2b7321022ba3432b960611b604482015290519081900360640190fd5b505050505050565b6001600160a01b039091166000908152607160209081526040808320938352928152828220548252606c90522060048101546002909101540290565b60008282018381101561367b576040805162461bcd60e51b815260206004820152601b60248201527f536166654d6174683a206164646974696f6e206f766572666c6f770000000000604482015290519081900360640190fd5b6001600160a01b038381166000818152607160209081526040808320878452825280832054938352606e825280832087845290915290206008015490918116906001600160a01b90910460ff1615151415613a1d5760006138c26c0c9f2c9cd04674edea40000000610efd6069548761362290919063ffffffff16565b905060006138d6858363ffffffff613d9f16565b604051909150600090606090309084908481818185875af1925050503d806000811461391e576040519150601f19603f3d011682016040523d82523d6000602084013e613923565b606091505b509150915081613971576040805162461bcd60e51b81526020600482015260146024820152732330b4b632b2103a379039b2b7321022ba3432b960611b604482015290519081900360640190fd5b6040516000906060906001600160a01b0388169087908481818185875af1925050503d80600081146139bf576040519150601f19603f3d011682016040523d82523d6000602084013e6139c4565b606091505b509150915081613a12576040805162461bcd60e51b81526020600482015260146024820152732330b4b632b2103a379039b2b7321022ba3432b960611b604482015290519081900360640190fd5b505050505050610f52565b604051600090606090309086908481818185875af1925050503d8060008114613a62576040519150601f19603f3d011682016040523d82523d6000602084013e613a67565b606091505b50915091508161263a576040805162461bcd60e51b81526020600482015260146024820152732330b4b632b2103a379039b2b7321022ba3432b960611b604482015290519081900360640190fd5b6001600160a01b0382166000908152607160209081526040808320848452825280832054808452606d9092529091205460ff16613b235760405162461bcd60e51b815260040180806020018281038252602181526020018061418d6021913960400191505060405180910390fd5b6000818152606c602052604090206003015415613b715760405162461bcd60e51b815260040180806020018281038252602a81526020018061411c602a913960400191505060405180910390fd5b6001600160a01b0383166000908152606e60209081526040808320858452909152902060080154600160b81b900460ff16151560011415613c4e576000818152606d60209081526040808320546001600160a01b03878116808652606e8552838620888752909452828520600101548351632142170760e11b81523360048201526101009093049091166024830181905260448301829052925192949093926342842e0e92606480820193929182900301818387803b158015613c3357600080fd5b505af1158015613c47573d6000803e3d6000fd5b5050505050505b6000818152606d60209081526040918290206005908101805460ff60a01b1916600360a01b179081905583516001600160a01b03881681529283018590527fdada2cadbe023a84ca3cbfc50edffdac70618798e68b3f8d84987084eb7f82f19387938693600160a01b90930460ff169290918201908390811115613cce57fe5b60ff168152602001935050505060405180910390a1505050565b6001600160a01b0383166000908152607160209081526040808320858452825280832054808452606d9092529091205460ff16613d565760405162461bcd60e51b815260040180806020018281038252602181526020018061418d6021913960400191505060405180910390fd5b604051600090606090339085908481818185875af1925050503d8060008114613754576040519150601f19603f3d011682016040523d82523d6000602084013e613759565b3390565b600082821115613df6576040805162461bcd60e51b815260206004820152601e60248201527f536166654d6174683a207375627472616374696f6e206f766572666c6f770000604482015290519081900360640190fd5b50900390565b606a546001600160a01b0383166000908152606e602090815260408083208584529091528120600701549091613e45916c0c9f2c9cd04674edea4000000091610efd9190613622565b9392505050565b50805460018160011615610100020316600290046000825580601f10613e725750613e90565b601f016020900490600052602060002090810190613e909190613f11565b50565b828054600181600116156101000203166002900490600052602060002090601f016020900481019282601f10613ed45782800160ff19823516178555613f01565b82800160010185558215613f01579182015b82811115613f01578235825591602001919060010190613ee6565b50613f0d929150613f11565b5090565b6126ab91905b80821115613f0d5760008155600101613f1756fe54686520726571756573746564204e465420696e2063757272656e746c792072656e7465644f776e61626c653a206e6577206f776e657220697320746865207a65726f2061646472657373426f72726f776572206e6565647320746f20626520766572696669656420627920746865204578706572744164644578706572743a20566572696669657220646f6573206e6f7420657869737473506c65617365206465706f73697420636f727265637420616d6f756e74206f6620636f6c6c61746572616c5468652045787065727420616c6f6e652063616e2061636365737320746869732066756e6374696f6e4164644578706572743a20566572696669657220616c726561647920657869737473536166654d6174683a206d756c7469706c69636174696f6e206f766572666c6f775468652052656e7420686173206e6f74206265656e20726571756573746564207965742e5468652071756f746520686173206e6f74206265656e207265636569766564207965745468652052656e7420686173206e6f74206265656e2063616e63656c6c6564207965742e4f6e6c79204e465452656e74206c696e65204c656e6465722063616e20616363657373426f746820657363726f7720616e642077616c6c65742063616e6e6f742062652073657420746f2073616d652076616c7565506c6561736520636f6d706c6574652072656d61696e696e672072657061796d656e747320666972737454686520616d6f756e742070726f7669646564206973206e6f7420636f72726563744f6e6c79204e465452656e74206c696e6520426f72726f7765722063616e20616363657373546865204e46542072656e74206973206e6f7420796574207265717565737465644c656e64657220616e6420626f72726f7765722063616e6e6f74206265207468652073616d65a2646970667358221220e8d06b5a06c9750174ea46f694cfae2ceabdd575822c253d55ccecfe1eaef09564736f6c63430006070033536166654d6174683a206d756c7469706c69636174696f6e206f766572666c6f77",
  "linkReferences": {},
  "deployedLinkReferences": {}
}