{
  "_format": "hh-sol-artifact-1",
  "contractName": "NFTRent",
  "sourceName": "contracts/NFTRent.sol",
  "abi": [
    {
      "anonymous": false,
      "inputs": [
        {
          "indexed": false,
          "internalType": "address",
          "name": "_borrower",
          "type": "address"
        }
      ],
      "name": "BorrowerVerified",
      "type": "event"
    },
    {
      "anonymous": false,
      "inputs": [
        {
          "indexed": false,
          "internalType": "address",
          "name": "_rentNft",
          "type": "address"
        },
        {
          "indexed": false,
          "internalType": "uint256",
          "name": "_nftId",
          "type": "uint256"
        }
      ],
      "name": "LendingStopped",
      "type": "event"
    },
    {
      "anonymous": false,
      "inputs": [
        {
          "indexed": true,
          "internalType": "address",
          "name": "previousOwner",
          "type": "address"
        },
        {
          "indexed": true,
          "internalType": "address",
          "name": "newOwner",
          "type": "address"
        }
      ],
      "name": "OwnershipTransferred",
      "type": "event"
    },
    {
      "anonymous": false,
      "inputs": [
        {
          "indexed": false,
          "internalType": "address",
          "name": "NFTRent",
          "type": "address"
        },
        {
          "indexed": false,
          "internalType": "uint256",
          "name": "DailyRentPrice",
          "type": "uint256"
        }
      ],
      "name": "QuoteAccepted",
      "type": "event"
    },
    {
      "anonymous": false,
      "inputs": [
        {
          "indexed": false,
          "internalType": "address",
          "name": "_rentNft",
          "type": "address"
        },
        {
          "indexed": false,
          "internalType": "uint256",
          "name": "_NftId",
          "type": "uint256"
        },
        {
          "indexed": false,
          "internalType": "uint256",
          "name": "_dailyRentPrice",
          "type": "uint256"
        },
        {
          "indexed": false,
          "internalType": "uint256",
          "name": "_repayInterval",
          "type": "uint256"
        },
        {
          "indexed": false,
          "internalType": "uint256",
          "name": "_collateralAmount",
          "type": "uint256"
        }
      ],
      "name": "QuoteProvided",
      "type": "event"
    },
    {
      "anonymous": false,
      "inputs": [
        {
          "indexed": false,
          "internalType": "address",
          "name": "NFTRent",
          "type": "address"
        },
        {
          "indexed": false,
          "internalType": "uint256",
          "name": "DailyRentPrice",
          "type": "uint256"
        }
      ],
      "name": "QuoteRejected",
      "type": "event"
    },
    {
      "anonymous": false,
      "inputs": [
        {
          "indexed": false,
          "internalType": "string",
          "name": "_name",
          "type": "string"
        },
        {
          "indexed": false,
          "internalType": "address",
          "name": "_rentNft",
          "type": "address"
        },
        {
          "indexed": false,
          "internalType": "uint256",
          "name": "_nftId",
          "type": "uint256"
        },
        {
          "indexed": false,
          "internalType": "address",
          "name": "_collateralAsset",
          "type": "address"
        },
        {
          "indexed": false,
          "internalType": "uint256",
          "name": "_rentDuration",
          "type": "uint256"
        },
        {
          "indexed": false,
          "internalType": "uint256",
          "name": "_dailyRentalPrice",
          "type": "uint256"
        },
        {
          "indexed": false,
          "internalType": "uint256",
          "name": "_collateralAmount",
          "type": "uint256"
        }
      ],
      "name": "QuoteReleased",
      "type": "event"
    },
    {
      "anonymous": false,
      "inputs": [
        {
          "indexed": false,
          "internalType": "string",
          "name": "_name",
          "type": "string"
        },
        {
          "indexed": false,
          "internalType": "address",
          "name": "_rentNft",
          "type": "address"
        },
        {
          "indexed": false,
          "internalType": "uint256",
          "name": "_nftId",
          "type": "uint256"
        },
        {
          "indexed": false,
          "internalType": "address",
          "name": "_collateralAsset",
          "type": "address"
        },
        {
          "indexed": false,
          "internalType": "uint256",
          "name": "_rentDuration",
          "type": "uint256"
        }
      ],
      "name": "QuoteRequested",
      "type": "event"
    },
    {
      "anonymous": false,
      "inputs": [
        {
          "indexed": false,
          "internalType": "address",
          "name": "NFTRent",
          "type": "address"
        },
        {
          "indexed": false,
          "internalType": "bytes32",
          "name": "NFTRentHash",
          "type": "bytes32"
        },
        {
          "indexed": false,
          "internalType": "enum NFTRentStorage.NFTRentLineStatus",
          "name": "currentStatus",
          "type": "uint8"
        }
      ],
      "name": "RentActive",
      "type": "event"
    },
    {
      "anonymous": false,
      "inputs": [
        {
          "indexed": false,
          "internalType": "address",
          "name": "NFTRent",
          "type": "address"
        },
        {
          "indexed": false,
          "internalType": "bytes32",
          "name": "NFTRentHash",
          "type": "bytes32"
        },
        {
          "indexed": false,
          "internalType": "enum NFTRentStorage.NFTRentLineStatus",
          "name": "currentStatus",
          "type": "uint8"
        }
      ],
      "name": "RentCancelled",
      "type": "event"
    },
    {
      "anonymous": false,
      "inputs": [
        {
          "indexed": false,
          "internalType": "address",
          "name": "NFTRent",
          "type": "address"
        },
        {
          "indexed": false,
          "internalType": "bytes32",
          "name": "NFTRentHash",
          "type": "bytes32"
        },
        {
          "indexed": false,
          "internalType": "enum NFTRentStorage.NFTRentLineStatus",
          "name": "currentStatus",
          "type": "uint8"
        }
      ],
      "name": "RentClosed",
      "type": "event"
    },
    {
      "anonymous": false,
      "inputs": [
        {
          "indexed": false,
          "internalType": "address",
          "name": "NFTRent",
          "type": "address"
        },
        {
          "indexed": false,
          "internalType": "bytes32",
          "name": "NFTRentHash",
          "type": "bytes32"
        },
        {
          "indexed": false,
          "internalType": "enum NFTRentStorage.NFTRentLineStatus",
          "name": "currentStatus",
          "type": "uint8"
        }
      ],
      "name": "RentDefaulted",
      "type": "event"
    },
    {
      "anonymous": false,
      "inputs": [
        {
          "indexed": false,
          "internalType": "address",
          "name": "NFTRent",
          "type": "address"
        },
        {
          "indexed": false,
          "internalType": "bytes32",
          "name": "NFTRentHash",
          "type": "bytes32"
        },
        {
          "indexed": false,
          "internalType": "enum NFTRentStorage.NFTRentLineStatus",
          "name": "currentStatus",
          "type": "uint8"
        }
      ],
      "name": "RentRequested",
      "type": "event"
    },
    {
      "anonymous": false,
      "inputs": [
        {
          "indexed": false,
          "internalType": "address",
          "name": "_rentNft",
          "type": "address"
        },
        {
          "indexed": false,
          "internalType": "uint256",
          "name": "repaymentsLeft",
          "type": "uint256"
        }
      ],
      "name": "Repaid",
      "type": "event"
    },
    {
      "anonymous": false,
      "inputs": [
        {
          "indexed": false,
          "internalType": "address",
          "name": "verifier",
          "type": "address"
        },
        {
          "indexed": false,
          "internalType": "string",
          "name": "metadata",
          "type": "string"
        }
      ],
      "name": "VerifierAdded",
      "type": "event"
    },
    {
      "anonymous": false,
      "inputs": [
        {
          "indexed": false,
          "internalType": "address",
          "name": "verifier",
          "type": "address"
        }
      ],
      "name": "VerifierRemoved",
      "type": "event"
    },
    {
      "inputs": [
        {
          "internalType": "address",
          "name": "_rentNft",
          "type": "address"
        },
        {
          "internalType": "uint256",
          "name": "_nftId",
          "type": "uint256"
        }
      ],
      "name": "AcceptQuote",
      "outputs": [],
      "stateMutability": "nonpayable",
      "type": "function"
    },
    {
      "inputs": [
        {
          "internalType": "address",
          "name": "_rentNft",
          "type": "address"
        },
        {
          "internalType": "uint256",
          "name": "_nftId",
          "type": "uint256"
        }
      ],
      "name": "ClaimCollateral",
      "outputs": [],
      "stateMutability": "nonpayable",
      "type": "function"
    },
    {
      "inputs": [
        {
          "internalType": "address",
          "name": "_rentNft",
          "type": "address"
        },
        {
          "internalType": "uint256",
          "name": "_nftId",
          "type": "uint256"
        }
      ],
      "name": "ClaimStake",
      "outputs": [],
      "stateMutability": "nonpayable",
      "type": "function"
    },
    {
      "inputs": [
        {
          "internalType": "address",
          "name": "_rentNft",
          "type": "address"
        },
        {
          "internalType": "uint256",
          "name": "_nftId",
          "type": "uint256"
        },
        {
          "internalType": "uint256",
          "name": "_rentDuration",
          "type": "uint256"
        },
        {
          "internalType": "address",
          "name": "_collateralAsset",
          "type": "address"
        },
        {
          "internalType": "uint256",
          "name": "_dailyRentalPrice",
          "type": "uint256"
        },
        {
          "internalType": "uint256",
          "name": "_repayInterval",
          "type": "uint256"
        },
        {
          "internalType": "uint256",
          "name": "_collateralAmount",
          "type": "uint256"
        }
      ],
      "name": "CustomQuote",
      "outputs": [],
      "stateMutability": "nonpayable",
      "type": "function"
    },
    {
      "inputs": [
        {
          "internalType": "address",
          "name": "_rentNft",
          "type": "address"
        },
        {
          "internalType": "uint256",
          "name": "_nftId",
          "type": "uint256"
        }
      ],
      "name": "GetStakeBack",
      "outputs": [],
      "stateMutability": "nonpayable",
      "type": "function"
    },
    {
      "inputs": [],
      "name": "NFTRentLineCounter",
      "outputs": [
        {
          "internalType": "uint256",
          "name": "",
          "type": "uint256"
        }
      ],
      "stateMutability": "view",
      "type": "function"
    },
    {
      "inputs": [
        {
          "internalType": "bytes32",
          "name": "",
          "type": "bytes32"
        }
      ],
      "name": "NFTRentLineInfo",
      "outputs": [
        {
          "internalType": "bool",
          "name": "exists",
          "type": "bool"
        },
        {
          "internalType": "address",
          "name": "lender",
          "type": "address"
        },
        {
          "internalType": "address",
          "name": "borrower",
          "type": "address"
        },
        {
          "internalType": "uint256",
          "name": "rentalPrice",
          "type": "uint256"
        },
        {
          "internalType": "address",
          "name": "NftAsset",
          "type": "address"
        },
        {
          "internalType": "uint256",
          "name": "NftId",
          "type": "uint256"
        },
        {
          "internalType": "address",
          "name": "collateralAsset",
          "type": "address"
        },
        {
          "internalType": "enum NFTRentStorage.NFTRentLineStatus",
          "name": "currentStatus",
          "type": "uint8"
        }
      ],
      "stateMutability": "view",
      "type": "function"
    },
    {
      "inputs": [
        {
          "internalType": "bytes32",
          "name": "",
          "type": "bytes32"
        }
      ],
      "name": "NFTRentLineUsage",
      "outputs": [
        {
          "internalType": "uint256",
          "name": "repayments",
          "type": "uint256"
        },
        {
          "internalType": "uint256",
          "name": "withdrawInterval",
          "type": "uint256"
        },
        {
          "internalType": "uint256",
          "name": "repaymentInterval",
          "type": "uint256"
        },
        {
          "internalType": "uint256",
          "name": "repaymentsCompleted",
          "type": "uint256"
        },
        {
          "internalType": "uint256",
          "name": "_rentalPrice",
          "type": "uint256"
        },
        {
          "internalType": "uint256",
          "name": "loanStartTime",
          "type": "uint256"
        },
        {
          "internalType": "uint256",
          "name": "lastRepaymentTime",
          "type": "uint256"
        }
      ],
      "stateMutability": "view",
      "type": "function"
    },
    {
      "inputs": [
        {
          "internalType": "address",
          "name": "",
          "type": "address"
        },
        {
          "internalType": "uint256",
          "name": "",
          "type": "uint256"
        }
      ],
      "name": "NFTtoHash",
      "outputs": [
        {
          "internalType": "bytes32",
          "name": "",
          "type": "bytes32"
        }
      ],
      "stateMutability": "view",
      "type": "function"
    },
    {
      "inputs": [
        {
          "internalType": "address",
          "name": "_rentNft",
          "type": "address"
        },
        {
          "internalType": "uint256",
          "name": "_nftId",
          "type": "uint256"
        },
        {
          "internalType": "uint256",
          "name": "_dailyRentalPrice",
          "type": "uint256"
        },
        {
          "internalType": "uint256",
          "name": "_collateralAmount",
          "type": "uint256"
        }
      ],
      "name": "RejectQuote",
      "outputs": [],
      "stateMutability": "nonpayable",
      "type": "function"
    },
    {
      "inputs": [
        {
          "internalType": "address",
          "name": "_rentNft",
          "type": "address"
        },
        {
          "internalType": "uint256",
          "name": "_nftId",
          "type": "uint256"
        }
      ],
      "name": "Rent",
      "outputs": [],
      "stateMutability": "payable",
      "type": "function"
    },
    {
      "inputs": [
        {
          "internalType": "address",
          "name": "_rentNft",
          "type": "address"
        },
        {
          "internalType": "uint256",
          "name": "_nftId",
          "type": "uint256"
        }
      ],
      "name": "SendNft",
      "outputs": [],
      "stateMutability": "payable",
      "type": "function"
    },
    {
      "inputs": [
        {
          "internalType": "address",
          "name": "_rentNft",
          "type": "address"
        },
        {
          "internalType": "uint256",
          "name": "_nftId",
          "type": "uint256"
        },
        {
          "internalType": "uint256",
          "name": "_amount",
          "type": "uint256"
        }
      ],
      "name": "Stake",
      "outputs": [],
      "stateMutability": "payable",
      "type": "function"
    },
    {
      "inputs": [
        {
          "internalType": "address",
          "name": "",
          "type": "address"
        }
      ],
      "name": "VerifiedBorrowers",
      "outputs": [
        {
          "internalType": "bool",
          "name": "",
          "type": "bool"
        }
      ],
      "stateMutability": "view",
      "type": "function"
    },
    {
      "inputs": [
        {
          "internalType": "address",
          "name": "_verifier",
          "type": "address"
        },
        {
          "internalType": "string",
          "name": "_metadata",
          "type": "string"
        }
      ],
      "name": "addExpert",
      "outputs": [],
      "stateMutability": "nonpayable",
      "type": "function"
    },
    {
      "inputs": [
        {
          "internalType": "address",
          "name": "_rentNft",
          "type": "address"
        },
        {
          "internalType": "uint256",
          "name": "_nftId",
          "type": "uint256"
        }
      ],
      "name": "claimDeposit",
      "outputs": [],
      "stateMutability": "nonpayable",
      "type": "function"
    },
    {
      "inputs": [
        {
          "internalType": "address",
          "name": "",
          "type": "address"
        }
      ],
      "name": "expertData",
      "outputs": [
        {
          "internalType": "string",
          "name": "",
          "type": "string"
        }
      ],
      "stateMutability": "view",
      "type": "function"
    },
    {
      "inputs": [],
      "name": "expertFee",
      "outputs": [
        {
          "internalType": "uint256",
          "name": "",
          "type": "uint256"
        }
      ],
      "stateMutability": "view",
      "type": "function"
    },
    {
      "inputs": [],
      "name": "expertStake",
      "outputs": [
        {
          "internalType": "uint256",
          "name": "",
          "type": "uint256"
        }
      ],
      "stateMutability": "view",
      "type": "function"
    },
    {
      "inputs": [],
      "name": "feeFraction",
      "outputs": [
        {
          "internalType": "uint256",
          "name": "",
          "type": "uint256"
        }
      ],
      "stateMutability": "view",
      "type": "function"
    },
    {
      "inputs": [],
      "name": "liquidation",
      "outputs": [
        {
          "internalType": "uint256",
          "name": "",
          "type": "uint256"
        }
      ],
      "stateMutability": "view",
      "type": "function"
    },
    {
      "inputs": [],
      "name": "liquidationThreshold",
      "outputs": [
        {
          "internalType": "uint256",
          "name": "",
          "type": "uint256"
        }
      ],
      "stateMutability": "view",
      "type": "function"
    },
    {
      "inputs": [],
      "name": "owner",
      "outputs": [
        {
          "internalType": "address",
          "name": "",
          "type": "address"
        }
      ],
      "stateMutability": "view",
      "type": "function"
    },
    {
      "inputs": [
        {
          "internalType": "address",
          "name": "_rentNft",
          "type": "address"
        },
        {
          "internalType": "uint256",
          "name": "_nftId",
          "type": "uint256"
        },
        {
          "internalType": "uint256",
          "name": "_dailyRentPrice",
          "type": "uint256"
        },
        {
          "internalType": "uint256",
          "name": "_collateralAmount",
          "type": "uint256"
        },
        {
          "internalType": "uint256",
          "name": "_repayInterval",
          "type": "uint256"
        },
        {
          "internalType": "bool",
          "name": "_toescrow",
          "type": "bool"
        },
        {
          "internalType": "bool",
          "name": "_towallet",
          "type": "bool"
        }
      ],
      "name": "provideQuote",
      "outputs": [],
      "stateMutability": "nonpayable",
      "type": "function"
    },
    {
      "inputs": [
        {
          "internalType": "address",
          "name": "",
          "type": "address"
        },
        {
          "internalType": "uint256",
          "name": "",
          "type": "uint256"
        }
      ],
      "name": "quoteVarsInfo",
      "outputs": [
        {
          "internalType": "address",
          "name": "NFTRent",
          "type": "address"
        },
        {
          "internalType": "uint256",
          "name": "NFTId",
          "type": "uint256"
        },
        {
          "internalType": "address",
          "name": "NFTOwner",
          "type": "address"
        },
        {
          "internalType": "uint256",
          "name": "maxRentalDuration",
          "type": "uint256"
        },
        {
          "internalType": "uint256",
          "name": "dailyRentalPrice",
          "type": "uint256"
        },
        {
          "internalType": "uint256",
          "name": "repayInterval",
          "type": "uint256"
        },
        {
          "internalType": "address",
          "name": "collateralAsset",
          "type": "address"
        },
        {
          "internalType": "uint256",
          "name": "collateralAmount",
          "type": "uint256"
        },
        {
          "internalType": "address",
          "name": "expert",
          "type": "address"
        },
        {
          "internalType": "bool",
          "name": "verified",
          "type": "bool"
        },
        {
          "internalType": "enum NFTRentStorage.QuoteStatus",
          "name": "quoteStatus",
          "type": "uint8"
        },
        {
          "internalType": "bool",
          "name": "Toescrow",
          "type": "bool"
        },
        {
          "internalType": "bool",
          "name": "Towallet",
          "type": "bool"
        }
      ],
      "stateMutability": "view",
      "type": "function"
    },
    {
      "inputs": [
        {
          "internalType": "address",
          "name": "",
          "type": "address"
        },
        {
          "internalType": "uint256",
          "name": "",
          "type": "uint256"
        }
      ],
      "name": "quotes",
      "outputs": [
        {
          "internalType": "bool",
          "name": "",
          "type": "bool"
        }
      ],
      "stateMutability": "view",
      "type": "function"
    },
    {
      "inputs": [
        {
          "internalType": "address",
          "name": "_verifier",
          "type": "address"
        }
      ],
      "name": "removeExpert",
      "outputs": [],
      "stateMutability": "nonpayable",
      "type": "function"
    },
    {
      "inputs": [],
      "name": "renounceOwnership",
      "outputs": [],
      "stateMutability": "nonpayable",
      "type": "function"
    },
    {
      "inputs": [
        {
          "internalType": "address",
          "name": "_rentNft",
          "type": "address"
        },
        {
          "internalType": "uint256",
          "name": "_nftId",
          "type": "uint256"
        },
        {
          "internalType": "uint256",
          "name": "_amount",
          "type": "uint256"
        }
      ],
      "name": "repayInterest",
      "outputs": [],
      "stateMutability": "payable",
      "type": "function"
    },
    {
      "inputs": [
        {
          "internalType": "address",
          "name": "_rentNft",
          "type": "address"
        },
        {
          "internalType": "uint256",
          "name": "_nftId",
          "type": "uint256"
        },
        {
          "internalType": "uint256",
          "name": "_rentDuration",
          "type": "uint256"
        },
        {
          "internalType": "address",
          "name": "_collateralAsset",
          "type": "address"
        }
      ],
      "name": "requestQuote",
      "outputs": [],
      "stateMutability": "nonpayable",
      "type": "function"
    },
    {
      "inputs": [],
      "name": "stakeFraction",
      "outputs": [
        {
          "internalType": "uint256",
          "name": "",
          "type": "uint256"
        }
      ],
      "stateMutability": "view",
      "type": "function"
    },
    {
      "inputs": [
        {
          "internalType": "address",
          "name": "_rentNft",
          "type": "address"
        },
        {
          "internalType": "uint256",
          "name": "_nftId",
          "type": "uint256"
        }
      ],
      "name": "stopLending",
      "outputs": [],
      "stateMutability": "nonpayable",
      "type": "function"
    },
    {
      "inputs": [
        {
          "internalType": "address",
          "name": "newOwner",
          "type": "address"
        }
      ],
      "name": "transferOwnership",
      "outputs": [],
      "stateMutability": "nonpayable",
      "type": "function"
    },
    {
      "inputs": [],
      "name": "verification",
      "outputs": [
        {
          "internalType": "contract IVerification",
          "name": "",
          "type": "address"
        }
      ],
      "stateMutability": "view",
      "type": "function"
    },
    {
      "inputs": [
        {
          "internalType": "address",
          "name": "_borrower",
          "type": "address"
        }
      ],
      "name": "verifyBorrower",
      "outputs": [],
      "stateMutability": "nonpayable",
      "type": "function"
    },
    {
      "inputs": [],
      "name": "yearInSeconds",
      "outputs": [
        {
          "internalType": "uint256",
          "name": "",
          "type": "uint256"
        }
      ],
      "stateMutability": "view",
      "type": "function"
    }
  ],
  "bytecode": "0x6080604052600a606655603260675560146068556200003b6b204fce5e3e25026110000000606654620000a960201b620031b21790919060201c565b606955620000666b204fce5e3e25026110000000606754620000a960201b620031b21790919060201c565b606a55620000926c0c9f2c9cd04674edea40000000606854620000a960201b620031b21790919060201c565b606b55348015620000a257600080fd5b5062000110565b600082620000ba575060006200010a565b82820282848281620000c857fe5b0414620001075760405162461bcd60e51b815260040180806020018281038252602181526020018062003fba6021913960400191505060405180910390fd5b90505b92915050565b613e9a80620001206000396000f3fe60806040526004361061020f5760003560e01c80637957836e11610118578063c2297c27116100a0578063e99fb9ac1161006f578063e99fb9ac14610968578063eeb6f233146109ca578063f27c292e14610a72578063f2dfbf6614610ab7578063f2fde38b14610acc5761020f565b8063c2297c2714610814578063cd1351d51461086f578063cf338821146108a2578063d802a6fd1461092f5761020f565b8063a1bfe1ba116100e7578063a1bfe1ba1461063f578063a28b800e14610678578063a418cac6146106b1578063a8f05101146106fe578063b2db2f51146107135761020f565b80637957836e146105355780638440f1c51461056857806389a01265146105945780638da5cb5b1461062a5761020f565b80634059d5961161019b5780635bf8eddd1161016a5780635bf8eddd146104845780635cfd95a014610499578063676d405e146104d25780636d30cccb1461050b578063715018a6146105205761020f565b80634059d596146103e05780634ffe2a8b146103f557806357a7e13d146104265780635af41713146104525761020f565b80632b64f838116101e25780632b64f8381461030a5780632c26bac71461031f5780632f59a5ce146103665780633a19deb0146103995780634031234c146103cb5761020f565b80630d7b4b3d146102145780631299c2a71461024f578063157fac8f146102aa5780632893c27e146102e3575b600080fd5b34801561022057600080fd5b5061024d6004803603604081101561023757600080fd5b506001600160a01b038135169060200135610aff565b005b34801561025b57600080fd5b5061024d600480360360e081101561027257600080fd5b506001600160a01b038135169060208101359060408101359060608101359060808101359060a081013515159060c001351515610b55565b3480156102b657600080fd5b5061024d600480360360408110156102cd57600080fd5b506001600160a01b038135169060200135610e21565b3480156102ef57600080fd5b506102f861101f565b60408051918252519081900360200190f35b34801561031657600080fd5b506102f8611025565b34801561032b57600080fd5b5061024d6004803603608081101561034257600080fd5b506001600160a01b038135811691602081013591604082013591606001351661102b565b34801561037257600080fd5b5061024d6004803603602081101561038957600080fd5b50356001600160a01b0316611384565b61024d600480360360608110156103af57600080fd5b506001600160a01b03813516906020810135906040013561144b565b3480156103d757600080fd5b506102f8611809565b3480156103ec57600080fd5b506102f861180f565b34801561040157600080fd5b5061040a611817565b604080516001600160a01b039092168252519081900360200190f35b61024d6004803603604081101561043c57600080fd5b506001600160a01b038135169060200135611826565b61024d6004803603606081101561046857600080fd5b506001600160a01b03813516906020810135906040013561189a565b34801561049057600080fd5b506102f8611acb565b3480156104a557600080fd5b5061024d600480360360408110156104bc57600080fd5b506001600160a01b038135169060200135611ad1565b3480156104de57600080fd5b506102f8600480360360408110156104f557600080fd5b506001600160a01b038135169060200135611c21565b34801561051757600080fd5b506102f8611c3e565b34801561052c57600080fd5b5061024d611c44565b34801561054157600080fd5b5061024d6004803603602081101561055857600080fd5b50356001600160a01b0316611d02565b61024d6004803603604081101561057e57600080fd5b506001600160a01b038135169060200135611e2a565b3480156105a057600080fd5b506105be600480360360208110156105b757600080fd5b50356121b7565b6040805189151581526001600160a01b03808a1660208301528881169282019290925260608101879052858216608082015260a0810185905290831660c082015260e0810182600581111561060f57fe5b60ff1681526020019850505050505050505060405180910390f35b34801561063657600080fd5b5061040a612212565b34801561064b57600080fd5b5061024d6004803603604081101561066257600080fd5b506001600160a01b038135169060200135612222565b34801561068457600080fd5b5061024d6004803603604081101561069b57600080fd5b506001600160a01b0381351690602001356124f5565b3480156106bd57600080fd5b506106ea600480360360408110156106d457600080fd5b506001600160a01b0381351690602001356126e4565b604080519115158252519081900360200190f35b34801561070a57600080fd5b506102f8612704565b34801561071f57600080fd5b5061074c6004803603604081101561073657600080fd5b506001600160a01b03813516906020013561270a565b604051808e6001600160a01b03166001600160a01b031681526020018d81526020018c6001600160a01b03166001600160a01b031681526020018b81526020018a8152602001898152602001886001600160a01b03166001600160a01b03168152602001878152602001866001600160a01b03166001600160a01b03168152602001851515151581526020018460038111156107e457fe5b60ff168152921515602084015250151560408083019190915251908190036060019b509950505050505050505050f35b34801561082057600080fd5b5061024d600480360360e081101561083757600080fd5b506001600160a01b03813581169160208101359160408201359160608101359091169060808101359060a08101359060c00135612799565b34801561087b57600080fd5b506106ea6004803603602081101561089257600080fd5b50356001600160a01b0316612b32565b3480156108ae57600080fd5b5061024d600480360360408110156108c557600080fd5b6001600160a01b0382351691908101906040810160208201356401000000008111156108f057600080fd5b82018360208201111561090257600080fd5b8035906020019184600183028401116401000000008311171561092457600080fd5b509092509050612b47565b34801561093b57600080fd5b5061024d6004803603604081101561095257600080fd5b506001600160a01b038135169060200135612c52565b34801561097457600080fd5b506109926004803603602081101561098b57600080fd5b5035612dcc565b604080519788526020880196909652868601949094526060860192909252608085015260a084015260c0830152519081900360e00190f35b3480156109d657600080fd5b506109fd600480360360208110156109ed57600080fd5b50356001600160a01b0316612e09565b6040805160208082528351818301528351919283929083019185019080838360005b83811015610a37578181015183820152602001610a1f565b50505050905090810190601f168015610a645780820380516001836020036101000a031916815260200191505b509250505060405180910390f35b348015610a7e57600080fd5b5061024d60048036036080811015610a9557600080fd5b506001600160a01b038135169060208101359060408101359060600135612ea4565b348015610ac357600080fd5b506102f8613097565b348015610ad857600080fd5b5061024d60048036036020811015610aef57600080fd5b50356001600160a01b031661309d565b6001600160a01b03821660009081526072602090815260408220918390525260405162461bcd60e51b8152600401808060200182810382526025815260200180613bea6025913960400191505060405180910390fd5b3360008181526070602052604090205460026000196101006001841615020190911604610bb35760405162461bcd60e51b8152600401808060200182810382526029815260200180613ca06029913960400191505060405180910390fd5b6001600160a01b038816610c04576040805162461bcd60e51b8152602060048201526013602482015272496e76616c6964204e4654206164647265737360681b604482015290519081900360640190fd5b6001600160a01b03881660009081526071602090815260408083208a845290915290205460ff16610c7c576040805162461bcd60e51b815260206004820152601860248201527f5468652071756f746520646f6573206e6f742065786973740000000000000000604482015290519081900360640190fd5b60006001600160a01b0389166000908152606e602090815260408083208b8452909152902060080154600160a81b900460ff166003811115610cba57fe5b14610d05576040805162461bcd60e51b81526020600482015260166024820152755468652071756f74652076616c75652065786973747360501b604482015290519081900360640190fd5b8115158315151415610d485760405162461bcd60e51b8152600401808060200182810382526032815260200180613d776032913960400191505060405180910390fd5b6001600160a01b0388166000818152606e602090815260408083208b8452825291829020600881018054600483018c9055600783018b90556005909201899055600160a01b336001600160a01b03199093169290921760ff60a01b19169190911760ff60b01b1916600160b01b881515021760ff60b81b1916600160b81b87151502179055815192835282018990528181018890526060820186905260808201879052517f2642d20c95a5efb3314ca259516737c56f1035334e28cc3e27a75112083f24fe9160a0908290030190a15050505050505050565b3360008181526070602052604090205460026000196101006001841615020190911604610e7f5760405162461bcd60e51b8152600401808060200182810382526029815260200180613ca06029913960400191505060405180910390fd5b6001600160a01b0383166000908152607260209081526040808320858452825280832054808452606d9092529091205460ff16610f03576040805162461bcd60e51b815260206004820181905260248201527f546865204e46542072656e74206c696e6520646f6573206e6f74206578697374604482015290519081900360640190fd5b60046000828152606d60205260409020600590810154600160a01b900460ff1690811115610f2d57fe5b14610f74576040805162461bcd60e51b815260206004820152601260248201527114995b9d081b9bdd0818d85b98d95b1b195960721b604482015290519081900360640190fd5b606a546001600160a01b0385166000908152606e602090815260408083208784529091528120600701549091610fcf916c0c9f2c9cd04674edea4000000091610fc3919063ffffffff6131b216565b9063ffffffff61321416565b6001600160a01b0386166000908152606e60209081526040808320888452909152902060080154909150600160a01b900460ff161515600114156110185761101885858361327b565b5050505050565b60675481565b606a5481565b6001600160a01b03841661107c576040805162461bcd60e51b8152602060048201526013602482015272496e76616c6964204e4654206164647265737360681b604482015290519081900360640190fd5b6001600160a01b038416600090815260716020908152604080832086845290915290205460ff16156110f0576040805162461bcd60e51b81526020600482015260186024820152775468652071756f746520616c72656164792065786973747360401b604482015290519081900360640190fd5b6001600160a01b038481166000818152606e60209081526040808320888452825280832080546001600160a01b03199081168617825560018083018b9055600283018054831633179055600383018a9055600683018054988a169890921697909717905560080180546001600160b01b031916905583835260718252808320888452909152808220805460ff191690941790935582516306fdde0360e01b815292517f907d68ef74e5ecd6be58baff9d21fa31f9a3fa3d441f5c8ce4f25f7c3ae87629936306fdde03926004808301939192829003018186803b1580156111d657600080fd5b505afa1580156111ea573d6000803e3d6000fd5b505050506040513d6000823e601f3d908101601f19168201604052602081101561121357600080fd5b810190808051604051939291908464010000000082111561123357600080fd5b90830190602082018581111561124857600080fd5b825164010000000081118282018810171561126257600080fd5b82525081516020918201929091019080838360005b8381101561128f578181015183820152602001611277565b50505050905090810190601f1680156112bc5780820380516001836020036101000a031916815260200191505b50604052505050858584866040518080602001866001600160a01b03166001600160a01b03168152602001858152602001846001600160a01b03166001600160a01b03168152602001838152602001828103825287818151815260200191508051906020019080838360005b83811015611340578181015183820152602001611328565b50505050905090810190601f16801561136d5780820380516001836020036101000a031916815260200191505b50965050505050505060405180910390a150505050565b6001600160a01b038116600090815260706020526040902054600260001961010060018416150201909116046113eb5760405162461bcd60e51b8152600401808060200182810382526023815260200180613c7d6023913960400191505060405180910390fd5b6001600160a01b038116600090815260706020526040812061140c91613b0a565b604080516001600160a01b038316815290517f44a3cd4eb5cc5748f6169df057b1cb2ae4c383e87cd94663c430e095d4cba4249181900360200190a150565b6001600160a01b038084166000908152607260209081526040808320868452825280832054808452606d9092529091206001015490911633146114bf5760405162461bcd60e51b8152600401808060200182810382526025815260200180613df56025913960400191505060405180910390fd5b6001600160a01b0384166000908152607260209081526040808320868452825280832054808452606d9092529091205460ff1661152d5760405162461bcd60e51b8152600401808060200182810382526021815260200180613e1a6021913960400191505060405180910390fd5b6000818152606c602052604090206003015460011115611594576040805162461bcd60e51b815260206004820152601760248201527f416c6c2072657061796d656e74732061726520646f6e65000000000000000000604482015290519081900360640190fd5b60026000828152606d60205260409020600590810154600160a01b900460ff16908111156115be57fe5b14611610576040805162461bcd60e51b815260206004820152601960248201527f52656e74696e6720686173206e6f7420626567756e2079657400000000000000604482015290519081900360640190fd5b600061161c86866132c4565b9050838114611668576040805162461bcd60e51b8152602060048201526013602482015272125b9cdd59999a58da595b9d08185b5bdd5b9d606a1b604482015290519081900360640190fd5b6000828152606c602052604090206006810154600290910154429190611694828263ffffffff61330016565b8311611747576000858152606c6020526040902060030154600114156116ce576116bf89898961335a565b6116c98989613458565b6116d9565b6116d989898961335a565b6000858152606c602090815260409182902060038101805460001901908190554260069092019190915582516001600160a01b038d1681529182015281517f0516911bcc3a0a7412a44601057c0a0a1ec628bde049a84284bc428866534488929181900390910190a16117fe565b60056000868152606d60205260409020600590810154600160a01b900460ff169081111561177157fe5b50507f7409cb79815e2fcde95fb7b9a71f41844973d56c2677fa71c263f76d01576fa08986606d600089815260200190815260200160002060050160149054906101000a900460ff1660405180846001600160a01b03166001600160a01b031681526020018381526020018260058111156117e857fe5b60ff168152602001935050505060405180910390a15b505050505050505050565b606b5481565b6301e1338081565b606f546001600160a01b031681565b6001600160a01b03821660009081526072602090815260408220918390525260405162461bcd60e51b8152600401808060200182810382526022815260200180613c356022913960400191505060405180910390fd5b60ff168152602001935050505060405180910390a150505050505050565b33600081815260706020526040902054600260001961010060018416150201909116046118f85760405162461bcd60e51b8152600401808060200182810382526029815260200180613ca06029913960400191505060405180910390fd5b6001600160a01b0384166000908152607260209081526040808320868452825280832054808452606d9092529091205460ff1661197c576040805162461bcd60e51b815260206004820181905260248201527f546865204e46542072656e74206c696e6520646f6573206e6f74206578697374604482015290519081900360640190fd5b60016000828152606d60205260409020600590810154600160a01b900460ff16908111156119a657fe5b146119ed576040805162461bcd60e51b815260206004820152601260248201527114995b9d081b9bdd081c995c5d595cdd195960721b604482015290519081900360640190fd5b606a546001600160a01b0386166000908152606e602090815260408083208884529091528120600701549091611a3c916c0c9f2c9cd04674edea4000000091610fc3919063ffffffff6131b216565b6001600160a01b0387166000908152606e60209081526040808320898452909152902060080154909150600160a01b900460ff16151560011415611ac357838114611ab85760405162461bcd60e51b8152600401808060200182810382526022815260200180613dd36022913960400191505060405180910390fd5b611ac386868661368b565b505050505050565b60665481565b3360008181526070602052604090205460026000196101006001841615020190911604611b2f5760405162461bcd60e51b8152600401808060200182810382526029815260200180613ca06029913960400191505060405180910390fd5b6001600160a01b0383166000908152607260209081526040808320858452825280832054808452606d9092529091205460ff16611bb3576040805162461bcd60e51b815260206004820181905260248201527f546865204e46542072656e74206c696e6520646f6573206e6f74206578697374604482015290519081900360640190fd5b60036000828152606d60205260409020600590810154600160a01b900460ff1690811115611bdd57fe5b14610f74576040805162461bcd60e51b815260206004820152600f60248201526e14995b9d081b9bdd0818db1bdcd959608a1b604482015290519081900360640190fd5b607260209081526000928352604080842090915290825290205481565b60655481565b611c4c613726565b6001600160a01b0316611c5d612212565b6001600160a01b031614611cb8576040805162461bcd60e51b815260206004820181905260248201527f4f776e61626c653a2063616c6c6572206973206e6f7420746865206f776e6572604482015290519081900360640190fd5b6033546040516000916001600160a01b0316907f8be0079c531659141344cd1fd0a4f28419497f9722a3daafe3b4186f6b6457e0908390a3603380546001600160a01b0319169055565b3360008181526070602052604090205460026000196101006001841615020190911604611d605760405162461bcd60e51b8152600401808060200182810382526029815260200180613ca06029913960400191505060405180910390fd5b6001600160a01b03821660009081526073602052604090205460ff1615611dce576040805162461bcd60e51b815260206004820181905260248201527f54686520626f72726f77657220697320616c7265616479207665726966696564604482015290519081900360640190fd5b6001600160a01b038216600081815260736020908152604091829020805460ff19166001179055815192835290517f01172049b4a794575e07ae9f81e9d6631faf9838434887247323de8c2df804f49281900390910190a15050565b6001600160a01b038083166000908152607260209081526040808320858452825280832054808452606d909252909120549091610100909104163314611ea15760405162461bcd60e51b8152600401808060200182810382526023815260200180613d546023913960400191505060405180910390fd5b6001600160a01b0383166000908152607260209081526040808320858452825280832054808452606d9092529091205460ff16611f0f5760405162461bcd60e51b8152600401808060200182810382526021815260200180613e1a6021913960400191505060405180910390fd5b60016000828152606d60205260409020600590810154600160a01b900460ff1690811115611f3957fe5b14611f755760405162461bcd60e51b8152600401808060200182810382526024815260200180613d0c6024913960400191505060405180910390fd5b6000818152606c602052604090206005810154600190910154429190611fa1828263ffffffff61330016565b831161212e576001600160a01b0387166000908152606e60209081526040808320898452909152902060080154600160b81b900460ff16151560011415612084576000848152606d602090815260408083206001908101546001600160a01b038c8116808752606e86528487208d8852909552838620909201548351632142170760e11b8152336004820152929091166024830181905260448301829052925192949093926342842e0e92606480820193929182900301818387803b15801561206957600080fd5b505af115801561207d573d6000803e3d6000fd5b5050505050505b6000848152606d602081815260408084206005908101805460ff60a01b1916600160a11b178155606c84529482902042600690910155928252925483516001600160a01b038c1681529182018890527fcf4767466573ec9226de1c83e0c44ef78996c5f4876aee8e4cc4bb49bc2019f4938b938993600160a01b90930460ff169291820190839081111561211457fe5b60ff168152602001935050505060405180910390a16121ae565b6000848152606d60209081526040918290206005908101805460ff60a01b1916600160a21b179081905583516001600160a01b038c1681529283018890527f127334b334dba48bbab255244c480e89b00a22dca4ad126dd1916487de1b22ff938b938993600160a01b90930460ff16929091820190839081111561187c57fe5b50505050505050565b606d6020526000908152604090208054600182015460028301546003840154600485015460059095015460ff808616966001600160a01b036101009097048716969586169593841693909290811691600160a01b9091041688565b6033546001600160a01b03165b90565b6001600160a01b038083166000908152607260209081526040808320858452825280832054808452606d9092529091205490916101009091041633146122995760405162461bcd60e51b8152600401808060200182810382526023815260200180613d546023913960400191505060405180910390fd5b6001600160a01b0383166000908152607260209081526040808320858452825280832054808452606d9092529091205460ff166123075760405162461bcd60e51b8152600401808060200182810382526021815260200180613e1a6021913960400191505060405180910390fd5b60056000828152606d60205260409020600590810154600160a01b900460ff169081111561233157fe5b14612383576040805162461bcd60e51b815260206004820152601e60248201527f5468652072656e74206973206e6f742064656661756c746564207965742e0000604482015290519081900360640190fd5b6000818152606d6020908152604080832060050154606c9092528220600381015490546001600160a01b03909216929091906123c5828463ffffffff61372a16565b905060006123d389896132c4565b905060006123e7828463ffffffff6131b216565b6001600160a01b038b166000908152606e602090815260408083208d845290915281206007015491925090612422908363ffffffff61330016565b6001600160a01b038c166000908152606e602090815260408083208e8452909152902060080154909150600160a01b900460ff161515600114156124cd5760006124988561248c6c0c9f2c9cd04674edea40000000610fc3606954896131b290919063ffffffff16565b9063ffffffff6131b216565b905060006124a68d8d613787565b90506124c8826124bc858463ffffffff61330016565b9063ffffffff61372a16565b925050505b6124e86001600160a01b03881630338463ffffffff6137d716565b5050505050505050505050565b6001600160a01b038216600090815260716020908152604080832084845290915290205460ff16612569576040805162461bcd60e51b81526020600482015260196024820152785468652071756f746520646f6573206e6f742065786973747360381b604482015290519081900360640190fd5b6001600160a01b038281166000908152606e602090815260408083208584529091529020600201541633146125e5576040805162461bcd60e51b815260206004820152601c60248201527f4f6e6c79206c656e6465722063616e206163636570742071756f746500000000604482015290519081900360640190fd5b6001600160a01b038281166000908152606e602090815260408083208584529091529020600801541661265f576040805162461bcd60e51b815260206004820152601e60248201527f45787065727420686173206e6f7420676976656e207468652071756f74650000604482015290519081900360640190fd5b6001600160a01b0382166000818152606e60209081526040808320858452825291829020600881018054600160a01b60ff60a81b19909116600160a81b1760ff60a01b19161790556004015482519384529083015280517fb791d9e8e11147d21baa1cd78c4adb0806ea5839b3e26a4305fa50045d3ec96d9281900390910190a15050565b607160209081526000928352604080842090915290825290205460ff1681565b60695481565b606e6020908152600092835260408084209091529082529020805460018201546002830154600384015460048501546005860154600687015460078801546008909801546001600160a01b0397881698969795861696949593949293918216929181169060ff600160a01b8204811691600160a81b8104821691600160b01b8204811691600160b81b9004168d565b6001600160a01b0387166127ea576040805162461bcd60e51b8152602060048201526013602482015272496e76616c6964204e4654206164647265737360681b604482015290519081900360640190fd5b6001600160a01b038716600090815260716020908152604080832089845290915290205460ff161561285e576040805162461bcd60e51b81526020600482015260186024820152775468652071756f746520616c72656164792065786973747360401b604482015290519081900360640190fd5b6001600160a01b038781166000818152606e602090815260408083208b8452825280832080546001600160a01b03199081168617825560018083018e905560028301805433908416179055600383018d905560048084018c9055600584018b9055600684018054909316988d169890981790915560078201889055600890910180546001600160b01b031916600360a81b1761ffff60b01b1916600160b81b179055848452607183528184208c8552909252808320805460ff191690921790915580516306fdde0360e01b815290517f9dfe99d0d260e0d5c8d17db277bfd33d975b2c347e6eceb328e99d5b8eb970fd946306fdde03938382019390929190829003018186803b15801561297157600080fd5b505afa158015612985573d6000803e3d6000fd5b505050506040513d6000823e601f3d908101601f1916820160405260208110156129ae57600080fd5b81019080805160405193929190846401000000008211156129ce57600080fd5b9083019060208201858111156129e357600080fd5b82516401000000008111828201881017156129fd57600080fd5b82525081516020918201929091019080838360005b83811015612a2a578181015183820152602001612a12565b50505050905090810190601f168015612a575780820380516001836020036101000a031916815260200191505b506040525050508888878988876040518080602001886001600160a01b03166001600160a01b03168152602001878152602001866001600160a01b03166001600160a01b03168152602001858152602001848152602001838152602001828103825289818151815260200191508051906020019080838360005b83811015612ae9578181015183820152602001612ad1565b50505050905090810190601f168015612b165780820380516001836020036101000a031916815260200191505b509850505050505050505060405180910390a150505050505050565b60736020526000908152604090205460ff1681565b6001600160a01b0383166000908152607060205260409020546002600019610100600184161502019091160415612baf5760405162461bcd60e51b8152600401808060200182810382526022815260200180613cc96022913960400191505060405180910390fd5b6001600160a01b0383166000908152607060205260409020612bd2908383613b51565b507f30b5eb94a54f18a967aed7e72caf39194d0f0ba44ed3fed9febc2f355556115883838360405180846001600160a01b03166001600160a01b03168152602001806020018281038252848482818152602001925080828437600083820152604051601f909101601f1916909201829003965090945050505050a1505050565b6001600160a01b038083166000908152607260209081526040808320858452825280832054808452606d909252909120600101549091163314612cc65760405162461bcd60e51b8152600401808060200182810382526025815260200180613df56025913960400191505060405180910390fd5b6001600160a01b0383166000908152607260209081526040808320858452825280832054808452606d9092529091205460ff16612d345760405162461bcd60e51b8152600401808060200182810382526021815260200180613e1a6021913960400191505060405180910390fd5b60046000828152606d60205260409020600590810154600160a01b900460ff1690811115612d5e57fe5b14612d9a5760405162461bcd60e51b8152600401808060200182810382526024815260200180613d306024913960400191505060405180910390fd5b6001600160a01b0384166000908152606e6020908152604080832086845290915290206007015461101885858361327b565b606c602052600090815260409020805460018201546002830154600384015460048501546005860154600690960154949593949293919290919087565b60706020908152600091825260409182902080548351601f600260001961010060018616150201909316929092049182018490048402810184019094528084529091830182828015612e9c5780601f10612e7157610100808354040283529160200191612e9c565b820191906000526020600020905b815481529060010190602001808311612e7f57829003601f168201915b505050505081565b6001600160a01b038416600090815260716020908152604080832086845290915290205460ff16612f18576040805162461bcd60e51b81526020600482015260196024820152785468652071756f746520646f6573206e6f742065786973747360381b604482015290519081900360640190fd5b6001600160a01b038481166000908152606e60209081526040808320878452909152902060020154163314612f94576040805162461bcd60e51b815260206004820152601c60248201527f4f6e6c79206c656e6465722063616e206163636570742071756f746500000000604482015290519081900360640190fd5b6001600160a01b038481166000908152606e602090815260408083208784529091529020600801541661300e576040805162461bcd60e51b815260206004820152601e60248201527f45787065727420686173206e6f7420676976656e207468652071756f74650000604482015290519081900360640190fd5b6001600160a01b0384166000818152606e602090815260408083208784528252918290206004810186905560078101859055600801805460ff60a81b1916600160a91b1760ff60a01b191690558151928352820184905280517f72453b8947a73e283f4cd3b93848a9166c14805b4b2ccde25a44393a21a6fbd79281900390910190a150505050565b60685481565b6130a5613726565b6001600160a01b03166130b6612212565b6001600160a01b031614613111576040805162461bcd60e51b815260206004820181905260248201527f4f776e61626c653a2063616c6c6572206973206e6f7420746865206f776e6572604482015290519081900360640190fd5b6001600160a01b0381166131565760405162461bcd60e51b8152600401808060200182810382526026815260200180613c0f6026913960400191505060405180910390fd5b6033546040516001600160a01b038084169216907f8be0079c531659141344cd1fd0a4f28419497f9722a3daafe3b4186f6b6457e090600090a3603380546001600160a01b0319166001600160a01b0392909216919091179055565b6000826131c15750600061320e565b828202828482816131ce57fe5b041461320b5760405162461bcd60e51b8152600401808060200182810382526021815260200180613ceb6021913960400191505060405180910390fd5b90505b92915050565b600080821161326a576040805162461bcd60e51b815260206004820152601a60248201527f536166654d6174683a206469766973696f6e206279207a65726f000000000000604482015290519081900360640190fd5b81838161327357fe5b049392505050565b6001600160a01b038084166000908152607260209081526040808320868452825280832054808452606d909252909120600501549091166110188130338663ffffffff6137d716565b6001600160a01b039091166000908152607260209081526040808320938352928152828220548252606c90522060048101546002909101540290565b60008282018381101561320b576040805162461bcd60e51b815260206004820152601b60248201527f536166654d6174683a206164646974696f6e206f766572666c6f770000000000604482015290519081900360640190fd5b6001600160a01b038381166000818152607260209081526040808320878452825280832054808452606d835281842060050154948452606e8352818420888552909252909120600801549092918216918116906001600160a01b90910460ff161515141561343d5760006133ea6c0c9f2c9cd04674edea40000000610fc3606954886131b290919063ffffffff16565b905060006133fe868363ffffffff61372a16565b905061341b6001600160a01b03851633308463ffffffff6137d716565b6134366001600160a01b03851633858563ffffffff6137d716565b5050611ac3565b611ac36001600160a01b03831633308763ffffffff6137d716565b6001600160a01b0382166000908152607260209081526040808320848452825280832054808452606d9092529091205460ff166134c65760405162461bcd60e51b8152600401808060200182810382526021815260200180613e1a6021913960400191505060405180910390fd5b6000818152606c6020526040902060030154156135145760405162461bcd60e51b815260040180806020018281038252602a815260200180613da9602a913960400191505060405180910390fd5b6001600160a01b0383166000908152606e60209081526040808320858452909152902060080154600160b81b900460ff161515600114156135f1576000818152606d60209081526040808320546001600160a01b03878116808652606e8552838620888752909452828520600101548351632142170760e11b81523360048201526101009093049091166024830181905260448301829052925192949093926342842e0e92606480820193929182900301818387803b1580156135d657600080fd5b505af11580156135ea573d6000803e3d6000fd5b5050505050505b6000818152606d60209081526040918290206005908101805460ff60a01b1916600360a01b179081905583516001600160a01b03881681529283018590527fdada2cadbe023a84ca3cbfc50edffdac70618798e68b3f8d84987084eb7f82f19387938693600160a01b90930460ff16929091820190839081111561367157fe5b60ff168152602001935050505060405180910390a1505050565b6001600160a01b0383166000908152607260209081526040808320858452825280832054808452606d9092529091205460ff166136f95760405162461bcd60e51b8152600401808060200182810382526021815260200180613e1a6021913960400191505060405180910390fd5b6000818152606d60205260409020600501546001600160a01b03166110188133308663ffffffff6137d716565b3390565b600082821115613781576040805162461bcd60e51b815260206004820152601e60248201527f536166654d6174683a207375627472616374696f6e206f766572666c6f770000604482015290519081900360640190fd5b50900390565b606a546001600160a01b0383166000908152606e6020908152604080832085845290915281206007015490916137d0916c0c9f2c9cd04674edea4000000091610fc391906131b2565b9392505050565b604080516001600160a01b0380861660248301528416604482015260648082018490528251808303909101815260849091019091526020810180516001600160e01b03166323b872dd60e01b179052613831908590613837565b50505050565b606061388c826040518060400160405280602081526020017f5361666545524332303a206c6f772d6c6576656c2063616c6c206661696c6564815250856001600160a01b03166138ed9092919063ffffffff16565b8051909150156138e8578080602001905160208110156138ab57600080fd5b50516138e85760405162461bcd60e51b815260040180806020018281038252602a815260200180613e3b602a913960400191505060405180910390fd5b505050565b60606138fc8484600085613904565b949350505050565b6060824710156139455760405162461bcd60e51b8152600401808060200182810382526026815260200180613c576026913960400191505060405180910390fd5b61394e85613a60565b61399f576040805162461bcd60e51b815260206004820152601d60248201527f416464726573733a2063616c6c20746f206e6f6e2d636f6e7472616374000000604482015290519081900360640190fd5b60006060866001600160a01b031685876040518082805190602001908083835b602083106139de5780518252601f1990920191602091820191016139bf565b6001836020036101000a03801982511681845116808217855250505050505090500191505060006040518083038185875af1925050503d8060008114613a40576040519150601f19603f3d011682016040523d82523d6000602084013e613a45565b606091505b5091509150613a55828286613a66565b979650505050505050565b3b151590565b60608315613a755750816137d0565b825115613a855782518084602001fd5b8160405162461bcd60e51b81526004018080602001828103825283818151815260200191508051906020019080838360005b83811015613acf578181015183820152602001613ab7565b50505050905090810190601f168015613afc5780820380516001836020036101000a031916815260200191505b509250505060405180910390fd5b50805460018160011615610100020316600290046000825580601f10613b305750613b4e565b601f016020900490600052602060002090810190613b4e9190613bcf565b50565b828054600181600116156101000203166002900490600052602060002090601f016020900481019282601f10613b925782800160ff19823516178555613bbf565b82800160010185558215613bbf579182015b82811115613bbf578235825591602001919060010190613ba4565b50613bcb929150613bcf565b5090565b61221f91905b80821115613bcb5760008155600101613bd556fe54686520726571756573746564204e465420696e2063757272656e746c792072656e7465644f776e61626c653a206e6577206f776e657220697320746865207a65726f206164647265737354686520726571756573746564204e465420697320616c726561792072656e746564416464726573733a20696e73756666696369656e742062616c616e636520666f722063616c6c4164644578706572743a20566572696669657220646f6573206e6f74206578697374735468652045787065727420616c6f6e652063616e2061636365737320746869732066756e6374696f6e4164644578706572743a20566572696669657220616c726561647920657869737473536166654d6174683a206d756c7469706c69636174696f6e206f766572666c6f775468652052656e7420686173206e6f74206265656e20726571756573746564207965742e5468652052656e7420686173206e6f74206265656e2063616e63656c6c6564207965742e4f6e6c79204e465452656e74206c696e65204c656e6465722063616e20616363657373426f746820657363726f7720616e642077616c6c65742063616e6e6f742062652073657420746f2073616d652076616c7565506c6561736520636f6d706c6574652072656d61696e696e672072657061796d656e747320666972737454686520616d6f756e742070726f7669646564206973206e6f7420636f72726563744f6e6c79204e465452656e74206c696e6520426f72726f7765722063616e20616363657373546865204e46542072656e74206973206e6f7420796574207265717565737465645361666545524332303a204552433230206f7065726174696f6e20646964206e6f742073756363656564a2646970667358221220769e7f06111a6a9492281ac70e35311d87d5771cd0d8e807b2e7adf7482be3df64736f6c63430006070033536166654d6174683a206d756c7469706c69636174696f6e206f766572666c6f77",
  "linkReferences": {},
  "deployedLinkReferences": {}
}